:100000000C94B3000C94D0000C94D0000C94D0004D
:100010000C94D0000C94D0000C94D0000C94D00020
:100020000C94D0000C94D0000C9447010C948501E2
:100030000C94D0000C94D0000C94D0000C94D00000
:100040000C94D0000C94D0000C94D0000C94D000F0
:100050000C94D0000C94D0000C94D0000C94D000E0
:100060000C94D0000C94D0000C94D0000C94D000D0
:100070000C94D0000C9462040C94D0000C94D0002A
:100080000C94D0000C94D0000C94D0000C94D000B0
:100090000C94D0000C94D0000C94D0000C94D000A0
:1000A0000C94D0000C94D0000C94D00000010000FF
:1000B000E0001200020000F20043000300003501DE
:1000C0000401030904390112020309044D01060366
:1000D0000309045501080001C1120180360181366F
:1000E0001201000202000010C0167A040001010291
:1000F000030109024300020100C0320904000001AB
:10010000020201000524001001052401010104245C
:1001100002060524060001070582031000400904B9
:100120000100020A00000007050302400000070565
:1001300084024000000403090412034A002E002038
:10014000004600690065006E006500000006034D72
:1001500000320000000803340031003000000009C4
:100160004144433A200011241FBECFEFDAE0DEBF46
:10017000CDBF11E0A0E0B1E0EAE8F9E002C00590EF
:100180000D92A830B107D9F721E0A8E0B1E001C095
:100190001D92AE30B207E1F70E9475030C94C304C0
:1001A0000C94000081E08093D70080EA8093D8000F
:1001B00082E189BD09B400FEFDCF80E98093D800BB
:1001C0001092E0001092090110920A018CE08093D5
:1001D000E20078940895CF93DF93909109019923D9
:1001E00009F44DC09FB7F89424E02093E9002091D2
:1001F0000B01222349F02091E80025FD03C09FBF99
:100200008FEF42C010920B013091E400375E2091D5
:10021000E80025FD25C09FBF9091E400931749F0A9
:100220009091090191110FC02CC09FBF9881931329
:1002300005C081E080930B018FEF26C090910901EA
:10024000911108C020C0A9EEB0E044E0E8EEF0E073
:10025000C4EED0E09FB7F8944C93208125FFE5CF02
:100260008093F1008091E80085FD03C08AE38093CC
:10027000E80085E0809308019FBF80E005C08FEF14
:1002800003C08FEF01C08FEFDF91CF9108951F92D0
:100290000F920FB60F9211248F939F93EF93FF93BA
:1002A000E1EEF0E08081108283FF11C01092E9003E
:1002B00091E09093EB001092EC0092E19093ED00AE
:1002C00098E09093F0001092090110920A0182FFC9
:1002D00013C080910901882379F080910801882357
:1002E00059F0815080930801811106C084E0809309
:1002F000E9008AE38093E800FF91EF919F918F914D
:100300000F900FBE0F901F9018951F920F920FB66F
:100310000F9211240F931F932F933F934F935F934B
:100320006F937F938F939F93AF93BF93CF93DF93FD
:10033000EF93FF931092E9008091E80083FF51C191
:10034000E1EFF0E07081408120813081932F80E0E7
:10035000DC01A22B9D0150816081962F80E0852BCE
:10036000A081B08152EF5093E800463009F05CC0A4
:1003700004C081E28093EB003BC1C6E04CEA50E050
:10038000FA01659174912617370719F0495F5F4F9D
:1003900020C0FA013296659174918617970719F07B
:1003A000495F5F4F16C0FA01349685919491282FCA
:1003B000392FFA01369644919B2F80E08A2B8F3F8C
:1003C000910519F010F08FEF90E0841728F4482F72
:1003D00003C0C150A9F6CDCFC8EED0E07EEFA1EFAB
:1003E000B0E010E18881982F9570E1F382FD00C1A3
:1003F000642F413108F0612F662309F4F6C0C9016A
:10040000562FFC010196E491EC935150D1F7862FC1
:10041000815090E00196280F391F461B78834111C7
:10042000E1CF6031F9F2E4C0453061F48EEF8093A2
:10043000E800E8EEF0E0808180FFFDCF20682093A7
:10044000E300D6C04930A1F571115BC020930901CA
:1004500010920A01109208018EEF8093E80011E0DB
:1004600086ED90E0C9EED0E0ABEEB0E06CEE70E06F
:100470004DEE50E018839C012F5F3F4FFC0104912B
:100480000C93002359F0F9012491FB012083FC0116
:10049000329603962491FA01208301C0C9011F5F9F
:1004A000153041F7EAEEF0E08EE180831082A0C0C3
:1004B000483081F4703809F03FC0E8EEF0E0808108
:1004C00080FFFDCF809109018093F1008EEF809332
:1004D000E8008EC04132A9F4713AF1F5E8EEF0E09F
:1004E000808180FFFDCFE0E0F1E0A1EFB0E08191FD
:1004F0008C9341E0E730F407D1F78EEF8093E8006A
:1005000077C04032C9F4713209F06BC0E8EEF0E018
:10051000808182FFFDCFE0E0F1E0A1EFB0E08C91BF
:10052000819351E0E730F507D1F7E8EEF0E08BEF8B
:1005300080838EEF80835CC0423271F4713209F0A7
:1005400050C020930A01E8EEF0E0808180FFFDCFEB
:100550008EEF8093E8004CC041111AC0E8EEF0E045
:10056000208120FFFDCF723851F4E9EEF0E0808366
:100570008091EB0085FB882780F9108201C080E024
:10058000E1EFF0E0808310828EEF8093E80030C0CE
:10059000413011F0433029F5723019F5232B09F55C
:1005A0008F779927382F31503430D8F43EEF30937D
:1005B000E8008093E900433021F481E28093EB006E
:1005C00017C099E19093EB0021E030E0D90102C01F
:1005D000AA0FBB1F8A95E2F7EAEEF0E0A083108233
:1005E00007C081E28093EB0003C078834111FACE0B
:1005F000FF91EF91DF91CF91BF91AF919F918F913B
:100600007F916F915F914F913F912F911F910F912A
:100610000F900FBE0F901F9018951F93CF93DF93ED
:10062000EC012196FC011491112369F01A3019F4A0
:100630008DE00E94EB00812F0E94EB00FE012196CD
:1006400014911111F3CFDF91CF911F910895EF9283
:10065000FF920F931F93CF93DF93CDB7DEB727970A
:100660000FB6F894DEBF0FBECDBF8E010F5F1F4FD8
:1006700027E0F80111922A95E9F74AE050E0B80125
:100680000E947E047E01F8E0EF0EF11CF8018191DA
:100690008F0181110E94EB000E151F05B9F72796F7
:1006A0000FB6F894DEBF0FBECDBFDF91CF911F9183
:1006B0000F91FF90EF900895EBE7F0E080818F7D40
:1006C0008083ECE7F0E080818460808380818260B9
:1006D000808380818E7F8083EAE7F0E0808180687C
:1006E00080838081806480830895E1E6F0E080E883
:1006F0008083108285B5886085BD84B5826084BDA5
:1007000084B5826084BD84B5806284BD84B58F7EEB
:1007100084BD85B5846085BD85B5826085BD85B5A0
:10072000816085BD279AC8E8D0E08FEF90E099837B
:1007300088832AE830E0F90111821082E1E8F0E0D4
:10074000808180618083808188608083A0E8B0E0C0
:100750008C9182608C938C9181608C938C9180625F
:100760008C938C918F7E8C9380818B7F8083808112
:100770008D7F8083808181608083269A8FEF9FEFB9
:1007800099838883F90111821082E1E9F0E02081E8
:1007900020612083208128602083A0E9B0E02C9193
:1007A00022602C932C912E7F2C932C9120682C93DB
:1007B0002C912F7B2C9320812B7F208320812D7FD8
:1007C000208320812160208390939700809396005E
:1007D00019821882279A269A3E9A229A239A789406
:1007E000EAE7F0E0808188608083ACE7B0E08C913C
:1007F0008F778C938C918F7B8C93808184608083A6
:10080000808182608083808181608083AEE7B0E0F8
:100810008C9181608C938C9182608C938C9180619F
:100820008C938C9180628C938C9180648C93ADE7D7
:10083000B0E08C9181608C938C9182608C938081EC
:1008400080628083808180618083209821982898AD
:1008500029980E94D20082E380930C0182E0809369
:100860000D010E945C03C0E0D0E00F2EFCE0EF2EF3
:10087000F1E0FF2EF02D0F2EF2E38F2EF02D0DE084
:1008800011E06894992491F80F2EF8E7AF2EB12C5F
:10089000F02DC12CD12C0AC08FE591E00E940D03F0
:1008A000F501808191810E942703E6012196F701DD
:1008B0008082F80190820E945C03C131F7E2DF0779
:1008C000ACF3EACF1F920F920FB60F9211242F9321
:1008D0008F939F938091780090917900853F91400C
:1008E00018F06A9A729802C06A9A729A9F918F91D0
:1008F0002F910F900FBE0F901F901895FB019F0135
:10090000E8944230C4F04532B4F44A3029F497FBFD
:100910001EF4909581959F4F642F77270E94AF0416
:10092000805D8A330CF0895D8193CB010097A1F73C
:1009300016F45DE251931082C9010C949F04DC010E
:10094000FC01672F71917723E1F7329704C07C9106
:100950006D9370836291AE17BF07C8F30895AA1B09
:10096000BB1B51E107C0AA1FBB1FA617B70710F09A
:10097000A61BB70B881F991F5A95A9F780959095CC
:0A098000BC01CD010895F894FFCFEB
:08098A0000E10000000008007C
:00000001FF
