S0100000526F626F636B65792E73726563D6
S11300000C94B0000C94CD000C94CD000C94CD0055
S11300100C94CD000C94CD000C94CD000C94CD0028
S11300200C94CD000C94CD000C9453040C949104C6
S11300300C94CD000C94CD000C94CD000C94CD0008
S11300400C94CD000C94CD000C94CD000C94CD00F8
S11300500C94CD000C94CD000C94CD000C94CD00E8
S11300600C94CD000C94CD000C94CD000C94CD00D8
S11300700C94CD000C94CD000C94CD000C94CD00C8
S11300800C94CD000C94CD000C94CD000C94CD00B8
S11300900C94CD000C94CD000C94CD000C94CD00A8
S11300A00C94CD000C94CD000C94CD000001000004
S11300B0E0001200020000F20043000300003501DA
S11300C00401030904390112020309044D01060362
S11300D00309045501080001C1120180360181366B
S11300E01201000202000010C0167A04000101028D
S11300F0030109024300020100C0320904000001A7
S11301000202010005240010010524010101042458
S113011002060524060001070582031000400904B5
S11301200100020A00000007050302400000070561
S113013084024000000403090412034A002E002034
S1130140004600690065006E006500000006034D6E
S113015000320000000803340031003000000000C9
S113016011241FBECFEFDAE0DEBFCDBF11E0A0E067
S1130170B1E0EAE3FFE002C005900D92A830B107B8
S1130180D9F721E0A8E0B1E001C01D92AD30B2077B
S1130190E1F70E9419060C949B070C940000589AEE
S11301A0599A5A9A8CE08093B800E9E6F0E080818D
S11301B08062808380818F7E8083EA9A7894089518
S11301C084E88093BC00ECEBF0E080818823ECF7BA
S11301D08091BB00089584E98093BC00089520E0D9
S11301E030E0ECEBF0E08081882334F02F5F3F4F68
S11301F0293E83E03807B9F781E0283E334009F40B
S113020080E008958093BB0084E88093BC000E9442
S1130210EF00882321F08091B900887F089580E061
S11302200895CF93DF93C82FD62F94EA9093BC0000
S11302300E94EF00811104C00E94EB0080E01AC00C
S1130240DD2359F08C2F880F8F5F0E9402018834C0
S113025071F40E94EB0080E00DC08C2F880F0E9487
S11302600201803231F40E94EB0080E003C081E09F
S113027001C081E0DF91CF910895CF93DF93C62F22
S1130280D42F60E00E941101882371F08C2F0E940A
S11302900201882359F08D2F0E940201882341F026
S11302A00E94EB0081E005C080E003C080E001C053
S11302B080E0DF91CF910895CF93DF93C82FD62F9D
S11302C060E00E941101882381F08D2F0E940201B9
S11302D0882369F00E94EB0061E08C2F0E941101D9
S11302E0882339F00E94E00005C080E003C080E06C
S11302F001C080E0DF91CF9108958430910509F425
S113030091C07CF48130910509F124F4892B09F41E
S113031061C1089582309105E9F1039709F07DC127
S11303205DC08730910509F4E9C044F48530910536
S113033009F49CC0069709F070C1BCC088309105CF
S113034009F400C1099709F068C120C146E062E1DF
S113035080E20E943F0343E062E180E20E943F03A7
S113036042E062E180E20E94730341E062E180E2E4
S11303700E94730344E062E180E20E94730345E05B
S113038062E180E20E94730340E062E180E20E9445
S11303907303089546E062E180E20E94730343E040
S11303A062E180E20E943F0342E062E180E20E9457
S11303B03F0341E062E180E20E94730344E062E1B2
S11303C080E20E943F0345E062E180E20E943F0335
S11303D040E062E180E20E943F03089546E062E16A
S11303E080E20E943F0343E062E180E20E943F0317
S11303F042E062E180E20E943F0341E062E180E288
S11304000E94730344E062E180E20E94730345E0CA
S113041062E180E20E943F0340E062E180E20E94E8
S11304203F03089546E062E180E20E943F0343E017
S113043062E180E20E943F0342E062E180E20E94C6
S1130440730341E062E180E20E943F0344E062E121
S113045080E20E94730345E062E180E20E9473033C
S113046040E062E180E20E943F03089546E062E1D9
S113047080E20E943F0343E062E180E20E94730352
S113048042E062E180E20E943F0341E062E180E2F7
S11304900E943F0344E062E180E20E94730345E06E
S11304A062E180E20E943F0340E062E180E20E9458
S11304B03F03089546E062E180E20E943F0343E087
S11304C062E180E20E94730342E062E180E20E9402
S11304D03F0341E062E180E20E943F0344E062E1C5
S11304E080E20E943F0345E062E180E20E943F0314
S11304F040E062E180E20E943F03089546E062E149
S113050080E20E943F0343E062E180E20E943F03F5
S113051042E062E180E20E943F0341E062E180E266
S11305200E94730344E062E180E20E94730345E0A9
S113053062E180E20E94730340E062E180E20E9493
S11305407303089546E062E180E20E943F0343E0C2
S113055062E180E20E943F0342E062E180E20E94A5
S11305603F0341E062E180E20E943F0344E062E134
S113057080E20E943F0345E062E180E20E943F0383
S113058040E062E180E20E943F03089546E062E1B8
S113059080E20E943F0343E062E180E20E943F0365
S11305A042E062E180E20E943F0341E062E180E2D6
S11305B00E943F0344E062E180E20E94730345E04D
S11305C062E180E20E943F0340E062E180E20E9437
S11305D03F03089546E062E180E20E943F0343E066
S11305E062E180E20E943F0342E062E180E20E9415
S11305F03F0341E062E180E20E943F0344E062E1A4
S113060080E20E943F0345E062E180E20E943F03F2
S113061040E062E180E20E947303089580E20E9458
S1130620350340E060E080E20E943F0341E060E087
S113063080E20E943F0342E060E080E20E943F03C8
S113064043E060E080E20E943F0344E060E080E237
S11306500E943F0345E060E080E20E943F0346E0E1
S113066060E080E20E943F03089548E365E00E9451
S11306703D0191E0811101C090E0892F08951F93FD
S1130680CF93DF93D82FC62F142F0E945C01C23062
S113069088F4A1E0B0E0FD0102C0EE0FFF1F1A953F
S11306A0E2F7E095482F4E236C2F8D2F0E943D01D9
S11306B081E015C09C2F9251923080F4E1E0F0E08B
S11306C09F0102C0220F331F1A95E2F7482F422BD5
S11306D06C2F8D2F0E943D0181E001C080E0DF91ED
S11306E0CF911F9108951F93CF93DF93D82FC62FD7
S11306F0142F0E945C019C2F9251923088F4A1E047
S1130700B0E0FD0102C0EE0FFF1F1A95E2F7E0957D
S1130710482F4E236C2F8D2F0E943D0181E013C082
S1130720C23080F4E1E0F0E09F0102C0220F331FE9
S11307301A95E2F7482F422B6C2F8D2F0E943D0112
S113074081E001C080E0DF91CF911F9108951F9354
S1130750CF93DF93182FD62FC42F0E94CF0094EA93
S11307609093BC00ECEBF0E090819923ECF790E5DA
S11307709093BB0094E89093BC00ECEBF0E0908184
S11307809923ECF79091B900987F903229F484E989
S11307908093BC0080E02DC081E08093BB0084E89E
S11307A08093BC00ECEBF0E090819923ECF710937C
S11307B0BB0084E88093BC00ECEBF0E080818823EC
S11307C0ECF7D093BB0084E88093BC00ECEBF0E042
S11307D080818823ECF7C093BB0084E88093BC003D
S11307E0ECEBF0E080818823ECF784E98093BC0093
S11307F081E0DF91CF911F910895CF93DF93F89417
S113080094EA9093BC00ECEBF0E090819923ECF730
S113081090E59093BB0094E89093BC00ECEBF0E07F
S113082090819923ECF79091B900987F903231F43C
S113083084E98093BC00789480E032C093E0909384
S1130840BB0094E89093BC00ECEBF0E0908199231A
S1130850ECF78093BB0084E88093BC00ECEBF0E001
S113086080818823ECF7242F30E0121613069CF4C1
S1130870A62FB72F80E090E0CBEBD0E0ECEBF0E0DC
S113088054E84D914883508340814423ECF701960A
S113089082179307B4F384E98093BC00789481E0D1
S11308A0DF91CF9108951F920F920FB60F921124EA
S11308B08F939F93EF93FF93E1EEF0E0808110829A
S11308C083FF11C01092E90091E09093EB00109225
S11308D0EC0092E19093ED0098E09093F000109278
S11308E0090110920A0182FF13C080910901882333
S11308F079F080910801882359F081508093080190
S1130900811106C084E08093E9008AE38093E800C3
S1130910FF91EF919F918F910F900FBE0F901F90B9
S113092018951F920F920FB60F9211240F931F93D5
S11309302F933F934F935F936F937F938F939F93E3
S1130940AF93BF93CF93DF93EF93FF931092E9009C
S11309508091E80083FF51C1E1EFF0E070814081B4
S113096020813081932F80E0DC01A22B9D015081F6
S11309706081962F80E0852BA081B08152EF509347
S1130980E800463009F05CC004C081E28093EB00CB
S11309903BC1C6E04CEA50E0FA0165917491261718
S11309A0370719F0495F5F4F20C0FA01329665910D
S11309B074918617970719F0495F5F4F16C0FA01C3
S11309C0349685919491282F392FFA0136964491C3
S11309D09B2F80E08A2B8F3F910519F010F08FEF49
S11309E090E0841728F4482F03C0C150A9F6CDCF56
S11309F0C8EED0E07EEFA1EFB0E010E18881982F3F
S1130A009570E1F382FD00C1642F413108F0612F3C
S1130A10662309F4F6C0C901562FFC010196E4913E
S1130A20EC935150D1F7862F815090E00196280F16
S1130A30391F461B78834111E1CF6031F9F2E4C0DC
S1130A40453061F48EEF8093E800E8EEF0E08081B9
S1130A5080FFFDCF20682093E300D6C04930A1F584
S1130A6071115BC02093090110920A0110920801D0
S1130A708EEF8093E80011E086ED90E0C9EED0E0BF
S1130A80ABEEB0E06CEE70E04DEE50E018839C01EC
S1130A902F5F3F4FFC0104910C93002359F0F9019F
S1130AA02491FB012083FC01329603962491FA01E0
S1130AB0208301C0C9011F5F153041F7EAEEF0E061
S1130AC08EE180831082A0C0483081F4703809F030
S1130AD03FC0E8EEF0E0808180FFFDCF8091090106
S1130AE08093F1008EEF8093E8008EC04132A9F428
S1130AF0713AF1F5E8EEF0E0808180FFFDCFE0E0AF
S1130B00F1E0A1EFB0E081918C9341E0E730F4078C
S1130B10D1F78EEF8093E80077C04032C9F4713288
S1130B2009F06BC0E8EEF0E0808182FFFDCFE0E0E9
S1130B30F1E0A1EFB0E08C91819351E0E730F5074B
S1130B40D1F7E8EEF0E08BEF80838EEF80835CC01A
S1130B50423271F4713209F050C020930A01E8EE78
S1130B60F0E0808180FFFDCF8EEF8093E8004CC0E1
S1130B7041111AC0E8EEF0E0208120FFFDCF723869
S1130B8051F4E9EEF0E080838091EB0085FB882747
S1130B9080F9108201C080E0E1EFF0E080831082F0
S1130BA08EEF8093E80030C0413011F0433029F5D6
S1130BB0723019F5232B09F58F779927382F315087
S1130BC03430D8F43EEF3093E8008093E9004330AA
S1130BD021F481E28093EB0017C099E19093EB003C
S1130BE021E030E0D90102C0AA0FBB1F8A95E2F7C9
S1130BF0EAEEF0E0A083108207C081E28093EB006C
S1130C0003C078834111FACEFF91EF91DF91CF9128
S1130C10BF91AF919F918F917F916F915F914F9110
S1130C203F912F911F910F910F900FBE0F901F9026
S1130C3018950E94CF000E940E0342E060E082E01B
S1130C400E94A703E1E6F0E080E88083108285B586
S1130C50886085BD84B5826084BD84B5826084BDAE
S1130C6084B5806284BD84B58F7E84BD85B584607F
S1130C7085BD85B5826085BD85B5816085BDC8E8C3
S1130C80D0E08FEF90E0998388832AE830E0F9017F
S1130C9011821082E1E8F0E08081806180838081AC
S1130CA088608083A0E8B0E08C9182608C938C9102
S1130CB081608C938C9180628C938C918F7E8C93C9
S1130CC080818B7F808380818D7F80838081816020
S1130CD080838FEF9FEF99838883F90111821082BB
S1130CE0E1E9F0E0208120612083208128602083D5
S1130CF0A0E9B0E02C9122602C932C912E7F2C93B0
S1130D002C9120682C932C912F7B2C9320812B7F6A
S1130D10208320812D7F2083208121602083909354
S1130D2097008093960019821882269A3E9A229AF6
S1130D30239A7894ECE7F0E080818F778083808138
S1130D408F7B8083AAE7B0E08C9184608C938C9134
S1130D5082608C938C9181608C93CEE7D0E0888103
S1130D6081608883888182608883888180618883A8
S1130D70888180628883888180648883CDE7D0E01D
S1130D808881816088838881826088838C91806275
S1130D908C93CBE7D0E088818F7D888380818B7FA3
S1130DA0808380818D7F808380818E7F8083888112
S1130DB08F7D888380818B7F808380818D7F8083FA
S1130DC080818160808388818F7D88838081846035
S1130DD0808380818D7F808380818E7F80838881E2
S1130DE08F7D888380818460808380818D7F8083F0
S1130DF080818160808388818F7D88838081846005
S1130E00808380818260808380818E7F80838881DB
S1130E108062888380818B7F808380818D7F8083C3
S1130E2080818E7F808388818062888380818B7FAC
S1130E30808380818D7F80838081816080838C9199
S1130E4080688C938C9180648C938C9180618C935A
S1130E5082E380930B0182E080930C01C0E0D0E038
S1130E60812C912C0F2EFAE0CF2ED12CF02D0BE0FB
S1130E7011E00F2EF2E36F2EF02D0F2EFCE0EF2E7B
S1130E80F1E0FF2EF02D6894772471F868945524CE
S1130E9052F8A12CB12C0AC0472DB80180E00E9461
S1130EA0FD036A9A8EB185258EB94501FFEF8F1A2D
S1130EB09F0A2FEF89E698E1215080409040E1F7A6
S1130EC000C00000CE01B6010E9473070E947D019C
S1130ED02196F8016082F7017082F1E38F16F5E73D
S1130EE09F0624F3D9CF97FB072E16F4009407D05E
S1130EF077FD09D00E94870707FC05D03EF4909542
S1130F0081959F4F0895709561957F4F0895AA1B11
S1130F10BB1B51E107C0AA1FBB1FA617B70710F0E0
S1130F20A61BB70B881F991F5A95A9F78095909512
S10D0F30BC01CD010895F894FFCF31
S10B0F3A00E1000000000800C2
S9030000FC
