S0100000526F626F636B65792E73726563D6
S11300000C94B0000C94CD000C94CD000C94CD0055
S11300100C94CD000C94CD000C94CD000C94CD0028
S11300200C94CD000C94CD000C94E0000C941E01B3
S11300300C94CD000C94CD000C94CD000C94CD0008
S11300400C94CD000C94CD000C94CD000C94CD00F8
S11300500C94CD000C94CD000C94CD000C94CD00E8
S11300600C94CD000C94CD000C94CD000C94CD00D8
S11300700C94CD000C94C6040C94CD000C94CD00CB
S11300800C94CD000C94CD000C94CD000C94CD00B8
S11300900C94CD000C94CD000C94CD000C94CD00A8
S11300A00C94CD000C94CD000C94CD000001000004
S11300B0E0001200020000F20043000300003501DA
S11300C00401030904390112020309044D01060362
S11300D00309045501080001C1120180360181366B
S11300E01201000202000010C0167A04000101028D
S11300F0030109024300020100C0320904000001A7
S11301000202010005240010010524010101042458
S113011002060524060001070582031000400904B5
S11301200100020A00000007050302400000070561
S113013084024000000403090412034A002E002034
S1130140004600690065006E006500000006034D6E
S113015000320000000803340031003000000000C9
S113016011241FBECFEFDAE0DEBFCDBF11E0A0E067
S1130170B1E0E8ECF9E002C005900D92A830B107B7
S1130180D9F721E0A8E0B1E001C01D92AB30B2077D
S1130190E1F70E94E8030C94E2040C940000589ADE
S11301A0599A5A9A8CE08093B800E9E6F0E080818D
S11301B08062808380818F7E8083EA9A7894089518
S11301C01F920F920FB60F9211248F939F93EF9368
S11301D0FF93E1EEF0E08081108283FF11C0109262
S11301E0E90091E09093EB001092EC0092E190937F
S11301F0ED0098E09093F0001092090110920A012A
S113020082FF13C080910901882379F0809108014D
S1130210882359F0815080930801811106C084E03D
S11302208093E9008AE38093E800FF91EF919F9126
S11302308F910F900FBE0F901F9018951F920F92E1
S11302400FB60F9211240F931F932F933F934F9345
S11302505F936F937F938F939F93AF93BF93CF934A
S1130260DF93EF93FF931092E9008091E80083FFFE
S113027051C1E1EFF0E07081408120813081932F02
S113028080E0DC01A22B9D0150816081962F80E0EB
S1130290852BA081B08152EF5093E800463009F0DD
S11302A05CC004C081E28093EB003BC1C6E04CEA31
S11302B050E0FA01659174912617370719F0495FE8
S11302C05F4F20C0FA0132966591749186179707A3
S11302D019F0495F5F4F16C0FA01349685919491E5
S11302E0282F392FFA01369644919B2F80E08A2BD0
S11302F08F3F910519F010F08FEF90E0841728F4E8
S1130300482F03C0C150A9F6CDCFC8EED0E07EEF90
S1130310A1EFB0E010E18881982F9570E1F382FDA0
S113032000C1642F413108F0612F662309F4F6C03F
S1130330C901562FFC010196E491EC935150D1F779
S1130340862F815090E00196280F391F461B788331
S11303504111E1CF6031F9F2E4C0453061F48EEF30
S11303608093E800E8EEF0E0808180FFFDCF206814
S11303702093E300D6C04930A1F571115BC02093EE
S1130380090110920A01109208018EEF8093E8008F
S113039011E086ED90E0C9EED0E0ABEEB0E06CEE9B
S11303A070E04DEE50E018839C012F5F3F4FFC013D
S11303B004910C93002359F0F9012491FB0120834B
S11303C0FC01329603962491FA01208301C0C901ED
S11303D01F5F153041F7EAEEF0E08EE18083108272
S11303E0A0C0483081F4703809F03FC0E8EEF0E076
S11303F0808180FFFDCF809109018093F1008EEF11
S11304008093E8008EC04132A9F4713AF1F5E8EE28
S1130410F0E0808180FFFDCFE0E0F1E0A1EFB0E00B
S113042081918C9341E0E730F407D1F78EEF80930C
S1130430E80077C04032C9F4713209F06BC0E8EECD
S1130440F0E0808182FFFDCFE0E0F1E0A1EFB0E0D9
S11304508C91819351E0E730F507D1F7E8EEF0E0B5
S11304608BEF80838EEF80835CC0423271F47132F3
S113047009F050C020930A01E8EEF0E0808180FF8B
S1130480FDCF8EEF8093E8004CC041111AC0E8EE16
S1130490F0E0208120FFFDCF723851F4E9EEF0E066
S11304A080838091EB0085FB882780F9108201C04E
S11304B080E0E1EFF0E0808310828EEF8093E8002B
S11304C030C0413011F0433029F5723019F5232B37
S11304D009F58F779927382F31503430D8F43EEF0F
S11304E03093E8008093E900433021F481E2809363
S11304F0EB0017C099E19093EB0021E030E0D901C3
S113050002C0AA0FBB1F8A95E2F7EAEEF0E0A083CF
S1130510108207C081E28093EB0003C0788341110D
S1130520FACEFF91EF91DF91CF91BF91AF919F915F
S11305308F917F916F915F914F913F912F911F9177
S11305400F910F900FBE0F901F90189520E030E090
S1130550ECEBF0E08081882334F02F5F3F4F293E9D
S113056083E03807B9F781E0283E334009F480E09E
S113057008958093BB0084E88093BC000E94A60287
S1130580882321F08091B900887F089580E0089540
S1130590CF93C82F94EA9093BC000E94A6028823AC
S11305A059F08C2F880F0E94B902803239F484E903
S11305B08093BC0080E003C080E001C081E0CF9163
S11305C0089584E98093BC0008950E94CF0088E5D3
S11305D00E94C802882309F4C7C080E30E94B902BC
S11305E0882309F4C3C081E00E94B902882309F476
S11305F0BFC00E94E10283EC99E00197F1F700C0CB
S1130600000088E50E94C802882309F4B3C080E092
S11306100E94B902882309F4AFC080E00E94B902A5
S1130620882309F4ABC080E00E94B902882309F44E
S1130630A7C080E00E94B902882309F4A3C080E027
S11306400E94B902882309F49FC080E00E94B90285
S1130650882309F49BC080E00E94B902882309F42E
S113066097C080E90E94B902882309F493C00E94CC
S1130670E10283EC99E00197F1F700C0000088E5FE
S11306800E94C802882309F487C087E00E94B90247
S1130690882309F483C080E00E94B902882309F406
S11306A07FC081E40E94B902882309F47BC00E94C0
S11306B0E10283EC99E00197F1F700C0000088E5BE
S11306C00E94C802882309F46FC08AE10E94B9021B
S11306D0882309F46BC080E40E94B902882309F4DA
S11306E067C080E00E94B902882309F463C00E94B5
S11306F0E10283EC99E00197F1F700C0000088E57E
S11307000E94C802882309F457C083E30E94B902F7
S1130710882309F453C083E00E94B902882309F4B2
S11307204FC00E94E10283EC99E00197F1F700C009
S1130730000088E50E94C802882309F443C080E3CE
S11307400E94B902882309F43FC088E00E94B902DC
S11307508823E1F10E94E10283EC99E00197F1F72B
S113076000C0000081E0089580E0089580E00895CD
S113077080E0089580E0089580E0089580E0089581
S113078080E0089580E0089580E0089580E0089571
S113079080E0089580E0089580E0089580E0089561
S11307A080E0089580E0089580E0089580E0089551
S11307B080E0089580E0089580E0089580E0089541
S11307C080E0089580E0089580E0089580E0089531
S11307D0E1E6F0E080E88083108285B5886085BD1D
S11307E084B5826084BD84B5826084BD84B5806232
S11307F084BD84B58F7E84BD85B5846085BD85B593
S1130800826085BD85B5816085BD279A8FEF87BDE0
S113081018BCE1E8F0E08081806180838081886099
S11308208083A0E8B0E08C9182608C938C9181608D
S11308308C938C9180628C938C918F7E8C9380812D
S11308408B7F808380818D7F8083808181608083A2
S1130850269A8FEF9FEF90938900809388001092DF
S11308608B0010928A00E1E9F0E02081206120836E
S1130870208128602083A0E9B0E02C9122602C9391
S11308802C912E7F2C932C9120682C932C912F7BD0
S11308902C9320812B7F208320812D7F2083208116
S11308A02160208390939700809396001092990082
S11308B010929800279A269A3E9A229A239A78941C
S11308C0EAE7F0E0808188608083ACE7B0E08C9157
S11308D08F778C938C918F7B8C93808184608083C1
S11308E0808182608083808181608083AEE7B0E014
S11308F08C9181608C938C9182608C938C918061BB
S11309008C938C9180628C938C9180648C93ADE7F2
S1130910B0E08C9181608C938C9182608C93808107
S113092080628083808180618083209821982898C8
S113093029980E94CF000E94E50228E830E0CAE826
S1130940D0E0A6E9B0E068E970E06E9A76986A9A19
S1130950729A6E9A769A6A9A7298F9018081918154
S1130960998388838D919C911197FB019183808356
S11309702A9A2B9AFFEF43ED80E3F15040408040E8
S1130980E1F700C000002B982A98DFCF1F920F9246
S11309900FB60F9211242F938F939F938091780019
S11309A090917900853F914018F06A9A729802C03C
S11309B06A9A729A9F918F912F910F900FBE0F9008
S10B09C01F901895F894FFCF75
S10B09C800E10000000008003A
S9030000FC
