S00A00004C362E7372656398
S11300000C94C6000C94E3000C94E3000C94E300FD
S11300100C94E3000C94E3000C94E3000C94E300D0
S11300200C94E3000C94E3000C948F050C94CD0520
S11300300C94E3000C94E3000C94E3000C94E300B0
S11300400C94E3000C94E3000C94E3000C94E300A0
S11300500C94E3000C94D5030C94E3000C94E3009B
S11300600C94E3000C94E3000C94E3000C94E30080
S11300700C94E3000C94E3000C94E3000C94E30070
S11300800C94E3000C94E3000C94E3000C94E30060
S11300900C94E3000C94E3000C94E3000C94E30050
S11300A00C94E3000C94E3000C94E300084AD73B5F
S11300B03BCE016E84BCBFFDC12F3D6C74319ABD33
S11300C056833DDA3D00C77F11BED9E4BB4C3E9157
S11300D06BAAAABE000000803F000100000D0112BF
S11300E0000200001F014300030000620104010339
S11300F00904660112020309047A010603030904D0
S11301008201080001C1120180360181361201000A
S11301100202000010C0167A040001010203010962
S1130120024300020100C03209040000010202017E
S11301300005240010010524010101042402060520
S1130140240600010705820310004009040100028F
S11301500A0000000705030240000007058402406E
S113016000000403090412034A002E002000460084
S1130170690065006E006500000006034D00320052
S113018000000803340031003000000011241FBEB9
S1130190CFEFDAE0DEBFCDBF11E0A0E0B1E0EEE1E9
S11301A0F4E102C005900D92A431B107D9F721E022
S11301B0A4E1B1E001C01D92A834B207E1F70E94A6
S11301C0E5000C940D0A0C940000CF93DF93CDB797
S11301D0DEB763970FB6F894DEBF0FBECDBF0E94A3
S11301E076057894E1E6F0E080E880831082E1E827
S11301F0F0E0808180618083808188608083A0E8D2
S1130200B0E08C9182608C938C9181608C938C9102
S113021080628C938C918F7E8C9380818B7F808382
S113022080818D7F80838081816080838FEF9FEFC9
S1130230909389008093880081E090E090938B00F4
S113024080938A0085B5877F85BD84B5826084BD2F
S113025084B58E7F84BD84B58F7784BD84B58F7B50
S113026084BD85B5846085BD85B58D7F85BD85B527
S1130270816085BD8FE087BD81E088BDEEE6F0E05A
S1130280808182608083269A3E9A469A4698249A70
S1130290209A62E080E00E94B304509851985298EA
S11302A0589859985A9883E391E00E9420058093C6
S11302B03201009137011091380101151105E1F067
S11302C06091330170913401882777FD8095982FD0
S11302D00E94BB086B017C01B801882777FD8095DB
S11302E0982F0E94BB08A70196010E94C907062FF8
S11302F0172FE82EF92E0AC003EC15EF0F2EF8EC99
S1130300EF2EF02D0F2EFFE3FF2EF02D6091330121
S113031070913401882777FD8095982F0E94BB083F
S1130320905820E030E040E059E30E949B096D873B
S11303307E878F87988B09871A87EB86FC86812CAA
S1130340912CA12CB12C6E2C7F2C809114019091B6
S11303501501019709F006C285B120E1822785B90C
S113036083E391E00E94200580933201EBE3F1E006
S113037060817181882777FD8095982F0E94BB0842
S113038020E030E040E058E30E949B0920E030E0A8
S11303904AEF53E40E949B0923EC35EF48E450E410
S11303A00E949B0920E030E044E353E40E942008CB
S11303B020E030E04AE754E40E9420086B017C010D
S11303C060913001709131016F5F7F4F882777FD15
S11303D08095982F0E94BB089B01AC01C701B60110
S11303E00E949B099B01AC01602F712F862D972DD4
S11303F00E9456076B837C838D839E832CEE31E5AC
S113040048E75FE3B985AA85FB84EC846B2F7A2FD8
S11304108F2D9E2D0E949B09C62ED72EE82EF92ED5
S1130420202F312F462D572DBB81AC81ED811E81AC
S11304306B2F7A2F8E2F912F0E9455072CEE31E5CA
S113044048E75FE30E949B092C2D3D2D4E2D5F2D27
S11304500E945607062F172F682E792E69877A87F0
S11304608B879C87E7E3F1E0E080F180E114F104FD
S1130470F1F06091330170913401882777FD809504
S1130480982F0E94BB084B015C01B701882777FDB8
S11304908095982F0E94BB08A50194010E94C9076A
S11304A04B015C01B7FAB094B7F8B09406C083EC82
S11304B095EFA8ECBFEB4C015D012CEE31E548E76C
S11304C05FE3BD85AE85FF84E8886B2F7A2F8F2D7F
S11304D09E2D0E949B09C62ED72EE82EF92E20E8C9
S11304E032EC45EF5CEBC501B4010E949B092C2D55
S11304F03D2D4E2D5F2D0E9456076D877E878F8779
S1130500988B262F372F482F592F602F712F862D28
S1130510972D0E94560723EC35EF48EC5FE30E94C9
S11305205507862E972EA82EB92E23EC35EF48ECCE
S11305305FE30E94200820E03FEF4FE757E40E946A
S11305409B090E948808462F572F682F792F7723FD
S11305503CF470956095509541955F4F6F4F7F4F78
S11305605A834983BA0180E090E00E94B908062FBB
S1130570172F8B8B998B20910801309109014091A1
S11305800A0150910B010E949B09662E772E8F83DE
S11305909887382F292F862F972DA32FB22F80933A
S11305A02A0190932B01A0932C01B0932D0120914B
S11305B02201309123014091240150912501FB89AE
S11305C0E989602F712F8F2F9E2F0E945607C62E08
S11305D0D72EE82EF92EC0922201D0922301E09268
S11305E02401F092250120910401309105014091EC
S11305F00601509107010E949B09262E372E482E92
S1130600592E862F932DA42DB52D809326019093DA
S11306102701A0932801B093290120911A01309158
S11306201B0140911C0150911D01FB89E989602F38
S1130630712F8F2F9E2F0E9455072091000130911A
S1130640010140910201509103010E949B09C62EB1
S1130650D72EE82EF92E862F9D2DAE2DBF2D8093FB
S11306601E0190931F01A0932001B09321013B89A7
S11306702989802F912FA32FB22F80931A01909351
S11306801B01A0931C01B0931D01E8E8F0E0019068
S1130690F081E02DFA8BE98B222D332D442D552D3D
S11306A0EF811885662D772D8E2F912F0E94560786
S11306B09B01AC016C2D7D2D8E2D9F2D0E94560724
S11306C00E9488086B017C0129893A89220F331F13
S11306D0ABEABAEA0E94010A96958795A7019601AA
S11306E0280F391F411D511DDA01C901209316013C
S11306F0309317014093180150931901E8E8F0E092
S11307004081518160E070E0481759076A077B0710
S113071064F480819181A0E0B0E08093160190930D
S11307201701A0931801B093190129813A81293343
S11307303A4440F0109216011092170110921801D9
S113074010921901E6E1F1E080819181EAE8F0E09C
S11307509183808310921501109214010B811C81E6
S11307606D807E8020E030E0A901682D792D8A2DEE
S11307709B2D0E949009882334F06A9A72986E9A8D
S1130780769A469AE2CD20E030E0A901682D792DD1
S11307908A2D9B2D0E941C0888230CF0D6CD6A9AC2
S11307A0729A6E9A76984698D0CD1F920F920FB691
S11307B00F9211248F939F938091140190911501AE
S11307C0892B99F480912E0190912F0190933101FE
S11307D08093300110922F0110922E0181E090E05D
S11307E0909315018093140109C080912E0190917A
S11307F02F01019690932F0180932E019F918F9149
S11308000F900FBE0F901F901895589A599A5A9AA4
S11308108CE08093B800E9E6F0E080818062808318
S113082080818F7E8083EA9A7894089584E8809307
S1130830BC00ECEBF0E080818823ECF78091BB00F6
S1130840089584E98093BC00089520E030E0ECEB47
S1130850F0E08081882334F02F5F3F4F293E83E00E
S11308603807B9F781E0283E334009F480E0089561
S11308708093BB0084E88093BC000E9425048823F5
S113088021F08091B900887F089580E00895CF9386
S1130890DF93C82FD62F94EA9093BC000E942504BE
S11308A0811104C00E94210480E01AC0DD2359F0A4
S11308B08C2F880F8F5F0E943804883471F40E9453
S11308C0210480E00DC08C2F880F0E9438048032F0
S11308D031F40E94210480E003C081E001C081E082
S11308E0DF91CF910895CF93DF93C62FD42F60E08B
S11308F00E944704882371F08C2F0E9438048823B7
S113090059F08D2F0E943804882341F00E9421045D
S113091081E005C080E003C080E001C080E0DF9199
S1130920CF910895CF93DF93C82FD62F60E00E9414
S11309304704882381F08D2F0E943804882369F0AE
S11309400E94210461E08C2F0E944704882339F01F
S11309500E94160405C080E003C080E001C080E06E
S1130960DF91CF910895CF93DF93C82FD62F843092
S113097008F05EC0643008F05DC00E9405042FE5F5
S11309808AEE90E0215080409040E1F700C00000E2
S113099065E789E60E949204883609F04DC041E07B
S11309A06BE689E60E9473044C2F440F440F440FF6
S11309B06CE189E60E9473044D2F440F440F440FE9
S11309C06BE189E60E94730442E067E389E60E94D2
S11309D0730440E062E08EE10E94730440E067E348
S11309E089E60E9473044EE164E389E60E9473047D
S11309F041E067E689E60E9473044DE164E289E61A
S1130A000E9473044EE965E289E60E94730443E0A0
S1130A1066E289E60E94730446E967E289E60E9479
S1130A20730440E26AE689E60E94730481E005C02B
S1130A3080E003C080E001C080E0DF91CF910895A1
S1130A40DF92EF92FF920F931F93CF93DF93CDB773
S1130A50DEB764970FB6F894DEBF0FBECDBF7C013E
S1130A608E010F5F1F4F0F2EFEE4DF2EF02D6D2D34
S1130A7089E60E949204F80181938F01DA94FAE3E3
S1130A80DF12F5CF8F859889F701958384838F8151
S1130A9098859387828789819A81918B808B8989B4
S1130AA09A899383828389859A85918780878B81AC
S1130AB09C81978786878B899C89918380838B858A
S1130AC09C85978386838D819E819587848781E029
S1130AD064960FB6F894DEBF0FBECDBFDF91CF9101
S1130AE01F910F91FF90EF90DF90089581E0809324
S1130AF0D70080EA8093D80082E189BD09B400FE62
S1130B00FDCF80E98093D8001092E0001092460156
S1130B10109247018CE08093E200789408951F922C
S1130B200F920FB60F9211248F939F93EF93FF931D
S1130B30E1EEF0E08081108283FF11C01092E900A1
S1130B4091E09093EB001092EC0092E19093ED0011
S1130B5098E09093F000109246011092470182FFB2
S1130B6013C080914601882379F080914501882340
S1130B7059F0815080934501811106C084E080932F
S1130B80E9008AE38093E800FF91EF919F918F91B0
S1130B900F900FBE0F901F9018951F920F920FB6D3
S1130BA00F9211240F931F932F933F934F935F93AF
S1130BB06F937F938F939F93AF93BF93CF93DF9361
S1130BC0EF93FF931092E9008091E80083FF51C1F5
S1130BD0E1EFF0E07081408120813081932F80E04B
S1130BE0DC01A22B9D0150816081962F80E0852B32
S1130BF0A081B08152EF5093E800463009F05CC008
S1130C0004C081E28093EB003BC1C6E049ED50E0B3
S1130C10FA01659174912617370719F0495F5F4F00
S1130C2020C0FA013296659174918617970719F0DE
S1130C30495F5F4F16C0FA01349685919491282F2D
S1130C40392FFA01369644919B2F80E08A2B8F3FEF
S1130C50910519F010F08FEF90E0841728F4482FD5
S1130C6003C0C150A9F6CDCFC8EED0E07EEFA1EF0E
S1130C70B0E010E18881982F9570E1F382FD00C106
S1130C80642F413108F0612F662309F4F6C0C901CD
S1130C90562FFC010196E491EC935150D1F7862F25
S1130CA0815090E00196280F391F461B788341112B
S1130CB0E1CF6031F9F2E4C0453061F48EEF809306
S1130CC0E800E8EEF0E0808180FFFDCF206820930B
S1130CD0E300D6C04930A1F571115BC020934601F1
S1130CE010924701109245018EEF8093E80011E0C5
S1130CF083E091E0C9EED0E0ABEEB0E06CEE70E0E2
S1130D004DEE50E018839C012F5F3F4FFC0104918E
S1130D100C93002359F0F9012491FB012083FC0179
S1130D20329603962491FA01208301C0C9011F5F02
S1130D30153041F7EAEEF0E08EE180831082A0C026
S1130D40483081F4703809F03FC0E8EEF0E080816B
S1130D5080FFFDCF809146018093F1008EEF809358
S1130D60E8008EC04132A9F4713AF1F5E8EEF0E002
S1130D70808180FFFDCFECE0F1E0A1EFB0E0819154
S1130D808C9341E0E331F407D1F78EEF8093E800D0
S1130D9077C04032C9F4713209F06BC0E8EEF0E07C
S1130DA0808182FFFDCFECE0F1E0A1EFB0E08C9117
S1130DB0819351E0E331F507D1F7E8EEF0E08BEFF2
S1130DC080838EEF80835CC0423271F4713209F00B
S1130DD050C020934701E8EEF0E0808180FFFDCF12
S1130DE08EEF8093E8004CC041111AC0E8EEF0E0A9
S1130DF0208120FFFDCF723851F4E9EEF0E08083CA
S1130E008091EB0085FB882780F9108201C080E087
S1130E10E1EFF0E0808310828EEF8093E80030C031
S1130E20413011F0433029F5723019F5232B09F5BF
S1130E308F779927382F31503430D8F43EEF3093E0
S1130E40E8008093E900433021F481E28093EB00D1
S1130E5017C099E19093EB0021E030E0D90102C082
S1130E60AA0FBB1F8A95E2F7EAEEF0E0A083108296
S1130E7007C081E28093EB0003C078834111FACE6E
S1130E80FF91EF91DF91CF91BF91AF919F918F919E
S1130E907F916F915F914F913F912F911F910F918E
S1130EA00F900FBE0F901F9018955058BB27AA277C
S1130EB00ED0FCC1EDD130F0F2D120F031F49F3FDF
S1130EC011F41EF4BDC10EF4E095E7FBB3C1E92FA4
S1130ED0FED180F3BA17620773078407950718F0E9
S1130EE071F49EF516C20EF4E0950B2EBA2FA02DC8
S1130EF00B01B90190010C01CA01A0011124FF27C3
S1130F00591B99F0593F50F4503E68F11A16F040BD
S1130F10A22F232F342F4427585FF3CF46953795BC
S1130F202795A795F0405395C9F77EF41F16BA0B81
S1130F30620B730B840BBAF09150A1F0FF0FBB1F2F
S1130F40661F771F881FC2F70EC0BA0F621F731F78
S1130F50841F48F4879577956795B795F7959E3FD5
S1130F6008F0B3CF9395880F08F09927EE0F979563
S1130F70879508958DD158F080E891E009F49EEFAB
S1130F808ED128F040E851E059F45EEF09C058C111
S1130F90C0C1E92FE0789BD168F3092E052AC1F37B
S1130FA0261737074807590738F00E2E07F8E025AB
S1130FB069F0E025E0640AC0EF6307F8009407FADB
S1130FC0DB01B9019D01DC01CA01AD01EF9347D0FA
S1130FD06DD10AD05F91552331F02BED3FE049E408
S1130FE050FD49EC63CF0895DF93DD27B92FBF7718
S1130FF040E85FE31616170648075B0710F4D92F7D
S113100093D19F938F937F936F93F8D1ECEAF0E0A1
S11310101AD14CD12F913F914F915F9198D1DD23FB
S113102049F09058A2EA2AED3FE049EC5FE3D0781A
S11310305D274DDFDF913AC1D9D008F481E00895EE
S11310400CD034C12CD140F023D130F021F45F3FD7
S113105019F0F0C051115EC1F3C039D198F399234E
S1131060C9F35523B1F3951B550BBB27AA27621768
S11310707307840738F09F5F5F4F220F331F441FAD
S1131080AA1FA9F333D00E2E3AF0E0E830D09150E5
S11310905040E695001CCAF729D0FE2F27D0660FD2
S11310A0771F881FBB1F261737074807AB07B0E811
S11310B009F0BB0B802DBF01FF2793585F4F2AF027
S11310C09E3F510568F0B6C025C15F3FECF3983EE2
S11310D0DCF3869577956795B795F7959F5FC9F784
S11310E0880F911D9695879597F90895E1E0660F0D
S11310F0771F881FBB1F621773078407BA0720F086
S1131100621B730B840BBA0BEE1F88F7E0950895EE
S113111004D06894B111FEC00895E1D088F09F57BF
S113112090F0B92F9927B751A0F0D1F0660F771F2F
S1131130881F991F1AF0BA95C9F712C0B13081F00F
S1131140E8D0B1E00895E5C0672F782F8827B85F0D
S113115039F0B93FCCF3869577956795B395D9F770
S11311603EF490958095709561957F4F8F4F9F4F7A
S11311700895E89409C097FB3EF490958095709586
S113118061957F4F8F4F9F4F9923A9F0F92F96E9CF
S1131190BB279395F695879577956795B795F11144
S11311A0F8CFFAF4BB0F11F460FF1BC06F5F7F4FE1
S11311B08F4F9F4F16C0882311F096E911C07723F3
S11311C021F09EE8872F762F05C0662371F096E8FC
S11311D0862F70E060E02AF09A95660F771F881FCB
S11311E0DAF7880F9695879597F90895990F00086F
S11311F0550FAA0BE0E8FEEF16161706E807F907E5
S1131200C0F012161306E407F50798F0621B730B7F
S1131210840B950B39F40A2661F0232B242B252B00
S113122021F408950A2609F4A140A6958FEF811DA3
S1131230811D089597F99F6780E870E060E0089544
S11312409FEF80EC0895DF93CF931F930F93FF924A
S1131250EF92DF927B018C01689405C0DA2EEF01D6
S113126076D0FE01E894A59125913591459155914B
S1131270AEF3EF012CDEFE019701A801DA9479F7B1
S1131280DF90EF90FF900F911F91CF91DF91089520
S113129000240A9416161706180609060895002451
S11312A00A9412161306140605060895092E0394CB
S11312B0000C11F4882352F0BB0F40F4BF2B11F43F
S11312C060FF04C06F5F7F4F8F4F9F4F089557FD9E
S11312D09058440F551F59F05F3F71F04795880FA0
S11312E097FB991F61F09F3F79F087950895121637
S11312F013061406551FF2CF4695F1DF08C01616E3
S113130017061806991FF1CF869571056105089493
S11313100895E894BB2766277727CB0197F90895AA
S113132065DF08F48FEF08959B01AC0160E070E085
S113133080E89FE385CE0BD0B9CFAADF28F0AFDFDA
S113134018F0952309F076CF7BCF1124E3CFBFDFCC
S1131350A0F3959FD1F3950F50E0551F629FF001C4
S1131360729FBB27F00DB11D639FAA27F00DB11D1D
S1131370AA1F649F6627B00DA11D661F829F2227A6
S1131380B00DA11D621F739FB00DA11D621F839F2D
S1131390A00D611D221F749F3327A00D611D231F03
S11313A0849F600D211D822F762F6A2F11249F5751
S11313B050408AF0E1F088234AF0EE0FFF1FBB1F74
S11313C0661F771F881F91505040A9F79E3F510513
S11313D070F030CF9FCF5F3FECF3983EDCF38695FF
S11313E077956795B795F795E7959F5FC1F7FE2BBE
S11313F0880F911D9695879597F908959B01AC01E7
S11314009ACFA29FB001B39FC001A39F01D0B29F06
S1111410700D811D1124911D0895F894FFCFD5
S113141E00002041000000400000204000E10000D8
S107142E00000800AE
S9030000FC
