:100000000C94B0000C94CD000C94CD000C94CD0059
:100010000C94CD000C94CD000C94CD000C94CD002C
:100020000C94CD000C94CD000C947B010C94B90180
:100030000C94CD000C94CD000C94CD000C94CD000C
:100040000C94CD000C94CD000C94CD000C94CD00FC
:100050000C94CD000C94CD000C94CD000C94CD00EC
:100060000C94CD000C94CD000C94CD000C94CD00DC
:100070000C94CD000C94BD040C94CD000C94CD00D8
:100080000C94CD000C94CD000C94CD000C94CD00BC
:100090000C94CD000C94CD000C94CD000C94CD00AC
:1000A0000C94CD000C94CD000C94CD000001000008
:1000B000E0001200020000F20043000300003501DE
:1000C0000401030904390112020309044D01060366
:1000D0000309045501080001C1120180360181366F
:1000E0001201000202000010C0167A040001010291
:1000F000030109024300020100C0320904000001AB
:10010000020201000524001001052401010104245C
:1001100002060524060001070582031000400904B9
:100120000100020A00000007050302400000070565
:1001300084024000000403090412034A002E002038
:10014000004600690065006E006500000006034D72
:1001500000320000000803340031003000000000CD
:1001600011241FBECFEFDAE0DEBFCDBF11E0A0E06B
:10017000B1E0ECE1FAE002C005900D92A830B107C1
:10018000D9F721E0A8E0B1E001C01D92AC31B2077F
:10019000E1F70E9414040C940C050C94000081E01B
:1001A0008093D70080EA8093D80082E189BD09B4AA
:1001B00000FEFDCF80E98093D8001092E0001092FD
:1001C000090110920A018CE08093E200789408956E
:1001D0008091090108959FB7F894809109018111D8
:1001E00003C09FBF8FEF089583E08093E900809163
:1001F000E80085FD03C09FBF8FEF08958091F10057
:100200002091E80025FD03C02BE62093E8009FBF66
:10021000089580910901882389F02FB7F89483E02D
:100220008093E9008091E80085FF07C0E8EEF0E0E8
:100230009BE69083808185FDFCCF2FBF0895CF93EF
:10024000DF9390910901992309F44DC09FB7F89469
:1002500024E02093E90020910B01222349F0209112
:10026000E80025FD03C09FBF8FEF42C010920B0135
:100270003091E400375E2091E80025FD25C09FBF46
:100280009091E400931749F09091090191110FC0EA
:100290002CC09FBF9881931305C081E080930B0110
:1002A0008FEF26C090910901911108C020C0A9EEDE
:1002B000B0E044E0E8EEF0E0C4EED0E09FB7F894A0
:1002C0004C93208125FFE5CF8093F1008091E800D9
:1002D00085FD03C08AE38093E80085E080930801F0
:1002E0009FBF80E005C08FEF03C08FEF01C08FEF8D
:1002F000DF91CF9108951F920F920FB60F921124A4
:100300008F939F93EF93FF93E1EEF0E08081108253
:1003100083FF11C01092E90091E09093EB001092DE
:10032000EC0092E19093ED0098E09093F000109231
:10033000090110920A0182FF13C0809109018823EC
:1003400079F080910801882359F081508093080149
:10035000811106C084E08093E9008AE38093E8007D
:10036000FF91EF919F918F910F900FBE0F901F9073
:1003700018951F920F920FB60F9211240F931F938F
:100380002F933F934F935F936F937F938F939F939D
:10039000AF93BF93CF93DF93EF93FF931092E90056
:1003A0008091E80083FF51C1E1EFF0E0708140816E
:1003B00020813081932F80E0DC01A22B9D015081B0
:1003C0006081962F80E0852BA081B08152EF509301
:1003D000E800463009F05CC004C081E28093EB0085
:1003E0003BC1C6E04CEA50E0FA01659174912617D2
:1003F000370719F0495F5F4F20C0FA0132966591C7
:1004000074918617970719F0495F5F4F16C0FA017C
:10041000349685919491282F392FFA01369644917C
:100420009B2F80E08A2B8F3F910519F010F08FEF02
:1004300090E0841728F4482F03C0C150A9F6CDCF0F
:10044000C8EED0E07EEFA1EFB0E010E18881982FF8
:100450009570E1F382FD00C1642F413108F0612FF6
:10046000662309F4F6C0C901562FFC010196E491F8
:10047000EC935150D1F7862F815090E00196280FD0
:10048000391F461B78834111E1CF6031F9F2E4C096
:10049000453061F48EEF8093E800E8EEF0E0808173
:1004A00080FFFDCF20682093E300D6C04930A1F53E
:1004B00071115BC02093090110920A01109208018A
:1004C0008EEF8093E80011E086ED90E0C9EED0E079
:1004D000ABEEB0E06CEE70E04DEE50E018839C01A6
:1004E0002F5F3F4FFC0104910C93002359F0F90159
:1004F0002491FB012083FC01329603962491FA019A
:10050000208301C0C9011F5F153041F7EAEEF0E01A
:100510008EE180831082A0C0483081F4703809F0E9
:100520003FC0E8EEF0E0808180FFFDCF80910901BF
:100530008093F1008EEF8093E8008EC04132A9F4E1
:10054000713AF1F5E8EEF0E0808180FFFDCFE0E068
:10055000F1E0A1EFB0E081918C9341E0E730F40746
:10056000D1F78EEF8093E80077C04032C9F4713242
:1005700009F06BC0E8EEF0E0808182FFFDCFE0E0A3
:10058000F1E0A1EFB0E08C91819351E0E730F50705
:10059000D1F7E8EEF0E08BEF80838EEF80835CC0D4
:1005A000423271F4713209F050C020930A01E8EE32
:1005B000F0E0808180FFFDCF8EEF8093E8004CC09B
:1005C00041111AC0E8EEF0E0208120FFFDCF723823
:1005D00051F4E9EEF0E080838091EB0085FB882701
:1005E00080F9108201C080E0E1EFF0E080831082AA
:1005F0008EEF8093E80030C0413011F0433029F590
:10060000723019F5232B09F58F779927382F315040
:100610003430D8F43EEF3093E8008093E900433063
:1006200021F481E28093EB0017C099E19093EB00F5
:1006300021E030E0D90102C0AA0FBB1F8A95E2F782
:10064000EAEEF0E0A083108207C081E28093EB0025
:1006500003C078834111FACEFF91EF91DF91CF91E2
:10066000BF91AF919F918F917F916F915F914F91CA
:100670003F912F911F910F910F900FBE0F901F90E0
:100680001895EF92FF920F931F93CF93DF93CDB7FF
:10069000DEB727970FB6F894DEBF0FBECDBF8E0131
:1006A0000F5F1F4F27E0F80111922A95E9F74AE002
:1006B00050E0B8010E94C7047E01F8E0EF0EF11C83
:1006C000F80181918F0181110E941F010E151F05F4
:1006D000B9F727960FB6F894DEBF0FBECDBFDF91F6
:1006E000CF911F910F91FF90EF9008958330910566
:1006F00009F445C03CF481309105F9F07CF5892B73
:1007000059F081C08530910509F45BC00CF448C0F4
:10071000069709F078C066C0EBE7F0E080818F7D36
:100720008083ECE7F0E08081846080838081826058
:10073000808380818E7F80830895EBE7F0E0808165
:100740008F7D8083ECE7F0E080818460808380810E
:100750008D7F80838081816080830895EBE7F0E066
:1007600080818F7D8083ECE7F0E0808184608083EE
:1007700080818D7F808380818E7F80830895EBE7E9
:10078000F0E080818F7D8083ECE7F0E080818B7FDB
:10079000808380818D7F80838081816080830895C4
:1007A000EBE7F0E080818F7D8083ECE7F0E08081F3
:1007B0008B7F808380818D7F808380818E7F80830B
:1007C0000895EBE7F0E0808180628083ECE7F0E061
:1007D00080818B7F808380818D7F808380818E7FED
:1007E00080830895EBE7F0E0808180628083ECE70E
:1007F000F0E080818B7F808380818D7F808380810A
:10080000816080830895EBE7F0E080818F7D8083B5
:10081000ECE7F0E080818B7F808380818D7F808317
:1008200080818E7F80830895A1E6B0E080E88C937C
:100830001C927894EAE7F0E0908198609083CCE78E
:10084000D0E098819F77988398819F7B988390814F
:100850009460908390819260908390819160908366
:10086000CEE7D0E0988191609883908190629083E8
:100870009081906890839081906490839081906142
:1008800090838C931C926E9A76986A9A72980E94C2
:10089000CF000E94E8008823E1F36E9A769A6A9A64
:1008A000729A6894AA24A2F80F2EF8E7EF2EF12C82
:1008B000F02DCAE7D0E06894BB24B6F80F2EF7E01D
:1008C000CF2ED12CF02D6A9A8EB18A258EB98091C7
:1008D0001A0190911B018730910550F4F701208196
:1008E0003181FC01EE0FFF1FE45FFE4F3183208357
:1008F000019690931B0180931A0128812F772883FA
:1009000028812F7B28830E947603888180628883D8
:1009100088818068888388818064888388818061F9
:100920008883FFEF29E688E1F15020408040E1F71D
:1009300000C000006E9A8EB18B258EB90E94EB002C
:10094000182F0E940901113009F0BDCF8601E091F6
:100950001A01F0911B01EE0FFF1FE45FFE4F808133
:1009600091810E94410389E00E941F0101501109F9
:1009700071F78AE00E941F01A6CF1F920F920FB657
:100980000F9211240F900FBE0F901F901895FB012E
:100990009F01E8944230C4F04532B4F44A3029F45F
:1009A00097FB1EF4909581959F4F642F77270E94A7
:1009B000F804805D8A330CF0895D8193CB01009748
:1009C000A1F716F45DE251931082C9010C94E8047A
:1009D000DC01FC01672F71917723E1F7329704C0A6
:1009E0007C916D9370836291AE17BF07C8F3089531
:1009F000AA1BBB1B51E107C0AA1FBB1FA617B70745
:100A000010F0A61BB70B881F991F5A95A9F7809560
:0C0A10009095BC01CD010895F894FFCF33
:080A1C0000E1000000000800E9
:00000001FF
