:100000000C9456000C9468000C9468000C946800E2
:100010000C9468000C9468000C9468000C946800C0
:100020000C9468000C9468000C9468000C946800B0
:100030000C9468000C9468000C9468000C946800A0
:100040000C9468000C9468000C9468000C94680090
:100050000C9468000C9468000C9468000C94680080
:100060000C9468000C9468000C9468000C94680070
:100070000C9468000C9468000C9468000C94680060
:100080000C9468000C9468000C9468000C94680050
:100090000C9468000C9468000C9468000C94680040
:1000A0000C9468000C9468000C94680011241FBE26
:1000B000CFEFDAE0DEBFCDBF21E0A0E0B1E001C0CC
:1000C0001D92A130B207E1F70E946A000C94CB01A7
:1000D0000C940000E1E6F0E080E8808310820E944A
:1000E000AB0080E20E94590180930001579A47E0DB
:1000F00061E080E20E94630180E090E0C0E0D0E037
:100100006894FF24F2F801E010E02091000122231E
:1001100011F05F9801C05F9A2FEF39E648E1215056
:1001200030404040E1F700C00000892B61F46A9A3A
:100130008EB18F258EB947E063E180E20E946301B2
:100140005F9AC801E2CF47E063E180E20E94970135
:100150005F98CE01DACF589A599A5A9A8CE08093D8
:10016000B800E9E6F0E080818062808380818F7E44
:100170008083EA9A7894089584E88093BC00ECEB3D
:10018000F0E080818823ECF78091BB00089584E93A
:100190008093BC00089520E030E0ECEBF0E080813B
:1001A000882334F02F5F3F4F293E83E03807B9F7AB
:1001B00081E0283E334009F480E008958093BB003D
:1001C00084E88093BC000E94CB00882321F08091BA
:1001D000B900887F089580E00895CF93DF93C82FFA
:1001E000D62F94EA9093BC000E94CB00811104C0EA
:1001F0000E94C70080E01AC0DD2359F08C2F880FC1
:100200008F5F0E94DE00883471F40E94C70080E096
:100210000DC08C2F880F0E94DE00803231F40E94C6
:10022000C70080E003C081E001C081E0DF91CF9191
:100230000895CF93DF93C62FD42F60E00E94ED0086
:10024000882371F08C2F0E94DE00882359F08D2FB7
:100250000E94DE00882341F00E94C70081E005C0B3
:1002600080E003C080E001C080E0DF91CF9108957D
:10027000CF93DF93C82FD62F60E00E94ED00882334
:1002800081F08D2F0E94DE00882369F00E94C70054
:1002900061E08C2F0E94ED00882339F00E94BC00A1
:1002A00005C080E003C080E001C080E0DF91CF9115
:1002B000089548E365E00E94190191E0811101C0B1
:1002C00090E0892F08951F93CF93DF93D82FC62FE7
:1002D000142F0E943801C23088F4A1E0B0E0FD0183
:1002E00002C0EE0FFF1F1A95E2F7E095482F4E234C
:1002F0006C2F8D2F0E94190181E015C09C2F925107
:10030000923080F4E1E0F0E09F0102C0220F331F41
:100310001A95E2F7482F422B6C2F8D2F0E9419015E
:1003200081E001C080E0DF91CF911F9108951F937C
:10033000CF93DF93D82FC62F142F0E9438019C2F04
:100340009251923088F4A1E0B0E0FD0102C0EE0FBE
:10035000FF1F1A95E2F7E095482F4E236C2F8D2F43
:100360000E94190181E013C0C23080F4E1E0F0E0A6
:100370009F0102C0220F331F1A95E2F7482F422B2C
:100380006C2F8D2F0E94190181E001C080E0DF9168
:0A039000CF911F910895F894FFCF5C
:00000001FF
