S01100006D506F7274546573742E7372656361
S11300000C9456000C9468000C9468000C946800DE
S11300100C9468000C9468000C9468000C946800BC
S11300200C9468000C9468000C9468000C946800AC
S11300300C9468000C9468000C9468000C9468009C
S11300400C9468000C9468000C9468000C9468008C
S11300500C9468000C9468000C9468000C9468007C
S11300600C9468000C9468000C9468000C9468006C
S11300700C9468000C9468000C9468000C9468005C
S11300800C9468000C9468000C9468000C9468004C
S11300900C9468000C9468000C9468000C9468003C
S11300A00C9468000C9468000C94680011241FBE22
S11300B0CFEFDAE0DEBFCDBF21E0A0E0B1E001C0C8
S11300C01D92A130B207E1F70E946A000C94AF01BF
S11300D00C940000E1E6F0E080E88083108280E286
S11300E00E943D018093000143E060E080E20E94B1
S11300F04701579A80E090E0C0E0D0E001E010E0D2
S113010020910001222311F05F9801C05F9A2FEF24
S113011039E648E1215030404040E1F700C000009A
S1130120892B39F443E062E180E20E944701C8016F
S1130130E7CF43E062E180E20E947B01CE01E0CFA1
S113014084E88093BC00ECEBF0E080818823ECF73A
S11301508091BB00089584E98093BC00089520E059
S113016030E0ECEBF0E08081882334F02F5F3F4FE8
S1130170293E83E03807B9F781E0283E334009F48B
S113018080E008958093BB0084E88093BC000E94C3
S1130190AF00882321F08091B900887F089580E022
S11301A00895CF93DF93C82FD62F94EA9093BC0081
S11301B00E94AF00811104C00E94AB0080E01AC00D
S11301C0DD2359F08C2F880F8F5F0E94C200883482
S11301D071F40E94AB0080E00DC08C2F880F0E9448
S11301E0C200803231F40E94AB0080E003C081E0A1
S11301F001C081E0DF91CF910895CF93DF93C62FA3
S1130200D42F60E00E94D100882371F08C2F0E94CB
S1130210C200882359F08D2F0E94C200882341F028
S11302200E94AB0081E005C080E003C080E001C013
S113023080E0DF91CF910895CF93DF93C82FD62F1D
S113024060E00E94D100882381F08D2F0E94C200BB
S1130250882369F00E94AB0061E08C2F0E94D100DA
S1130260882339F00E94A00005C080E003C080E02C
S113027001C080E0DF91CF91089548E365E00E94DA
S1130280FD0091E0811101C090E0892F08951F9332
S1130290CF93DF93D82FC62F142F0E941C01C23096
S11302A088F4A1E0B0E0FD0102C0EE0FFF1F1A9533
S11302B0E2F7E095482F4E236C2F8D2F0E94FD000E
S11302C081E015C09C2F9251923080F4E1E0F0E07F
S11302D09F0102C0220F331F1A95E2F7482F422BC9
S11302E06C2F8D2F0E94FD0081E001C080E0DF9122
S11302F0CF911F9108951F93CF93DF93D82FC62FCB
S1130300142F0E941C019C2F9251923088F4A1E07A
S1130310B0E0FD0102C0EE0FFF1F1A95E2F7E09571
S1130320482F4E236C2F8D2F0E94FD0081E013C0B7
S1130330C23080F4E1E0F0E09F0102C0220F331FDD
S11303401A95E2F7482F422B6C2F8D2F0E94FD0047
S113035081E001C080E0DF91CF911F910895F8946E
S1050360FFCFC9
S9030000FC
