S01100006D506F7274546573742E7372656361
S11300000C9456000C9460000C9460000C946000F6
S11300100C9460000C9460000C9460000C946000DC
S11300200C9460000C9460000C9460000C946000CC
S11300300C9460000C9460000C9460000C946000BC
S11300400C9460000C9460000C9460000C946000AC
S11300500C9460000C9460000C9460000C9460009C
S11300600C9460000C9460000C9460000C9460008C
S11300700C9460000C9460000C9460000C9460007C
S11300800C9460000C9460000C9460000C9460006C
S11300900C9460000C9460000C9460000C9460005C
S11300A00C9460000C9460000C94600011241FBE3A
S11300B0CFEFDAE0DEBFCDBF0E9462000C945401A2
S11300C00C94000080E20E94160143E060E080E2AC
S11300D00E9420012FEF89E698E121508040904052
S11300E0E1F700C0000043E062E180E20E942001E9
S11300F0F1CF84E88093BC00ECEBF0E080818823AE
S1130100ECF78091BB00089584E98093BC000895C6
S113011020E030E0ECEBF0E08081882334F02F5FC6
S11301203F4F293E83E03807B9F781E0283E33404A
S113013009F480E008958093BB0084E88093BC00B8
S11301400E948800882321F08091B900887F089557
S113015080E00895CF93DF93C82FD62F94EA90932D
S1130160BC000E948800811104C00E94840080E0C9
S11301701AC0DD2359F08C2F880F8F5F0E949B00DB
S1130180883471F40E94840080E00DC08C2F880FA5
S11301900E949B00803231F40E94840080E003C0FE
S11301A081E001C081E0DF91CF910895CF93DF9387
S11301B0C62FD42F60E00E94AA00882371F08C2FF0
S11301C00E949B00882359F08D2F0E949B00882356
S11301D041F00E94840081E005C080E003C080E01B
S11301E001C080E0DF91CF910895CF93DF93C82FB2
S11301F0D62F60E00E94AA00882381F08D2F0E94F0
S11302009B00882369F00E94840061E08C2F0E9487
S1130210AA00882339F00E94790005C080E003C059
S113022080E001C080E0DF91CF91089548E365E06C
S11302300E94D60091E0811101C090E0892F0895B9
S11302401F93CF93DF93D82FC62F142F0E94F5004E
S1130250C23088F4A1E0B0E0FD0102C0EE0FFF1F40
S11302601A95E2F7E095482F4E236C2F8D2F0E94AC
S1130270D60081E015C09C2F9251923080F4E1E0C9
S1130280F0E09F0102C0220F331F1A95E2F7482FB6
S1130290422B6C2F8D2F0E94D60081E001C080E09C
S10F02A0DF91CF911F910895F894FFCFD7
S9030000FC
