S01100004C6F63616C546573742E7372656388
S11300000C94D8000C94F5000C94F5000C94F500B5
S11300100C94F5000C94F5000C94F5000C94F50088
S11300200C94F5000C94F5000C947D050C94BB0520
S11300300C94F5000C94F5000C94F5000C94F50068
S11300400C94F5000C94F5000C94F5000C94F50058
S11300500C94F5000C94F5000C94F5000C94F50048
S11300600C94F5000C94F5000C94F5000C94F50038
S11300700C94F5000C94F5000C94F5000C94F50028
S11300800C94F5000C94F5000C94F5000C94F50018
S11300900C94F5000C94F5000C94F5000C94F50008
S11300A00C94F5000C94F5000C94F500084AD73B29
S11300B03BCE016E84BCBFFDC12F3D6C74319ABD33
S11300C056833DDA3D00C77F11BED9E4BB4C3E9157
S11300D06BAAAABE000000803F05A84CCDB2D44E46
S11300E0B93836A9020C50B9918688083CA6AAAA48
S11300F02ABE000000803F090009000A0000010038
S11301000031011200020000430143000300008695
S11301100104010309048A0112020309049E010671
S113012003030904A601080001C1120180360181FC
S1130130361201000202000010C0167A0400010108
S113014002030109024300020100C0320904000055
S1130150010202010005240010010524010101042B
S11301602402060524060001070582031000400945
S1130170040100020A000000070503024000000712
S11301800584024000000403090412034A002E00FF
S113019020004600690065006E006500000006034B
S11301A04D0032000000080334003100300000002C
S11301B011241FBECFEFDAE0DEBFCDBF11E0A0E017
S11301C0B1E0E8E3FAE102C005900D92A431B10771
S11301D0D9F721E0A4E1B1E001C01D92A836B2072D
S11301E0E1F70E94F7000C941A0D0C9400000E9491
S11301F061010E9408050E948008A12CB12C0F2ED9
S1130200F0E6EF2EF1E0FF2EF02D04E611E0689405
S1130210DD24D2F8C0E0D0E048C08CE591E00E9433
S1130220C6036E9A769860915C0170915D0180912D
S11302305E0190915F010E94B50ACB010E945D07A7
S113024089EF90E00E944307F70160817181828108
S113025093810E94B50ACB010E945D0789EF90E06B
S11302600E94430720E030E044E353E4F801608156
S11302707181828193810E94DD0B23EC35EF48E488
S113028050E40E944D0A0E94B50ACB010E945D070A
S113029087EF90E00E9443078BEF90E00E944307B2
S11302A06A9A8EB18D258EB95E01FFEFAF1ABF0A2F
S11302B08AE00E94210580E1A81687E2B806A9F722
S11302C0ACCF589A599A5A9A8CE08093B800E9E6D0
S11302D0F0E080818062808380818F7E8083EA9ACF
S11302E0789408950F931F93CF93DF938C01EB01C0
S11302F080E491E00E94EB078091400190914101DC
S1130300F801918380838091460190914701938302
S1130310828380914C0190914D01958384838091D7
S11303205201909153019783868380914201909169
S113033043019983888380914801909149019B836B
S11303408A8380914E0190914F019D838C8380918B
S11303505401909155019F838E8381E0DF91CF9169
S11303601F910F9108952F923F924F925F926F9237
S11303707F928F929F92AF92BF92CF92DF92EF9231
S1130380FF920F931F93CF93DF93CDB7DEB766979A
S11303900FB6F894DEBF0FBECDBF0F2EF2E3CF2E03
S11303A0F1E0DF2EF02D04E311E00F2EF6E3EF2E43
S11303B0F1E0FF2EF02D68E271E080E391E00E940D
S11303C0720180913001909131018F3F934098F7F1
S11303D0D6018D919C918F3F934068F7F8018081FD
S11303E091818F3F934038F7D7018D919C918F3F36
S11303F0934008F7609024017090250180902601B5
S113040090902701D0902001C090210140902201BA
S113041050902301E0911A01ED87F0911B01FE87B2
S1130420209118012B87309119013C8740911C01C0
S1130430498B50911D015A8B60911E016B8B7091F9
S11304401F017C8BF0900001E090010120900201DB
S113045030900301809116018F8790911701988B3A
S1130460A0911401B0911501BA87A98718861F823B
S113047080E090E077C0F801819191918F012B8108
S11304803C81281B390BC901A981BA812D913D9169
S1130490BA83A983ED81FE81E21BF30BEE9FB001C9
S11304A0EF9F700D700D1124889F9001899F300D6E
S11304B0300D1124620F731F80E090E00E94E60A61
S11304C00E944A0C662E772E882E992E2D2D3C2DB7
S11304D0442D552D662D772D882D992D0E94D20BF4
S11304E01816C4F420E030E040E05FE3662D772D79
S11304F0882D992D0E94DD0B698B7A8B8B8B9C8BBD
S1130500FD89FB872E892C87AD86BE86D62CC72C09
S1130510482C592C262D372D482D592D6F2D7E2DE5
S1130520822D932D0E94D20B181654F44D895E89A6
S11305305A874987AF86B88AF62CE72C282C392CA1
S11305406D897E896F5F7F4F7E8B6D8B6430710503
S113055009F091CF8F819885019698878F83843095
S11305609105E1F084309105ACF7FC01EE0FFF1F1B
S11305708F01005D1E4FD8010D90BC91A02DBC834E
S1130580AB83E85DFE4F208131813E832D83FA8366
S1130590E983A82EB92E9E8B8D8B6DCF862D972D3A
S11305A0A82DB92D8093240190932501A0932601B1
S11305B0B09327018D2D9C2DA42DB52D8093200162
S11305C090932101A0932201B09323013D853093A0
S11305D01A014E8540931B015B85509318016C856D
S11305E06093190159894A893B892C89852F942F55
S11305F0A32FB22F80931C0190931D01A0931E0181
S1130600B0931F018F2D9E2DA22DB32D8093000139
S113061090930101A0930201B09303017F8570932D
S11306201601888980931701998590931401AA85EE
S1130630A093150180911A0190911B01209116013C
S1130640309117018217930719F590933F01809316
S11306503E01409118015091190150933D0140937E
S11306603C012091140130911501309339012093FC
S113067038016AE070E0FB01E81BF90BCF01841B31
S1130680950B821B930B90933B0180933A0164C0BA
S113069049855A8584179507F9F490933F0180930F
S11306A03E01409118015091190150933D0140932E
S11306B03C0130933901209338016AE070E0DB019A
S11306C0A81BB90BCD01841B950B821B930B909334
S11306D03B0180933A0140C04091180150911901A7
S11306E024173507F1F430933F0120933E01909392
S11306F03D0180933C01E985FA85F0933901E0934B
S113070038014AE050E0BA01621B730BDB01A81BFD
S1130710B90BCD018E1B9F0B90933B0180933A0143
S11307201BC050933F0140933E0190933D01809341
S11307303C0130933901209338016AE070E0FB01F9
S1130740E41BF50BBF01681B790BCB01821B930BD8
S113075090933B0180933A0181E066960FB6F8943A
S1130760DEBF0FBECDBFDF91CF911F910F91FF90E0
S1130770EF90DF90CF90BF90AF909F908F907F903D
S11307806F905F904F903F902F9008952F923F92DB
S11307904F925F926F927F928F929F92AF92BF928D
S11307A0CF92DF92EF92FF920F931F93CF93DF9339
S11307B0CDB7DEB72A970FB6F894DEBF0FBECDBF14
S11307C09A87898780E491E00E94EB070E94B30135
S11307D0C0903E01D0903F01F601EE0FFF1FE05D97
S11307E0FE4FE080F1808FEFE81683E0F80608F012
S11307F0F3C080903C0190903D01F401EE0FFF1F87
S1130800E05DFE4FA080B180EFEFAE16E3E0BE06E0
S113081008F0E4C0409008015090090160900A017A
S113082070900B01B5016E0D7F1D80E090E00E9479
S1130830E60A28E030E240E05EE30E94DD0B20E0BF
S113084030E040E05FE30E94DD0BA30192010E94CF
S11308508309162F072F382E292EF601EE0FFF1FBE
S1130860E85DFE4FC080D180F401EE0FFF1FE85D0C
S1130870FE4F80809180B4016C0D7D1D80E090E07E
S11308800E94E60A2CE030E340EC5DE30E94DD0BBD
S113089020E030E040E05FE30E94DD0B20910401A2
S11308A03091050140910601509107010E9483098E
S11308B069837A838B839C83B6016819790980E004
S11308C090E00E94E60A6D837E838F839887B70148
S11308D06A197B0980E090E00E94E60A2D813E813E
S11308E04F8158850E94F7096B017C01212F302F1D
S11308F0432D522DB981AA81BB80AC806B2F7A2FF6
S11309008B2D9A2D0E94F7096D837E838F839887A0
S1130910212F302F432D522D612F702F832D922D97
S11309200E94DD0B4B015C0179816A819B818C8182
S1130930272F362F492F582F672F732F842F952F4A
S11309400E94DD0B9B01AC01C501B4010E94840926
S11309500E944A0C4B015C012D813E814F815885D8
S1130960C701B6010E948409262E372E082F192F9D
S1130970802F912F0E944A0AA50194010E94DD0B49
S11309809B01AC01C301B2010E948309E985FA8588
S11309906083718382839383622D732D802F912FC3
S11309A00E94400CA50194010E94DD0B20910401DA
S11309B03091050140910601509107010E9484097C
S11309C0E985FA856483758386839783C086D18697
S11309D0E286F38681E003C080E001C080E02A96CD
S11309E00FB6F894DEBF0FBECDBFDF91CF911F913C
S11309F00F91FF90EF90DF90CF90BF90AF909F90BA
S1130A008F907F906F905F904F903F902F900895BC
S1130A1081E08093D70080EA8093D80082E189BD89
S1130A2009B400FEFDCF80E98093D8001092E00065
S1130A301092590110925A018CE08093E20078944C
S1130A400895CF93DF9390915901992309F44DC0F0
S1130A509FB7F89424E02093E90020915B012223BE
S1130A6049F02091E80025FD03C09FBF8FEF42C0ED
S1130A7010925B013091E400375E2091E80025FD7F
S1130A8025C09FBF9091E400931749F090915901BC
S1130A9091110FC02CC09FBF9881931305C081E0B2
S1130AA080935B018FEF26C090915901911108C08A
S1130AB020C0A9EEB0E044E0E8EEF0E0C4EED0E0FF
S1130AC09FB7F8944C93208125FFE5CF8093F100E4
S1130AD08091E80085FD03C08AE38093E80085E007
S1130AE0809358019FBF80E005C08FEF03C08FEF54
S1130AF001C08FEFDF91CF9108951F920F920FB62F
S1130B000F9211248F939F93EF93FF93E1EEF0E004
S1130B108081108283FF11C01092E90091E09093CC
S1130B20EB001092EC0092E19093ED0098E090932A
S1130B30F0001092590110925A0182FF13C0809163
S1130B405901882379F080915801882359F0815004
S1130B5080935801811106C084E08093E9008AE300
S1130B608093E800FF91EF919F918F910F900FBEBA
S1130B700F901F9018951F920F920FB60F92112489
S1130B800F931F932F933F934F935F936F937F9391
S1130B908F939F93AF93BF93CF93DF93EF93FF9381
S1130BA01092E9008091E80083FF51C1E1EFF0E089
S1130BB07081408120813081932F80E0DC01A22B61
S1130BC09D0150816081962F80E0852BA081B081AA
S1130BD052EF5093E800463009F05CC004C081E253
S1130BE08093EB003BC1C6E04DEF50E0FA01659104
S1130BF074912617370719F0495F5F4F20C0FA0137
S1130C003296659174918617970719F0495F5F4F83
S1130C1016C0FA01349685919491282F392FFA0140
S1130C20369644919B2F80E08A2B8F3F910519F0D3
S1130C3010F08FEF90E0841728F4482F03C0C150C0
S1130C40A9F6CDCFC8EED0E07EEFA1EFB0E010E181
S1130C508881982F9570E1F382FD00C1642F4131A2
S1130C6008F0612F662309F4F6C0C901562FFC0170
S1130C700196E491EC935150D1F7862F815090E086
S1130C800196280F391F461B78834111E1CF60314B
S1130C90F9F2E4C0453061F48EEF8093E800E8EEA9
S1130CA0F0E0808180FFFDCF20682093E300D6C070
S1130CB04930A1F571115BC02093590110925A017A
S1130CC0109258018EEF8093E80011E087E291E0E2
S1130CD0C9EED0E0ABEEB0E06CEE70E04DEE50E06B
S1130CE018839C012F5F3F4FFC0104910C93002358
S1130CF059F0F9012491FB012083FC0132960396FB
S1130D002491FA01208301C0C9011F5F153041F706
S1130D10EAEEF0E08EE180831082A0C0483081F4D6
S1130D20703809F03FC0E8EEF0E0808180FFFDCF2D
S1130D30809159018093F1008EEF8093E8008EC07A
S1130D404132A9F4713AF1F5E8EEF0E0808180FFD8
S1130D50FDCFECE0F1E0A1EFB0E081918C9341E0B4
S1130D60E331F407D1F78EEF8093E80077C0403287
S1130D70C9F4713209F06BC0E8EEF0E0808182FFC3
S1130D80FDCFECE0F1E0A1EFB0E08C91819351E074
S1130D90E331F507D1F7E8EEF0E08BEF80838EEFD7
S1130DA080835CC0423271F4713209F050C02093E8
S1130DB05A01E8EEF0E0808180FFFDCF8EEF809352
S1130DC0E8004CC041111AC0E8EEF0E0208120FF99
S1130DD0FDCF723851F4E9EEF0E080838091EB00AE
S1130DE085FB882780F9108201C080E0E1EFF0E004
S1130DF0808310828EEF8093E80030C0413011F080
S1130E00433029F5723019F5232B09F58F7799278B
S1130E10382F31503430D8F43EEF3093E8008093CB
S1130E20E900433021F481E28093EB0017C099E19B
S1130E309093EB0021E030E0D90102C0AA0FBB1F60
S1130E408A95E2F7EAEEF0E0A083108207C081E21F
S1130E508093EB0003C078834111FACEFF91EF91A8
S1130E60DF91CF91BF91AF919F918F917F916F91BE
S1130E705F914F913F912F911F910F910F900FBE52
S1130E800F901F9018951F93CF93DF93EC01219639
S1130E90FC011491112369F01A3019F48DE00E94B9
S1130EA02105812F0E942105FE0121961491111123
S1130EB0F3CFDF91CF911F910895EF92FF920F939B
S1130EC01F93CF93DF93CDB7DEB727970FB6F89470
S1130ED0DEBF0FBECDBF8E010F5F1F4F27E0F801AD
S1130EE011922A95E9F74AE050E0B8010E94D50C26
S1130EF07E01F8E0EF0EF11CF80181918F01811160
S1130F000E9421050E151F05B9F727960FB6F89410
S1130F10DEBF0FBECDBFDF91CF911F910F91FF9028
S1130F20EF90089520E030E0ECEBF0E0808188233E
S1130F3034F02F5F3F4F293E83E03807B9F781E053
S1130F40283E334009F480E008958093BB0084E890
S1130F508093BC000E949207882321F08091B900FD
S1130F60887F089580E00895CF93C82F94EA9093E2
S1130F70BC000E949207882361F08C2F880F8F5F3A
S1130F800E94A507883439F484E98093BC0080E08A
S1130F9003C080E001C081E0CF910895CF93C82FB2
S1130FA094EA9093BC000E949207882359F08C2FF6
S1130FB0880F0E94A507803239F484E98093BC002D
S1130FC080E003C080E001C081E0CF91089584E90E
S1130FD08093BC000895EF92FF920F931F93CF93D9
S1130FE0DF93CDB7DEB760970FB6F894DEBF0FBEC0
S1130FF0CDBFE82EF92EFE01319680E1DF011D926E
S11310008A95E9F788E50E94CE07882309F466C02B
S113101086E30E94A507882309F462C00E94E707BB
S1131020B8E0BA95F1F7000088E50E94B407882378
S113103009F458C0AE014F5F5F4F8E01005F1F4F30
S1131040ECEBF0E094EC2BEB30E090838081882390
S1131050ECF7D9018C91DA018D93AD01A017B1079A
S1131060A1F784E88093BC00ECEBF0E08081882356
S1131070ECF78091BB00888B0E94E707DE01149691
S11310806E2D7F2D4C91242F2073CD010297FC01EE
S1131090808190E0F0E12F9F800D911D1124FB01D0
S11310A091838083842F807C90E0880F991F880F20
S11310B0991F9D0121503109F9012081820F911D51
S11310C0FB01938382834F704483158213966A5F76
S11310D07F4F0A171B07B1F681E005C080E003C00B
S11310E080E001C080E060960FB6F894DEBF0FBECA
S11310F0CDBFDF91CF911F910F91FF90EF90089595
S11311000E94610188E50E94CE07882309F4C7C0C4
S113111080E30E94A507882309F4C3C081E00E94EC
S1131120A507882309F4BFC00E94E70783EC99E070
S11311300197F1F700C0000088E50E94CE078823DC
S113114009F4B3C080E00E94A507882309F4AFC066
S113115080E00E94A507882309F4ABC080E00E94C8
S1131160A507882309F4A7C080E00E94A507882367
S113117009F4A3C080E00E94A507882309F49FC056
S113118080E00E94A507882309F49BC080E00E94A8
S1131190A507882309F497C080E90E94A50788233E
S11311A009F493C00E94E70783EC99E00197F1F7F3
S11311B000C0000088E50E94CE07882309F487C098
S11311C087E00E94A507882309F483C080E00E9479
S11311D0A507882309F47FC081E40E94A50788231A
S11311E009F47BC00E94E70783EC99E00197F1F7CB
S11311F000C0000088E50E94CE07882309F46FC070
S11312008AE10E94A507882309F46BC080E40E9448
S1131210A507882309F467C080E00E94A5078823F6
S113122009F463C00E94E70783EC99E00197F1F7A2
S113123000C0000088E50E94CE07882309F457C047
S113124083E30E94A507882309F453C083E00E9426
S1131250A507882309F44FC00E94E70783EC99E0AF
S11312600197F1F700C0000088E50E94CE078823AB
S113127009F443C080E30E94A507882309F43FC012
S113128088E00E94A5078823E1F10E94E70783EC28
S113129099E00197F1F700C0000081E0089580E033
S11312A0089580E0089580E0089580E0089580E046
S11312B0089580E0089580E0089580E0089580E036
S11312C0089580E0089580E0089580E0089580E026
S11312D0089580E0089580E0089580E0089580E016
S11312E0089580E0089580E0089580E0089580E006
S11312F0089580E0089580E0089580E0089580E0F6
S1131300089580E008955058BB27AA270ED0FFC146
S1131310C8D130F0CDD120F031F49F3F11F41EF448
S113132098C10EF4E095E7FB8EC1E92F12D280F349
S1131330BA17620773078407950718F071F49EF5CE
S11313402AC20EF4E0950B2EBA2FA02D0B01B90181
S113135090010C01CA01A0011124FF27591B99F027
S1131360593F50F4503E68F11A16F040A22F232F33
S1131370342F4427585FF3CF469537952795A79583
S1131380F0405395C9F77EF41F16BA0B620B730B2A
S1131390840BBAF09150A1F0FF0FBB1F661F771F9B
S11313A0881FC2F70EC0BA0F621F731F841F48F450
S11313B0879577956795B795F7959E3F08F0B3CFD6
S11313C09395880F08F09927EE0F979587950895C0
S11313D068D158F080E891E009F49EEF69D128F0D3
S11313E040E851E059F45EEF09C033C1D4C1E92F9C
S11313F0E078AFD168F3092E052AC1F32617370721
S11314004807590738F00E2E07F8E02569F0E02563
S1131410E0640AC0EF6307F8009407FADB01B9013E
S11314209D01DC01CA01AD01EF9346D070D10AD011
S11314305F91552331F02BED3FE049E450FD49EC39
S113144063CF0895DF93DD27B92FBF7740E85FE3CB
S11314501616170648075B0710F4D92FA7D19F93D8
S11314608F937F936F9354D2ECEAF0E0F5D04FD191
S11314702F913F914F915F91ACD1DD2349F090586A
S1131480A2EA2AED3FE049EC5FE3D0785D274DDF27
S1131490DF913DC115D1E3954BC10CD038C108D1C2
S11314A040F0FFD030F021F45F3F19F0CCC051116F
S11314B073C1CFC04ED198F39923C9F35523B1F327
S11314C0951B550BBB27AA2762177307840738F0AF
S11314D09F5F5F4F220F331F441FAA1FA9F333D00E
S11314E00E2E3AF0E0E830D091505040E695001CC2
S11314F0CAF729D0FE2F27D0660F771F881FBB1F7E
S1131500261737074807AB07B0E809F0BB0B802D57
S1131510BF01FF2793585F4F2AF09E3F510568F0A3
S113152092C03AC15F3FECF3983EDCF38695779521
S11315306795B795F7959F5FC9F7880F911D9695A5
S1131540879597F90895E1E0660F771F881FBB1F01
S1131550621773078407BA0720F0621B730B840BAE
S1131560BA0BEE1F88F7E095089504D06894B11182
S113157013C10895F6D088F09F5790F0B92F99279A
S1131580B751A0F0D1F0660F771F881F991F1AF08A
S1131590BA95C9F712C0B13081F0FDD0B1E0089519
S11315A0FAC0672F782F8827B85F39F0B93FCCF39A
S11315B0869577956795B395D9F73EF49095809580
S11315C0709561957F4F8F4F9F4F0895E89409C0A0
S11315D097FB3EF490958095709561957F4F8F4F62
S11315E09F4F9923A9F0F92F96E9BB279395F69578
S11315F0879577956795B795F111F8CFFAF4BB0FF6
S113160011F460FF1BC06F5F7F4F8F4F9F4F16C059
S1131610882311F096E911C0772321F09EE8872FE3
S1131620762F05C0662371F096E8862F70E060E09F
S11316302AF09A95660F771F881FDAF7880F969518
S1131640879597F9089597F99F6780E870E060E0BF
S113165008959FEF80EC0895DF93CF931F930F932A
S1131660FF92EF92DF927B018C01689405C0DA2E21
S1131670EF01AFD0FE01E894A591259135914591F4
S11316805591AEF3EF0151DEFE019701A801DA9402
S113169079F7DF90EF90FF900F911F91CF91DF9139
S11316A0089500240A9416161706180609060895C4
S11316B000240A9412161306140605060895C9CFC9
S11316C050D0E8F3E894E0E0BB279F57F0F02AED10
S11316D03FE049EC06C0EE0FBB0F661F771F881F63
S11316E028F0B23A62077307840728F0B25A620BF3
S11316F0730B840BE3959A9572F7803830F49A95BE
S1131700BB0F661F771F881FD2F790482AC1092E86
S11317100394000C11F4882352F0BB0F40F4BF2B48
S113172011F460FF04C06F5F7F4F8F4F9F4F089588
S1131730EF93E0FF06C0A2EA2AED3FE049EC5FEB3D
S1131740F4DDE5DF0F90039401FC9058E9EDF0E03F
S11317501BC157FD9058440F551F59F05F3F71F05E
S11317604795880F97FB991F61F09F3F79F0879504
S11317700895121613061406551FF2CF4695F1DF8D
S113178008C0161617061806991FF1CF869571051D
S1131790610508940895E894BB2766277727CB0151
S11317A097F90895B8D008F48FEF08959B01AC0120
S11317B060E070E080E89FE370CE0BD0A8CF71DFCB
S11317C028F076DF18F0952309F03DCF42CF11249D
S11317D0E3CFBFDFA0F3959FD1F3950F50E0551FE2
S11317E0629FF001729FBB27F00DB11D639FAA2772
S11317F0F00DB11DAA1F649F6627B00DA11D661FC1
S1131800829F2227B00DA11D621F739FB00DA11DE1
S1131810621F839FA00D611D221F749F3327A00D9B
S1131820611D231F849F600D211D822F762F6A2F37
S113183011249F5750408AF0E1F088234AF0EE0FBC
S1131840FF1FBB1F661F771F881F91505040A9F7C9
S11318509E3F510570F0F7CE9FCF5F3FECF3983E6B
S1131860DCF3869577956795B795F795E7959F5F30
S1131870C1F7FE2B880F911D9695879597F90895CA
S11318809F931EDF0F9007FCEE5F52CF11F40EF40E
S1131890E0CE65C066DFD0F39923D9F3CEF39F572A
S11318A0550B87FF6AD00024A0E640EA90018058D7
S11318B05695979528F4805C660F771F881F20F053
S11318C026173707480730F4621B730B840B202953
S11318D031294A2BA69517940794202531254A27A8
S11318E058F7660F771F881F20F026173707480719
S11318F030F4620B730B840B200D311D411DA09538
S113190081F7B901842F9158880F9695879508958A
S11319109B01AC0152CF990F0008550FAA0BE0E8C8
S1131920FEEF16161706E807F907C0F0121613069D
S1131930E407F50798F0621B730B840B950B39F4DD
S11319400A2661F0232B242B252B21F408950A2643
S113195009F4A140A6958FEF811D811D08959F3F35
S113196031F0915020F4879577956795B795880F56
S1131970911D9695879597F9089591505040660F5B
S1131980771F881FD2F708959F938F937F936F9348
S1131990FF93EF939B01AC0110DFEF91FF915CDEAD
S11319A02F913F914F915F9108CFFB019F01E894E4
S11319B04230C4F04532B4F44A3029F497FB1EF4A3
S11319C0909581959F4F642F77270E94060D805D27
S11319D08A330CF0895D8193CB010097A1F716F44B
S11319E05DE251931082C9010C94F60CDC01FC01F8
S11319F0672F71917723E1F7329704C07C916D933F
S1131A0070836291AE17BF07C8F30895AA1BBB1B6E
S1131A1051E107C0AA1FBB1FA617B70710F0A61BEA
S1131A20B70B881F991F5A95A9F780959095BC010B
S10B1A30CD010895F894FFCFE5
S1131A3800C07F44000040420000804200E10000F2
S1071A48000008008E
S9030000FC
