:100000000C9416010C9433010C9433010C94CB071F
:100010000C9433010C9433010C9433010C94330190
:100020000C9433010C9433010C94700F0C94AE0FAC
:100030000C9433010C9433010C9433010C94330170
:100040000C9433010C9433010C9433010C94330160
:100050000C9433010C9433010C9433010C94330150
:100060000C9433010C9433010C9433010C94330140
:100070000C9433010C94FD070C9433010C94330160
:100080000C9433010C9433010C9433010C94330120
:100090000C9433010C9433010C9433010C94330110
:1000A0000C9433010C9433010C943301084AD73B70
:1000B0003BCE016E84BCBFFDC12F3D6C74319ABD37
:1000C00056833DDA3D00C77F11BED9E4BB4C3E915B
:1000D0006BAAAABE000000803F07634236B79BD8D8
:1000E000A71A39685618AEBAAB558C1D3CB7CC5719
:1000F00063BD6DEDFD753EF6177231BF00000080E7
:100100003F05A84CCDB2D44EB93836A9020C50B92F
:10011000918688083CA6AAAA2ABE000000803F0853
:10012000000000BE922449123EABAAAA2ABECDCC42
:10013000CC4C3E00000080BEABAAAAAA3E00000044
:1001400000BF000000803F0000000000084178D39D
:10015000BB4387D1133D190E3CC3BD4282AD2B3E3C
:1001600068EC8276BED98FE1A93E4C80EFFFBE01DC
:10017000C4FF7F3F000000000000010000AD01123D
:1001800000020000BF01430003000002020401035B
:100190000904060212020309041A020603030904F1
:1001A0002202080001C112018036018136120100CD
:1001B0000202000010C0167A0400010102030109C6
:1001C000024300020100C0320904000001020201E2
:1001D0000005240010010524010101042402060584
:1001E00024060001070582031000400904010002F3
:1001F0000A000000070503024000000705840240D2
:1002000000000403090412034A002E0020004600E7
:10021000690065006E006500000006034D003200B5
:1002200000000803340031003000000011241FBE1C
:10023000CFEFDAE0DEBFCDBF11E0A0E0B1E0E8ED46
:10024000FFE202C005900D92A831B107D9F721E075
:10025000A8E1B1E001C01D92A03FB207E1F70E9402
:10026000D9060C94EA170C9400008330910509F428
:1002700049C03CF48130910519F19CF5892B79F046
:1002800008958530910509F45FC00CF44CC08630A8
:10029000910509F46AC0079709F088C077C0EBE7B9
:1002A000F0E080818F7D8083ECE7F0E080818B7FC0
:1002B000808380818D7F808380818E7F808308957D
:1002C000EBE7F0E080818F7D8083ECE7F0E08081D8
:1002D0008B7F808380818D7F80838081816080831C
:1002E0000895EBE7F0E080818F7D8083ECE7F0E01C
:1002F00080818460808380818D7F808380818E7FF8
:1003000080830895EBE7F0E080818F7D8083ECE7C8
:10031000F0E080818460808380818D7F8083808114
:10032000816080830895EBE7F0E080818F7D80839A
:10033000ECE7F0E08081846080838081826080834C
:1003400080818E7F80830895EBE7F0E0808180627A
:100350008083ECE7F0E080818B7F808380818D7FDC
:10036000808380818E7F80830895EBE7F0E0808139
:1003700080628083ECE7F0E080818B7F80838081E6
:100380008D7F80838081816080830895EBE7F0E03A
:1003900080818F7D8083ECE7F0E0808184608083C2
:1003A00080818260808380818160808308958091D4
:1003B000260190912701892B09F49CC0809152015C
:1003C000909153018330910571F13CF48130910596
:1003D000C1F004F5892B61F052C085309105A9F177
:1003E0005CF186309105D1F1079709F048C03FC014
:1003F0008091780090917900909337018093360135
:100400003EC080917800909179009093350180935F
:10041000340135C080917800909179009093330138
:10042000809332012CC08091780090917900909354
:1004300031018093300123C0809178009091790040
:1004400090932F0180932E011AC080917800909193
:10045000790090932D0180932C0111C08091780038
:100460009091790090932B0180932A0108C080918C
:100470007800909179009093290180932801EAE710
:10048000F0E080818F77808380818F7B8083808183
:100490008F7D808380818F7E8083809152019091B7
:1004A000530188309105A0F401969C0127703078A3
:1004B000332334F421503109286F3F6F2F5F3F4FB2
:1004C0002093520130935301822F932F0E943501C4
:1004D000EAE7F0E0808180628083808180688083A9
:1004E0008081806480838081806180831092270175
:1004F000109226018091360190913701909343012B
:10050000809342018091340190913501909345018F
:10051000809344018091320190913301909347017F
:10052000809346018091300190913101909349016F
:100530008093480180912E0190912F0190934B015F
:1005400080934A0180912C0190912D0190934D014F
:1005500080934C0180912A0190912B0190934F013F
:1005600080934E018091280190912901909351012F
:100570008093500108952091880030918900309334
:100580008B0020938A002091960030919700309341
:10059000990020939800009719F42A9A2B980895AF
:1005A000019711F42A982B9A08958F929F92AF92F7
:1005B000BF92CF92DF92EF92FF920F931F93CF9350
:1005C000DF93EC016A017B01480159012A9A2B9AB9
:1005D000809157018823A1F021E73DE34AE85EE3DB
:1005E000C501B4010E942314882354F40F2EF1E7AF
:1005F0008F2EFDE39F2EFAE8AF2EFEE3BF2EF02DE7
:10060000C130D10581F5609196007091970080E02E
:1006100090E00E94F414A70196010E94BD160E946A
:10062000C8147093990060939800C0918800D0918D
:100630008900A7019601C501B4010E94BD166B0196
:100640007C01BE0180E090E00E94F4149B01AC01AB
:10065000C701B6010E94BD160E94C81470938B009A
:1006600060938A0031C0CD2B79F5C0919600D0916E
:100670009700A7019601C501B4010E94BD164B0168
:100680005C01BE0180E090E00E94F4149B01AC018B
:10069000C501B4010E94BD160E94C8147093990050
:1006A00060939800609188007091890080E090E0EC
:1006B0000E94F414A70196010E94BD160E94C8145E
:1006C00070938B0060938A00DF91CF911F910F91FF
:1006D000FF90EF90DF90CF90BF90AF909F908F9062
:1006E0000895809188009091890090938B00809369
:1006F0008A00809196009091970090939900809342
:1007000098002A982B9808950F931F930E94D70161
:1007100060E070E0E2E4F1E040E050E080E090E092
:10072000219131914217530714F4BC01A90101969C
:1007300087309105A9F750933F0140933E016093A4
:100740004001709341016330710509F4B0C04CF46D
:100750006130710509F464C00CF086C0672B61F04C
:100760005CC16530710509F4E2C00CF4BDC06630AF
:10077000710509F052C1FFC000914201109143017F
:10078000B801882777FD8095982F0E94F6140E9463
:100790004A1690582EEA37E443EB52E40E94BD1605
:1007A0002FE135E246E254E40E945D136093BA0102
:1007B0007093BB018093BC019093BD0180914E0169
:1007C00090914F01B801681B790B70933D016093C4
:1007D0003C01882777FD8095982F0E94F614DC0154
:1007E000CB01BF77BC01CD01905820E030E040E262
:1007F00052E40E942A140E9497148B019C0160937A
:1008000038017093390180933A0190933B0140E0A5
:1008100050E060E87FE380E090E00E94D502FDC0F8
:1008200080914401909145018132934084F0809100
:10083000460190914701813293404CF040E050E0F6
:1008400060E87FE381E090E00E94BB02E6C00DEC2F
:100850001CEC2CE43DE340E050E060E87FE380E006
:1008600090E00E94D502D9C0809144019091450149
:100870008132934084F0809146019091470181320A
:1008800093404CF040E050E060E87FE381E090E08E
:100890000E94BB02C2C000E010E0980140E050E0BE
:1008A00060E87FE380E090E00E94D502B6C020912E
:1008B00046013091470180914A0190914B01821786
:1008C00093074CF440E050E060E87FE380E090E084
:1008D0000E94BB02A2C040E050E060E87FE381E0FC
:1008E00090E00E94BB0299C080914A0190914B0117
:1008F0008132934084F080914C0190914D0181327E
:1009000093404CF040E050E060E87FE381E090E00D
:100910000E94BB0282C000E010E0980140E050E07D
:1009200060E87FE381E090E00E94D50276C080918C
:100930004A0190914B018132934084F080914C01A7
:1009400090914D01813293404CF040E050E060E8DE
:100950007FE381E090E00E94BB025FC00AE919E9F1
:1009600029E13EE340E050E060E87FE381E090E091
:100970000E94D50252C00091420110914301B8017A
:10098000882777FD8095982F0E94F6140E944A16BA
:1009900090582EEA37E443EB52E40E94BD162FE153
:1009A00035E246E254E40E945D136093BA0170930D
:1009B000BB018093BC019093BD0160914E01709189
:1009C0004F01601B710B70933D0160933C018827C0
:1009D00077FD8095982F0E94F614DC01CB01BF773C
:1009E000BC01CD01905820E030E04CE852E40E9478
:1009F0002A140E9497148B019C0160933801709314
:100A0000390180933A0190933B0140E050E060E867
:100A10007FE381E090E00E94D5021F910F9108953D
:100A20004F925F926F927F928F929F92AF92BF92FE
:100A3000CF92DF92EF92FF920F931F93CF93DF93AA
:100A40007B016A9A7298BC01882777FD8095982F60
:100A50000E94F6142091CA013091CB014091CC0143
:100A60005091CD010E945C13062F172FD82FC92F4C
:100A7000B701882777FD8095982F0E94F614209162
:100A8000CE013091CF014091D0015091D1010E940F
:100A90005C13C62ED72EE82EF92E202F312F4D2F86
:100AA0005C2F6C2D7D2D8E2D9F2D0E94D0132B0140
:100AB0003C0120E030E044EB52E46091D2017091BF
:100AC000D3018091D4019091D5010E945D134B0117
:100AD0005C01B7FAB094B7F8B09420E030E044E39A
:100AE00053E4C301B2010E94BD1623EC35EF48E484
:100AF00050E40E942A149B01AC01C501B4010E947C
:100B00005C130E94C314CB018C579C4F68E671E0C4
:100B10000E949117BC01645B7109882777FD80955D
:100B2000982F0E94F6144B015C0160932201709390
:100B30002301809324019093250120E030E0A90156
:100B40000E94041618162CF4109219011092180124
:100B500006C081E090E09093190180931801E89419
:100B6000B7F8C501B401905820E030E040EF51E4FF
:100B70000E942A140E9497146093380170933901DF
:100B800080933A0190933B012C2D3D2D4E2D5F2DEE
:100B90006C2D7D2D8E2D9F2D0E94BD166B017C012D
:100BA000202F312F4D2F5C2F602F712F8D2F9C2FD9
:100BB0000E94BD169B01AC01C701B6010E945D13E6
:100BC0000E942A170E94C314882777FD8095982FCA
:100BD0000E94F61460931E0170931F018093200100
:100BE0009093210120E030E04CE852E40E942A1466
:100BF00060931A0170931B0180931C0190931D0157
:100C00000E94E00E8093BF010E94FE0E8091BF0102
:100C1000813009F062C08091220190912301A0915E
:100C20002401B09125018093D6019093D701A09320
:100C3000D801B093D90120E030E048EC52E4609153
:100C400038017091390180913A0190913B010E94E5
:100C5000BD166093DA017093DB018093DC01909301
:100C6000DD0180911E0190911F01A0912001B091A2
:100C700021018093DE019093DF01A093E001B09306
:100C8000E10120E030E048EC52E460911A017091FB
:100C90001B0180911C0190911D010E94BD16609363
:100CA000E2017093E3018093E4019093E501CAECC3
:100CB000D1E006EE11E069917991899199910E94B4
:100CC000C314CB010E94361189E00E94140FC01793
:100CD000D10789F78AE00E94140FC0900001D090DC
:100CE0000101E0900201F0900301A70196016091DB
:100CF0001A0170911B0180911C0190911D010E94AD
:100D00000416181644F4C0921A01D0921B01E09206
:100D10001C01F0921D0100913801109139012091C0
:100D20003A0130913B0140911A0150911B016091B1
:100D30001C0170911D0180911801909119010E9470
:100D4000D50220E030E040E251E460911E01709154
:100D50001F0180912001909121010E94231488237A
:100D600084F46E9A76980E94710310928B00109210
:100D70008A001092990010929800109255011092DA
:100D80005401DF91CF911F910F91FF90EF90DF9071
:100D9000CF90BF90AF909F908F907F906F905F901B
:100DA0004F90089560E070E083E790E00E941005A6
:100DB0000895559A539A0E9413084AE068E081E02A
:100DC0000E94290EE1E6F0E080E88083108285BF72
:100DD00085BF279AE1E8F0E080818061808380818F
:100DE00088608083A0E8B0E08C9182608C938C91C5
:100DF00081608C938C9180628C938C918F7E8C938C
:100E000080818B7F808380818D7F808380818160E2
:100E10008083269A8FEF9FEF9093890080938800BC
:100E200010928B0010928A00E1E9F0E020812061AD
:100E30002083208128602083A0E9B0E02C912260EB
:100E40002C932C912E7F2C932C9120682C932C91F9
:100E50002F7B2C9320812B7F208320812D7F20834B
:100E600020812160208390939700809396001092B8
:100E7000990010929800279A269A3E9A229A239ACD
:100E80007894CAE7D0E0888188608883ECE7F0E056
:100E900080818F77808380818F7B8083888184604D
:100EA0008883888182608883888181608883EEE777
:100EB000F0E0808181608083808182608083808196
:100EC0008061808380818062808380818064808370
:100ED000808180688083EDE7F0E08081816080839D
:100EE00080818260808388818062888380E090E056
:100EF0000E94350188818068888388818064888326
:100F0000888180618883209821982898299882E098
:100F100090E090935501809354010E9459120E94D1
:100F2000E70A6894DD24D3F8C0E5D1E0CC24C3946B
:100F30000F2EF3EAEF2EF12CF02D02E010E08AECF8
:100F400091E00E94F30A8BB18D258BB91092560166
:100F50001092220110922301109224011092250177
:100F60000E94D70188819981853F914054F05D9A14
:100F7000C0925701F0925501E09254010E94D206AE
:100F8000DECF5D98109257011093550100935401E4
:100F90000E948403D4CF1F920F920FB60F92112498
:100FA0002F933F934F935F936F937F938F939F9371
:100FB000AF93BF93EF93FF93F8946AE080EC91E0D6
:100FC0000E947F0E78948091C0018093540110920A
:100FD000550181E080935601FF91EF91BF91AF9150
:100FE0009F918F917F916F915F914F913F912F9141
:100FF0000F900FBE0F901F9018951F920F920FB673
:101000000F9211248F939F93F89481E090E0909336
:1010100027018093260178949F918F910F900FBEA6
:101020000F901F901895589A599A5A9A8CE080936D
:10103000B800E9E6F0E080818062808380818F7E65
:101040008083EA9A789408950F931F93CF93DF9348
:101050008C01EB018EE991E00E94C41180919E0108
:1010600090919F01F801918380838091A4019091D8
:10107000A501938382838091AA019091AB0195830E
:1010800084838091B0019091B10197838683809190
:10109000A0019091A101998388838091A6019091EC
:1010A000A7019B838A838091AC019091AD019D83C0
:1010B0008C838091B2019091B3019F838E8381E0F4
:1010C000DF91CF911F910F9108952F923F924F92F0
:1010D0005F926F927F928F929F92AF92BF92CF92C8
:1010E000DF92EF92FF920F931F93CF93DF93CDB7D1
:1010F000DEB76C970FB6F894DEBF0FBECDBF10926F
:10110000660110926701109268011092690180E0F7
:1011100090E6AAEEB6E48093040190930501A093B3
:101120000601B09307010F2EF8E7CF2EF1E0DF2E76
:10113000F02D0AE711E00F2EFCE7EF2EF1E0FF2E75
:10114000F02D6EE671E086E791E00E942408809120
:101150007601909177018F3F934098F7F601808157
:1011600091818F3F934068F7F801808191818F3F93
:10117000934038F7F701808191818F3F934008F7C2
:1011800080906A0190906B01A0906C01B0906D010D
:10119000209166012983309167013A83409168016B
:1011A0004B83509169015C83609160016B8B7091FE
:1011B00061017C8B80915E01898B90915F019A8B9C
:1011C000E0916201ED8BF0916301FE8B209164014F
:1011D0002F8B30916501388F409104014D835091E0
:1011E00005015E83209006013090070160915C014B
:1011F000698F70915D017A8F80915A0190915B01A6
:10120000988B8F8718861F82C12CD12CB9C0EB8D8B
:10121000FC8DE415F50509F49CC0E985FA8560812B
:10122000718180E090E00E94F4146B017C01F30175
:101230006081718180E090E00E94F4149B01AC0118
:10124000C701B6010E945C13C62ED72EE82EF92ED8
:10125000EB85FC856081718180E090E00E94F41450
:101260004B015C01F8016081718180E090E00E9497
:10127000F4149B01AC01C501B4010E945C13862EDD
:10128000972EA82EB92E2C2D3D2D4E2D5F2D6C2D79
:101290007D2D8E2D9F2D0E94BD166B017C01282D6A
:1012A000392D4A2D5B2D682D792D8A2D9B2D0E947D
:1012B000BD169B01AC01C701B6010E945D130E94DF
:1012C0002A17862E972EA82EB92E79816A819B81A6
:1012D0008C81272F362F492F582F682D792D8A2D55
:1012E0009B2D0E9404161816D4F420E030E040E054
:1012F0005FE3682D792D8A2D9B2D0E94BD166D8B85
:101300007E8B8F8B988FFB8DF98B2C8D2A8B3D8557
:101310003B8B4E854C8B89829A82AB82BC827D81CD
:101320006E81272F362F422D532D682D792D8A2D32
:101330009B2D0E942314882364F46B8D7C8D788B05
:101340006F877D85798F8E858A8F8D829E822A2CEC
:101350003B2C92E0690E711C0E5F1F4FEB8DFC8DD4
:101360003196FC8FEB8F349709F051CF2F81388560
:101370002F5F3F4F38872F8369012430310539F1C2
:1013800034E0C316D10494F786010F5F1F4F000F9E
:10139000111F0F2EF6E7EF2EF1E0FF2EF02DE00EDD
:1013A000F11E02591E4FC601880F991FAC014A5801
:1013B0005E4F5A874987BC0162597E4F7C876B8795
:1013C000CD86DE86DC8ECB8E26013701C7CF882DF9
:1013D000992DAA2DBB2D80936A0190936B01A09348
:1013E0006C01B0936D0159814A813B812C81852F1D
:1013F000942FA32FB22F8093660190936701A0933F
:101400006801B09369017B89709360018C89809336
:101410006101998990935E01EA89E0935F015D899A
:101420004E893F89288D852F942FA32FB22F80932B
:10143000620190936301A0936401B09365015D81A3
:101440004E81852F942FA22DB32D8093040190936C
:101450000501A0930601B0930701F98DF0935C019B
:101460002A8D20935D013F8530935A01488940932E
:101470005B01809160019091610120915C0130914C
:101480005D018217930719F590939D0180939C014C
:1014900040915E0150915F0150939B0140939A01EE
:1014A00020915A0130915B0130939701209396016E
:1014B00069E070E0FB01E81BF90BCF01841B950B81
:1014C000821B930B909399018093980166C04F857E
:1014D000588984179507F9F490939D0180939C0196
:1014E00040915E0150915F0150939B0140939A019E
:1014F000309397012093960169E070E0FB01E81BAF
:10150000F90BCF01841B950B821B930B90939901D0
:101510008093980142C040915E0150915F01241771
:10152000350701F530939D0120939C0190939B0119
:1015300080939A014F855889509397014093960163
:1015400049E050E0BA01621B730BFB01E81BF90B89
:10155000CF012F853889821B930B9093990180933B
:1015600098011BC050939D0140939C0190939B0157
:1015700080939A01309397012093960169E070E07F
:10158000FB01E41BF50BBF01681B790BCB01821B30
:10159000930B909399018093980181E06C960FB61C
:1015A000F894DEBF0FBECDBFDF91CF911F910F9199
:1015B000FF90EF90DF90CF90BF90AF909F908F9073
:1015C0007F906F905F904F903F902F9008950E9472
:1015D00059126EE671E086E791E00E9424080E94AD
:1015E000650881E008952F923F924F925F926F922B
:1015F0007F928F929F92AF92BF92CF92DF92EF92A3
:10160000FF920F931F93CF93DF93CDB7DEB72D9744
:101610000FB6F894DEBF0FBECDBF8C0110925901FA
:10162000109258010E946508E0909C01F0909D0185
:10163000F701EE0FFF1FEA58FE4F208131813A83F8
:1016400029832F3F83E0380708F0EAC2A0909A016F
:10165000B0909B01F501EE0FFF1FEA58FE4FC080CE
:10166000D1809FEFC91693E0D90608F0D9C2B9011D
:101670006C0D7D1D80E090E00E94F41420E030E0CD
:1016800040E05FE30E94BD1620910C0130910D01F6
:1016900040910E0150910F010E945C136D837E8377
:1016A0008F839887F701EE0FFF1FE259FE4FE0800E
:1016B000F180F501EE0FFF1FE259FE4FA080B180CF
:1016C000B5016E0D7F1D80E090E00E94F41420E0D3
:1016D00030E040E05FE30E94BD16209108013091A8
:1016E000090140910A0150910B010E945C13698726
:1016F0007A87282E392EB70180E090E00E94F414FA
:101700002B013C01B50180E090E00E94F4149B01A4
:10171000AC01C301B2010E945C134B015C01E98181
:10172000FA81BF0180E090E00E94F4142B013C019B
:10173000B60180E090E00E94F4149B01AC01C3016B
:10174000B2010E945C13A50194010E94D0134B01C9
:101750005C017D816E819F818885272F362F492FDF
:10176000582FB985AA856B2F7A2F822D932D0E9431
:10177000D0132B013C017D816E819F818885272FAD
:10178000362F492F582F672F732F892F952F0E949F
:10179000BD166B017C0179856A85272F362F422D76
:1017A000532D672F732F822D932D0E94BD169B0101
:1017B000AC01C701B6010E945D130E942A176B019C
:1017C0007C0120E030E0A90160917E0170917F01F1
:1017D00080918001909181010E942314811108C0A1
:1017E00080927E0190927F01A0928001B09281014F
:1017F00023E333E343E75FE360917E0170917F0170
:1018000080918001909181010E94BD164B015C0185
:1018100020ED3CEC4CE45DE360918A0170918B011A
:1018200080918C0190918D010E94BD169B01AC01AD
:10183000C501B4010E945D1320E030E044E353E4AD
:101840000E94BD1623EC35EF48E450E40E942A14B0
:10185000862E972EA82EB92EF80180869186A28614
:10186000B38623EC35EF48E450E40E94BD1620E037
:1018700030E044E353E40E942A149B01AC0162E58A
:1018800078EB86E990E40E945C13A30192010E9428
:101890005C13862E972EA82EB92E0E9420179B012E
:1018A000AC01C701B60190580E94BD1629E33EE87D
:1018B00043EA5EE30E94BD1669837B878D879C8720
:1018C000472F382F292F862F942FA32FB22F8093A5
:1018D000920190939301A0939401B0939501682D88
:1018E000792D8A2D9B2D0E942714A70196010E9415
:1018F000BD1629E83AED45E95EE30E94BD16862E45
:10190000972EA82EB92E862F992DAA2DBB2D809308
:101910008E0190938F01A0939001B093910120E0EC
:1019200030E0A90160918601709187018091880162
:10193000909189010E94231481112BC020E030E096
:10194000A90160918201709183018091840190913D
:1019500085010E94231481111CC059814B853D854E
:101960002C85852F942FA32FB22F809386019093DF
:101970008701A0938801B0938901882D992DAA2D04
:10198000BB2D8093820190938301A0938401B09337
:10199000850123E333E343E75FE3609186017091C0
:1019A000870180918801909189010E94BD164B01A9
:1019B0005C0120ED3CEC4CE45DE3B981AB85FD8539
:1019C000EC856B2F7A2F8F2F9E2F0E94BD169B01C7
:1019D000AC01C501B4010E945D13F80160837183FD
:1019E0008283938380908E0190908F01A0909001CC
:1019F000B090910123E333E343E75FE36091820119
:101A00007091830180918401909185010E94BD169F
:101A100069837A838B839C8320ED3CEC4CE45DE30B
:101A2000C501B4010E94BD169B01AC0169817A8198
:101A30008B819C810E945D13F8016483758386838A
:101A4000978380919C0190919D019C01220F331FEF
:101A50003A832983F901EA58FE4F6081718180E061
:101A600090E00E94F414F801648775878687978751
:101A7000E981FA81E259FE4F6081718180E090E056
:101A80000E94F414F801608B718B828B938B809190
:101A90009A0190919B019C01220F331F3A83298365
:101AA000F901EA58FE4F6081718180E090E00E9468
:101AB000F414F801648B758B868B978BE981FA811E
:101AC000E259FE4F6081718180E090E00E94F41441
:101AD000F801608F718F828F938F80919601909122
:101AE00097019C01220F331F3A832983F901EA5899
:101AF000FE4F6081718180E090E00E94F414F80153
:101B0000648F758F868F978FE981FA81E259FE4F36
:101B10006081718180E090E00E94F414F80160A37C
:101B200071A382A393A380919801909199019C0144
:101B3000220F331F3A832983F901EA58FE4F60814F
:101B4000718180E090E00E94F414F80164A375A311
:101B500086A397A3E981FA81E259FE4F60817181E2
:101B600080E090E00E94F414F80160A771A782A7BA
:101B700093A720E030E044E353E4C301B2010E94A4
:101B8000BD1623EC35EF48E450E40E942A14F80116
:101B900064A775A786A797A75D814E813F81288599
:101BA000852F942FA32FB22F80AB91ABA2ABB3ABF9
:101BB00059854A85852F942FA22DB32D84AB95ABE3
:101BC000A6ABB7ABC0AED1AEE2AEF3AE80919201A0
:101BD00090919301A0919401B09195018093860119
:101BE00090938701A0938801B0938901809282012C
:101BF00090928301A0928401B092850180918A0124
:101C000090918B01A0918C01B0918D0180937E0108
:101C100090937F01A0938001B093810181E000C087
:101C20002D960FB6F894DEBF0FBECDBFDF91CF91DA
:101C30001F910F91FF90EF90DF90CF90BF90AF90EA
:101C40009F908F907F906F905F904F903F902F90DC
:101C500008951F93CF93DF93182FD62FC42F0E9480
:101C6000130894EA9093BC00ECEBF0E09081992388
:101C7000ECF790E59093BB0094E89093BC00ECEBFC
:101C8000F0E090819923ECF79091B900987F903221
:101C900029F484E98093BC0080E02DC081E080932A
:101CA000BB0084E88093BC00ECEBF0E090819923CA
:101CB000ECF71093BB0084E88093BC00ECEBF0E001
:101CC00080818823ECF7D093BB0084E88093BC002C
:101CD000ECEBF0E080818823ECF7C093BB0084E854
:101CE0008093BC00ECEBF0E080818823ECF784E982
:101CF0008093BC0081E0DF91CF911F910895CF9335
:101D0000DF9324EA2093BC00ECEBF0E02081222357
:101D1000ECF721E52093BB0024E82093BC00ECEB1A
:101D2000F0E020812223ECF72091B900287F2834AD
:101D300029F484E98093BC0080E03FC024EC209328
:101D4000BC00ECEBF0E020812223ECF74091BB00DB
:101D5000461309C050E0415051091416150644F0CD
:101D600040E050E018C084E98093BC0080E025C0CA
:101D7000DC0120E030E0ECEBF0E074ECCBEBD0E009
:101D8000708360816623ECF768816D932F5F3F4F0E
:101D900024173507ACF324E82093BC00ECEBF0E00B
:101DA00020812223ECF72091BB00FC01E40FF51FFA
:101DB000208384E98093BC0081E0DF91CF91089576
:101DC0009FB7F8948091B701811103C09FBF8FEF37
:101DD000089583E08093E9008091E80085FD03C0C9
:101DE0009FBF8FEF08958091F1002091E80025FDBD
:101DF00003C02BE62093E8009FBF08958091B701B0
:101E0000882389F02FB7F89483E08093E9008091CC
:101E1000E80085FF07C0E8EEF0E09BE69083808154
:101E200085FDFCCF2FBF0895CF93DF939091B7012D
:101E3000992309F44DC09FB7F89424E02093E9005A
:101E40002091B901222349F02091E80025FD03C02B
:101E50009FBF8FEF42C01092B9013091E400375E0E
:101E60002091E80025FD25C09FBF9091E4009317C5
:101E700049F09091B70191110FC02CC09FBF98817C
:101E8000931305C081E08093B9018FEF26C0909134
:101E9000B701911108C020C0A9EEB0E044E0E8EE1F
:101EA000F0E0C4EED0E09FB7F8944C93208125FF7A
:101EB000E5CF8093F1008091E80085FD03C08AE3BF
:101EC0008093E80085E08093B6019FBF80E005C065
:101ED0008FEF03C08FEF01C08FEFDF91CF91089597
:101EE0001F920F920FB60F9211248F939F93EF932F
:101EF000FF93E1EEF0E08081108283FF11C0109229
:101F0000E90091E09093EB001092EC0092E1909345
:101F1000ED0098E09093F0001092B7011092B80194
:101F200082FF13C08091B701882379F08091B601B8
:101F3000882359F081508093B601811106C084E056
:101F40008093E9008AE38093E800FF91EF919F91ED
:101F50008F910F900FBE0F901F9018951F920F92A8
:101F60000FB60F9211240F931F932F933F934F930C
:101F70005F936F937F938F939F93AF93BF93CF9311
:101F8000DF93EF93FF931092E9008091E80083FFC5
:101F900051C1E1EFF0E07081408120813081932FC9
:101FA00080E0DC01A22B9D0150816081962F80E0B2
:101FB000852BA081B08152EF5093E800463009F0A4
:101FC0005CC004C081E28093EB003BC1C6E049E7FE
:101FD00051E0FA01659174912617370719F0495FAE
:101FE0005F4F20C0FA01329665917491861797076A
:101FF00019F0495F5F4F16C0FA01349685919491AC
:10200000282F392FFA01369644919B2F80E08A2B96
:102010008F3F910519F010F08FEF90E0841728F4AE
:10202000482F03C0C150A9F6CDCFC8EED0E07EEF57
:10203000A1EFB0E010E18881982F9570E1F382FD67
:1020400000C1642F413108F0612F662309F4F6C006
:10205000C901562FFC010196E491EC935150D1F740
:10206000862F815090E00196280F391F461B7883F8
:102070004111E1CF6031F9F2E4C0453061F48EEFF7
:102080008093E800E8EEF0E0808180FFFDCF2068DB
:102090002093E300D6C04930A1F571115BC02093B5
:1020A000B7011092B8011092B6018EEF8093E8004C
:1020B00011E083EA91E0C9EED0E0ABEEB0E06CEE67
:1020C00070E04DEE50E018839C012F5F3F4FFC0104
:1020D00004910C93002359F0F9012491FB01208312
:1020E000FC01329603962491FA01208301C0C901B4
:1020F0001F5F153041F7EAEEF0E08EE18083108239
:10210000A0C0483081F4703809F03FC0E8EEF0E03C
:10211000808180FFFDCF8091B7018093F1008EEF29
:102120008093E8008EC04132A9F4713AF1F5E8EEEF
:10213000F0E0808180FFFDCFE0E1F1E0A1EFB0E0D1
:1021400081918C9341E0E731F407D1F78EEF8093D2
:10215000E80077C04032C9F4713209F06BC0E8EE94
:10216000F0E0808182FFFDCFE0E1F1E0A1EFB0E09F
:102170008C91819351E0E731F507D1F7E8EEF0E07B
:102180008BEF80838EEF80835CC0423271F47132BA
:1021900009F050C02093B801E8EEF0E0808180FFA4
:1021A000FDCF8EEF8093E8004CC041111AC0E8EEDD
:1021B000F0E0208120FFFDCF723851F4E9EEF0E02D
:1021C00080838091EB0085FB882780F9108201C015
:1021D00080E0E1EFF0E0808310828EEF8093E800F2
:1021E00030C0413011F0433029F5723019F5232BFE
:1021F00009F58F779927382F31503430D8F43EEFD6
:102200003093E8008093E900433021F481E2809329
:10221000EB0017C099E19093EB0021E030E0D90189
:1022200002C0AA0FBB1F8A95E2F7EAEEF0E0A08396
:10223000108207C081E28093EB0003C078834111D4
:10224000FACEFF91EF91DF91CF91BF91AF919F9126
:102250008F917F916F915F914F913F912F911F913E
:102260000F910F900FBE0F901F901895EF92FF9255
:102270000F931F93CF93DF93CDB7DEB727970FB69A
:10228000F894DEBF0FBECDBF8E010F5F1F4F27E05A
:10229000F80111922A95E9F74AE050E0B8010E944E
:1022A000B9177E01F8E0EF0EF11CF80181918F0162
:1022B00081110E94140F0E151F05B9F727960FB64E
:1022C000F894DEBF0FBECDBFDF91CF911F910F916C
:1022D000FF90EF90089520E030E0ECEBF0E080819B
:1022E000882334F02F5F3F4F293E83E03807B9F74A
:1022F00081E0283E334009F480E008958093BB00DC
:1023000084E88093BC000E946B11882321F08091A7
:10231000B900887F089580E00895CF93C82F94EA8C
:102320009093BC000E946B11882361F08C2F880F62
:102330008F5F0E947E11883439F484E98093BC0059
:1023400080E003C080E001C081E0CF910895CF9389
:10235000C82F94EA9093BC000E946B11882359F017
:102360008C2F880F0E947E11803239F484E980938B
:10237000BC0080E003C080E001C081E0CF910895FF
:1023800084E98093BC000895EF92FF920F931F930E
:10239000CF93DF93CDB7DEB760970FB6F894DEBF6B
:1023A0000FBECDBFE82EF92EFE01319680E1DF0190
:1023B0001D928A95E9F788E50E94A711882309F400
:1023C00066C086E30E947E11882309F462C00E94E1
:1023D000C011B8E0BA95F1F7000088E50E948D11B0
:1023E000882309F458C0AE014F5F5F4F8E01005F34
:1023F0001F4FECEBF0E094EC2BEB30E0908380810E
:102400008823ECF7D9018C91DA018D93AD01A017E7
:10241000B107A1F784E88093BC00ECEBF0E0808189
:102420008823ECF78091BB00888B0E94C011DE01ED
:1024300014966E2D7F2D4C91242F2073CD01029781
:10244000FC01808190E0F0E12F9F800D911D11240F
:10245000FB0191838083842F807C90E0880F991FFB
:10246000880F991F9D0121503109F9012081820FA8
:10247000911DFB01938382834F70448315821396D1
:102480006A5F7F4F0A171B07B1F681E005C080E045
:1024900003C080E001C080E060960FB6F894DEBF14
:1024A0000FBECDBFDF91CF911F910F91FF90EF90A5
:1024B00008950E94130888E50E94A711882309F453
:1024C000C7C080E30E947E11882309F4C3C081E065
:1024D0000E947E11882309F4BFC00E94C01183ECC2
:1024E00099E00197F1F700C0000088E50E94A7116C
:1024F000882309F4B3C080E00E947E11882309F488
:10250000AFC080E00E947E11882309F4ABC080E058
:102510000E947E11882309F4A7C080E00E947E11EA
:10252000882309F4A3C080E00E947E11882309F467
:102530009FC080E00E947E11882309F49BC080E048
:102540000E947E11882309F497C080E90E947E11C1
:10255000882309F493C00E94C01183EC99E001978D
:10256000F1F700C0000088E50E94A711882309F454
:1025700087C087E00E947E11882309F483C080E031
:102580000E947E11882309F47FC081E40E947E119D
:10259000882309F47BC00E94C01183EC99E0019765
:1025A000F1F700C0000088E50E94A711882309F414
:1025B0006FC08AE10E947E11882309F46BC080E419
:1025C0000E947E11882309F467C080E00E947E117A
:1025D000882309F463C00E94C01183EC99E001973D
:1025E000F1F700C0000088E50E94A711882309F4D4
:1025F00057C083E30E947E11882309F453C083E00F
:102600000E947E11882309F44FC00E94C01183EC00
:1026100099E00197F1F700C0000088E50E94A7113A
:10262000882309F443C080E30E947E11882309F4C3
:102630003FC088E00E947E118823E1F10E94C01112
:1026400083EC99E00197F1F700C0000081E0089564
:1026500080E0089580E0089580E0089580E0089586
:1026600080E0089580E0089580E0089580E0089576
:1026700080E0089580E0089580E0089580E0089566
:1026800080E0089580E0089580E0089580E0089556
:1026900080E0089580E0089580E0089580E0089546
:1026A00080E0089580E0089580E0089580E0089536
:1026B00080E0089580E008955058BB27AA270ED0E7
:1026C00058C221D230F026D220F031F49F3F11F4CD
:1026D0001EF4F1C10EF4E095E7FBE7C1E92F6BD2E0
:1026E00080F3BA17620773078407950718F071F42F
:1026F0009EF583C20EF4E0950B2EBA2FA02D0B0190
:10270000B90190010C01CA01A0011124FF27591B36
:1027100099F0593F50F4503E68F11A16F040A22F3C
:10272000232F342F4427585FF3CF469537952795AD
:10273000A795F0405395C9F77EF41F16BA0B620BAC
:10274000730B840BBAF09150A1F0FF0FBB1F661FF3
:10275000771F881FC2F70EC0BA0F621F731F841F36
:1027600048F4879577956795B795F7959E3F08F05C
:10277000B3CF9395880F08F09927EE0F979587951B
:102780000895C1D158F080E891E009F49EEFC2D1DC
:1027900028F040E851E059F45EEF09C08CC12DC229
:1027A000E92FE07808D268F3092E052AC1F326172D
:1027B00037074807590738F00E2E07F8E02569F06B
:1027C000E025E0640AC0EF6307F8009407FADB0134
:1027D000B9019D01DC01CA01AD01EF934AD0C9D115
:1027E0000AD05F91552331F02BED3FE049E450FDD5
:1027F00049EC63CF0895DF93DD27B92FBF7740E819
:102800005FE31616170648075B0710F4D92F00D2AE
:102810009F938F937F936F935BD3ECEAF0E04ED15D
:10282000A8D12F913F914F915F91B3D2DD2349F011
:102830009058A2EA2AED3FE049EC5FE3D0785D27AB
:102840004DDFDF9196C10DD108F481E008956AD182
:10285000E395A0C10CD08DC15DD140F054D130F0D2
:1028600021F45F3F19F021C15111C8C124C1A3D186
:1028700098F39923C9F35523B1F3951B550BBB2747
:10288000AA2762177307840738F09F5F5F4F220FF4
:10289000331F441FAA1FA9F333D00E2E3AF0E0E8ED
:1028A00030D091505040E695001CCAF729D0FE2F39
:1028B00027D0660F771F881FBB1F261737074807CB
:1028C000AB07B0E809F0BB0B802DBF01FF27935881
:1028D0005F4F2AF09E3F510568F0E7C08FC15F3F10
:1028E000ECF3983EDCF3869577956795B795F79569
:1028F0009F5FC9F7880F911D9695879597F9089561
:10290000E1E0660F771F881FBB1F621773078407FC
:10291000BA0720F0621B730B840BBA0BEE1F88F70B
:10292000E095089519F40EF0C0C067C1C4C04BD142
:10293000C8F39638C0F707F80F92E8942BE33AEA09
:1029400048EB5FE728D20F920F920F924DB75EB718
:102950000F92E0D1E9EDF0E0B1D04F915F91EF91AE
:10296000FF91E595EE1FFF1F49F0FE57E0684427F1
:10297000EE0F441FFA95E1F74195550B52D10F9098
:1029800007FE46C1089504D06894B11137C1089577
:102990001AD188F09F5790F0B92F9927B751A0F01E
:1029A000D1F0660F771F881F991F1AF0BA95C9F7E3
:1029B00012C0B13081F021D1B1E008951EC1672F5E
:1029C000782F8827B85F39F0B93FCCF38695779593
:1029D0006795B395D9F73EF490958095709561957C
:1029E0007F4F8F4F9F4F0895E89409C097FB3EF4A7
:1029F00090958095709561957F4F8F4F9F4F99234C
:102A0000A9F0F92F96E9BB279395F69587957795C9
:102A10006795B795F111F8CFFAF4BB0F11F460FF89
:102A20001BC06F5F7F4F8F4F9F4F16C0882311F0E1
:102A300096E911C0772321F09EE8872F762F05C0F5
:102A4000662371F096E8862F70E060E02AF09A9590
:102A5000660F771F881FDAF7880F9695879597F985
:102A60000895990F0008550FAA0BE0E8FEEF16161F
:102A70001706E807F907C0F012161306E407F50772
:102A800098F0621B730B840B950B39F40A2661F0E6
:102A9000232B242B252B21F408950A2609F4A14089
:102AA000A6958FEF811D811D089597F99F6780E896
:102AB00070E060E008959FEF80EC0895DF93CF937E
:102AC0001F930F93FF92EF92DF927B018C0168942A
:102AD00005C0DA2EEF015DD1FE01E894A5912591A4
:102AE000359145915591AEF3EF01F8DDFE01970167
:102AF000A801DA9479F7DF90EF90FF900F911F9182
:102B0000CF91DF91089500240A941616170618062F
:102B10000906089500240A941216130614060506E1
:102B20000895C9CF50D0E8F3E894E0E0BB279F5761
:102B3000F0F02AED3FE049EC06C0EE0FBB0F661F38
:102B4000771F881F28F0B23A62077307840728F0BE
:102B5000B25A620B730B840BE3959A9572F7803827
:102B600030F49A95BB0F661F771F881FD2F79048E5
:102B7000B4C1092E0394000C11F4882352F0BB0F4A
:102B800040F4BF2B11F460FF04C06F5F7F4F8F4F85
:102B90009F4F0895EF93E0FF06C0A2EA2AED3FE0C1
:102BA00049EC5FEB9BDDE5DF0F90039401FC90584F
:102BB000E1E0F1E0A5C157FD9058440F551F59F0D1
:102BC0005F3F71F04795880F97FB991F61F09F3F1A
:102BD00079F087950895121613061406551FF2CF43
:102BE0004695F1DF08C0161617061806991FF1CF93
:102BF00086957105610508940895E894BB276627BA
:102C00007727CB0197F908952CDF08F48FEF08950B
:102C10009B01AC0160E070E080E89FE31BCE45CFF4
:102C20005AC1D1DFE8F39923D9F3940F511DBBF3B7
:102C30009150504094F059F0882332F0660F771F7E
:102C4000881F91505040C1F79E3F510544F7880FAF
:102C5000911D9695879597F908955F3FACF0983E42
:102C60009CF0BB27869577956795B79508F4B1607A
:102C70009395C1F7BB0F58F711F460FFE8CF6F5F72
:102C80007F4F8F4F9F4FE3CFB9CF0EF024C113CFAB
:102C900068940BCF98DFC8F39923D1F3C6F3DF9381
:102CA000CF931F930F93FF92C92FDD2788232AF01C
:102CB0002197660F771F881FDAF720E030E040E8A1
:102CC0005FEB9FE3883920F0803E30F021968F77CC
:102CD000F4DCEFE1F1E003C0F0DCECE4F1E0EEDE87
:102CE0008B01BE01EC01FB2E6F5771097595771FA3
:102CF000880B990B7BDE28E132E741E35FE349D0A3
:102D0000AF2D9801AE01FF900F911F91CF91DF91F0
:102D1000E5DC2FCFFA01DC01AA0FBB1F9B01AC0140
:102D2000BF5728F422273327442750781FC0B751B4
:102D300088F4AB2F0024469537952795011CA39561
:102D4000D2F3002069F0220F331F441FB395DAF34A
:102D50000DD0B2CC61307105A0E88A07B94630F4D5
:102D60009B01AC016627772788279078309621F061
:102D7000208331834283538308950BD0FACEC3DE80
:102D800028F0C8DE18F0952309F08FCE94CE1124D8
:102D900035CF11DFA0F3959FD1F3950F50E0551F6C
:102DA000629FF001729FBB27F00DB11D639FAA27A0
:102DB000F00DB11DAA1F649F6627B00DA11D661FEF
:102DC000829F2227B00DA11D621F739FB00DA11D10
:102DD000621F839FA00D611D221F749F3327A00DCA
:102DE000611D231F849F600D211D822F762F6A2F66
:102DF00011249F5750408AF0E1F088234AF0EE0FEB
:102E0000FF1FBB1F661F771F881F91505040A9F7F7
:102E10009E3F510570F049CEF1CE5F3FECF3983EF6
:102E2000DCF3869577956795B795F795E7959F5F5E
:102E3000C1F7FE2B880F911D9695879597F90895F8
:102E40009F9370DE0F9007FCEE5FA4CE11F40EF49A
:102E500032CE41C0B8DED0F39923D9F3CEF39F57D9
:102E6000550B87FF46D00024A0E640EA9001805829
:102E70005695979528F4805C660F771F881F20F081
:102E800026173707480730F4621B730B840B202981
:102E900031294A2BA69517940794202531254A27D6
:102EA00058F7660F771F881F20F026173707480747
:102EB00030F4620B730B840B200D311D411DA09566
:102EC00081F7B901842F9158880F969587950895B9
:102ED0009B01AC0152CF9F3F31F0915020F4879578
:102EE00077956795B795880F911D9695879597F972
:102EF000089591505040660F771F881FD2F70895AC
:102F00009F938F937F936F93FF93EF939B01AC01FC
:102F100034DFEF91FF91D2DD2F913F914F915F917F
:102F20002CCF97FB072E16F4009407D077FD09D01D
:102F30000E94A51707FC05D03EF4909581959F4F00
:102F40000895709561957F4F0895AA1BBB1B51E1B1
:102F500007C0AA1FBB1FA617B70710F0A61BB70B09
:102F6000881F991F5A95A9F780959095BC01CD01AE
:102F70000895FB019F01E8944230C4F04532B4F457
:102F80004A3029F497FB1EF4909581959F4F642F4A
:102F900077270E94A517805D8A330CF0895D8193A5
:102FA000CB010097A1F716F45DE251931082C9019D
:102FB0000C94DA17DC01FC01672F71917723E1F79C
:102FC000329704C07C916D9370836291AE17BF07F6
:082FD000C8F30895F894FFCF47
:102FD8000000003F00C07F440000BD4300C0FF4325
:082FE80000E1000000000800F8
:00000001FF
