S01100004C6F63616C546573742E7372656388
S11300000C94E9000C9406010C9406010C947807F6
S11300100C9406010C9406010C9406010C94060140
S11300200C9406010C9406010C943C0F0C947A0F6A
S11300300C9406010C9406010C9406010C94060120
S11300400C9406010C9406010C9406010C94060110
S11300500C9406010C9406010C9406010C94060100
S11300600C9406010C9406010C9406010C940601F0
S11300700C9406010C94AA070C9406010C94060136
S11300800C9406010C9406010C9406010C940601D0
S11300900C9406010C9406010C9406010C940601C0
S11300A00C9406010C9406010C940601084AD73BF3
S11300B03BCE016E84BCBFFDC12F3D6C74319ABD33
S11300C056833DDA3D00C77F11BED9E4BB4C3E9157
S11300D06BAAAABE000000803F07634236B79BD8D4
S11300E0A71A39685618AEBAAB558C1D3CB7CC5715
S11300F063BD6DEDFD753EF6177231BF00000080E3
S11301003F05A84CCDB2D44EB93836A9020C50B92B
S1130110918688083CA6AAAA2ABE000000803F0057
S113012001000053011200020000650143000300B6
S113013000A8010401030904AC011202030904C06C
S1130140010603030904C801080001C11201803635
S11301500181361201000202000010C0167A040068
S1130160010102030109024300020100C032090433
S11301700000010202010005240010010524010110
S11301800104240206052406000107058203100069
S11301904009040100020A000000070503024000B0
S11301A000070584024000000403090412034A0006
S11301B02E0020004600690065006E006500000006
S11301C006034D0032000000080334003100300003
S11301D0000011241FBECFEFDAE0DEBFCDBF11E077
S11301E0A0E0B1E0E6EEFEE202C005900D92A4317B
S11301F0B107D9F721E0A4E1B1E001C01D92AB3C05
S1130200B207E1F70E9414060C9471170C940000D5
S11302108330910509F445C03CF481309105F9F02F
S11302207CF5892B59F008958530910509F45BC05C
S11302300CF448C0069709F077C066C0EBE7F0E01D
S113024080818F7D8083ECE7F0E080818B7F8083E9
S113025080818D7F808380818E7F80830895EBE70A
S1130260F0E080818F7D8083ECE7F0E080818B7FFC
S1130270808380818D7F80838081816080830895E5
S1130280EBE7F0E080818F7D8083ECE7F0E0808114
S11302908460808380818D7F808380818E7F808352
S11302A00895EBE7F0E080818F7D8083ECE7F0E058
S11302B080818460808380818D7F80838081816060
S11302C080830895EBE7F0E080818F7D8083ECE705
S11302D0F0E080818460808380818260808380817B
S11302E08E7F80830895EBE7F0E0808180628083D5
S11302F0ECE7F0E080818B7F808380818D7F808339
S113030080818E7F80830895EBE7F0E080818062B6
S11303108083ECE7F0E080818B7F808380818D7F18
S113032080838081816080830895809114019091FD
S11303301501892B09F455C0809132019091330144
S11303408330910559F13CF481309105A9F0ECF426
S1130350892B49F046C08530910591F144F1069707
S113036009F03FC036C08091780090917900909355
S113037023018093220135C0809178009091790007
S113038090932101809320012CC08091780090915A
S1130390790090931F0180931E0123C080917800FF
S11303A09091790090931D0180931C011AC0809153
S11303B078009091790090931B0180931A0111C0E9
S11303C0809178009091790090931901809318019D
S11303D008C08091780090917900909317018093E0
S11303E01601EAE7F0E080818F77808380818F7B3C
S11303F0808380818F7D808380818F7E80838091C4
S11304003201909133018730910558F4019667E0E9
S113041070E00E94181780933201909333010E9478
S11304200801EAE7F0E0808180628083808180684F
S11304308083808180648083808180618083109246
S1130440150110921401809122019091230190933F
S113045025018093240180912001909121019093A2
S113046027018093260180911E0190911F01909392
S113047029018093280180911C0190911D01909382
S11304802B0180932A0180911A0190911B01909372
S11304902D0180932C018091180190911901909362
S11304A02F0180932E018091160190911701909352
S11304B03101809330010895879A6E9A76986A9AEA
S11304C072980E94810E0E949A0E8823E1F36E9A1C
S11304D0769A6A9A729A412C512C32010F2EF4E2C8
S11304E0EF2EF1E0FF2EF02D00E010E00F2EF0E3F0
S11304F0CF2EF1E0DF2EF02D0F2EF6E28F2EF1E05D
S11305009F2EF02D0F2EF8E2AF2EF1E0BF2EF02D2E
S11305100E949501F701C801A801E80121913191D8
S11305204217530714F4A901EC0101968730910591
S1130530A9F7209729F0C630D10509F047C023C098
S1130540F70160817181F60180819181681B790BCB
S1130550882777FD8095982F0E94C214DC01CB0177
S1130560BF77BC01CD01905820E030E048EC53E463
S11305700E94F6130E9463142B013C016A9A72983C
S11305806E9A769A27C0F60160817181F7018081A5
S11305909181681B790B882777FD8095982F0E949D
S11305A0C214DC01CB01BF77BC01CD01905820E01F
S11305B030E048EC53E40E94F6130E9463142B01CC
S11305C03C016A9A729A6E9A769804C06A9A7298F2
S11305D06E9A76980E94BB0E8823E1F30E949D0ECA
S11305E0382E0E94CA0E81B3805881BBF1E03F12BD
S11305F051C0F701808191810E94021189E00E941B
S1130600E00EF401808191810E94021189E00E9430
S1130610E00EF501808191810E94021189E00E941F
S1130620E00EEAE2F1E0808191810E94021189E00A
S11306300E94E00EECE2F1E0808191810E940211BF
S113064089E00E94E00EEEE2F1E0808191810E9457
S1130650021189E00E94E00EF601808191810E94DE
S1130660021189E00E94E00ECE010E94021189E08D
S11306700E94E00E20E030E048EC52E4C301B201F5
S11306800E9444160E948F14CB010E94021189E03B
S11306900E94E00E8AE00E94E00E3ACF8F929F9271
S11306A0AF92BF92CF92DF92EF92FF920F931F937C
S11306B0CF93DF936A017B01480159012A9A2B9A4F
S11306C08130910581F5609196007091970080E0EA
S11306D090E00E94C014A70196010E9444160E9453
S11306E094147093990060939800C0918800D091FD
S11306F08900A7019601C501B4010E9444166B014B
S11307007C01BE0180E090E00E94C0149B01AC011A
S1130710C701B6010E9444160E94941470938B0082
S113072060938A0031C0892B79F5C0919600D091ED
S113073097009A01AB01C501B4010E9444164B0114
S11307405C01BE0180E090E00E94C0149B01AC01FA
S1130750C501B4010E9444160E9494147093990038
S113076060939800609188007091890080E090E027
S11307700E94C014A70196010E9444160E9494147A
S113078070938B0060938A00DF91CF911F910F913A
S1130790FF90EF90DF90CF90BF90AF909F908F909D
S11307A00895809188009091890090938B008093A4
S11307B08A0080919600909197009093990080937D
S11307C098002A982B98089510928B0010928A0012
S11307D010929900109298006E9A7698879A6A9A65
S11307E0729A6E9A769AC4E2D1E000E010E00E9418
S11307F09501FE01C801A801B80121913191421768
S1130800530714F4A901BC01019687309105A9F797
S11308106115710521F06630710559F405C06A9AB5
S113082072986E9A769A09C06A9A729A6E9A7698B3
S113083004C06E9A76986A9A729881B3805881BB84
S1130840D6CF2F923F924F925F926F927F928F9268
S11308509F92AF92BF92CF92DF92EF92FF920F934B
S11308601F93CF93DF93CDB7DEB72D970FB6F894D0
S1130870DEBF0FBECDBF2C014B016A9A729885EA88
S113088091E00E94940AC201AA2797FDA095BA2F6D
S11308908E839F83A887B987C401AA2797FDA09553
S11308A0BA2F8A879B87AC87BD8785EA91E00E942F
S11308B0940A6E817F81888599850E94C214209153
S11308C0A5013091A6014091A7015091A8010E9471
S11308D02813062F172F282E392E6A857B858C85A1
S11308E09D850E94C214A9EAB1E02D913D914D91DC
S11308F05C910E942813862E972EA82EB92E202FA5
S1130900312F422D532D682D792D8A2D9B2D0E9438
S11309109C132B013C0120E030E044EB52E4EDEA6F
S1130920F1E060817181828193810E9429136B01BE
S11309307C01F7FAF094F7F8F09420E030E044E317
S113094053E4C301B2010E94441623EC35EF48E49A
S113095050E40E94F6139B01AC01C701B6010E944A
S113096028130E948F14CB018C579C4F68E671E0CA
S11309700E941817BC01645B7109882777FD809574
S1130980982F0E94C214E62ED72E462F572F682F79
S1130990792F49835A836B837C83FF24F39420E06B
S11309A030E0A9016E2D7D2D0E94D01518160CF093
S11309B0F12CF1E0FF25FD8389819A81AB81BC8113
S11309C0BF77BC01CD01905820E030E040EF51E406
S11309D00E94F6130E9463146B017C01282D392DAB
S11309E04A2D5B2D682D792D8A2D9B2D0E9444164E
S11309F04B015C01202F312F422D532D602F712F7D
S1130A00822D932D0E9444169B01AC01C501B401B3
S1130A100E9429130E94B1160E948F14882777FD23
S1130A208095982F0E94C214A62EB72E082F192F36
S1130A3020E030E04CE852E40E94F613262E372ED4
S1130A40882E992E462E572E682E792E0E949D0EA2
S1130A5080939A010E94CA0E80919A01813009F014
S1130A6050C089819A81AB81BC81E1EBF1E0808344
S1130A709183A283B38320E030E048EC52E4C701C1
S1130A80B6010E944416A5EBB1E06D937D938D935E
S1130A909C9313978A2D9B2DA02FB12FE9EBF1E0A6
S1130AA080839183A283B38320E030E048EC52E456
S1130AB0622D732D882D992D0E944416ADEBB1E063
S1130AC06D937D938D939C931397E5EAF1E0FA83FC
S1130AD0E983A981BA816D917D918D919D91BA83AC
S1130AE0A9830E948F14CB010E94021189E00E9405
S1130AF0E00EE981FA81E15CF14059F78AE00E9455
S1130B00E00E20E030E040E05FE3622D732D882D9D
S1130B10992D0E94D01518163CF4412C512C612CAF
S1130B200F2EFFE37F2EF02D20E030E040E251E471
S1130B306A2D7B2D802F912F0E94EF1388237CF048
S1130B408091360181111BC097018601442D552DDA
S1130B50662D772D8D8190E00E944E03A6CE6E9A6D
S1130B6076980E94D10310928B0010928A00109202
S1130B7099001092980010923501109234012D962C
S1130B800FB6F894DEBF0FBECDBFDF91CF911F919A
S1130B900F91FF90EF90DF90CF90BF90AF909F9018
S1130BA08F907F906F905F904F903F902F9008951B
S1130BB060E070E083E790E00E942104089560E023
S1130BC070E08DE89FEF0E94210408952F9A2FEF83
S1130BD081EE94E0215080409040E1F700C0000095
S1130BE02F98089510928B0010928A001092990009
S1130BF01092980008955D9A2FEF89E698E12150AC
S1130C0080409040E1F700C000005D982FEF89E636
S1130C1098E1215080409040E1F700C0000010921C
S1130C203501109234010895559A0E94C0074AE094
S1130C3068E081E00E94CA0DE1E6F0E080E880838C
S1130C40108285BF85BF85B5886085BD84B5826007
S1130C5084BD84B5826084BD84B5806284BD84B55E
S1130C608F7E84BD85B5846085BD85B5826085BD74
S1130C7085B5816085BD279A8FEF87BD18BCE1E8F3
S1130C80F0E0808180618083808188608083A0E837
S1130C90B0E08C9182608C938C9181608C938C9168
S1130CA080628C938C918F7E8C9380818B7F8083E8
S1130CB080818D7F8083808181608083269A8FEFFD
S1130CC09FEF909389008093880010928B0010927C
S1130CD08A00E1E9F0E020812061208320812860FE
S1130CE02083A0E9B0E02C9122602C932C912E7FDC
S1130CF02C932C9120682C932C912F7B2C93208166
S1130D002B7F208320812D7F2083208121602083DD
S1130D1090939700809396001092990010929800F7
S1130D20279A269A3E9A229A239A7894CAE7D0E080
S1130D30888188608883ECE7F0E080818F77808306
S1130D4080818F7B808388818460888388818260AE
S1130D508883888181608883EEE7F0E08081816008
S1130D6080838081826080838081806180838081B0
S1130D7080628083808180648083EDE7F0E08081FD
S1130D80816080838081826080838881806288839F
S1130D9080E090E00E9408018881806888838881CF
S1130DA0806488838881806188832098219828982A
S1130DB0299882E090E090933501809334010E9459
S1130DC025120E94810E0F2EF8E8AF2EB12CF02DC3
S1130DD00F2EFAE8CF2ED12CF02D0F2EF6E9EF2EA0
S1130DE0F12CF02D08E910E0C4E2D1E010923601B4
S1130DF00E949501809134019091350184309105D0
S1130E0009F450C08CF4009709F444C044F48E3FB4
S1130E102FEF920719F1019609F067C02CC08230B8
S1130E209105D9F1E4F5E2CF813A910509F443C083
S1130E3064F48634910509F456C0803A9105C1F1F1
S1130E408534910509F051C03FC0833A9105C9F139
S1130E50ACF1843A910509F048C027C00E9495017D
S1130E6088819981853F91401CF06A9A7298BECF1F
S1130E706A9A729ABBCF199B03C06A9A7298B6CFCA
S1130E80189B03C06E9A7698B1CF6E9A769A6A9A36
S1130E90729AACCF0E94F205A9CF0E94E4030E948B
S1130EA0D805A4CF0E94E605A1CF0E94F2059ECFEB
S1130EB00E94FB059BCF0E94D80598CF0E94D805BD
S1130EC095CF0E94DF0592CF2A9A2B9AF501808153
S1130ED09181F60191838083F70180819181F801EA
S1130EE09183808383CF0E945C020E94F2057ECFAF
S1130EF01F920F920FB60F9211242F933F934F938B
S1130F005F936F937F938F939F93AF93BF93EF936D
S1130F10FF93F8946AE08BE991E00E94200E7894A4
S1130F2080919B01809334011092350181E080937C
S1130F303601FF91EF91BF91AF919F918F917F9176
S1130F406F915F914F913F912F910F900FBE0F9032
S1130F501F9018951F920F920FB60F9211248F9322
S1130F609F93F89481E090E090931501809314018D
S1130F7078949F918F910F900FBE0F901F901895AA
S1130F80589A599A5A9A8CE08093B800E9E6F0E0AE
S1130F9080818062808380818F7E8083EA9A7894C6
S1130FA008950F931F93CF93DF938C01EB018DE78B
S1130FB091E00E94901180917D0190917E01F80151
S1130FC091838083809183019091840193838283B0
S1130FD08091890190918A019583848380918F0106
S1130FE0909190019783868380917F0190918001F5
S1130FF09983888380918501909186019B838A835C
S113100080918B0190918C019D838C8380919101BF
S1131010909192019F838E8381E0DF91CF911F9104
S11310200F9108952F923F924F925F926F927F9209
S11310308F929F92AF92BF92CF92DF92EF92FF92E4
S11310400F931F93CF93DF93CDB7DEB76C970FB693
S1131050F894DEBF0FBECDBF109245011092460139
S1131060109247011092480180E090E6AAEEB6E49F
S11310708093000190930101A0930201B0930301B6
S11310800F2EF7E5CF2EF1E0DF2EF02D09E511E06C
S11310900F2EFBE5EF2EF1E0FF2EF02D6DE471E055
S11310A085E591E00E94D107809155019091560108
S11310B08F3F934098F7F601808191818F3F934051
S11310C068F7F801808191818F3F934038F7F701E9
S11310D0808191818F3F934008F7809049019090DF
S11310E04A01A0904B01B0904C0120914501298305
S11310F0309146013A83409147014B835091480116
S11311005C8360913F016B8B709140017C8B80917B
S11311103D01898B90913E019A8BE0914101ED8BC9
S1131120F0914201FE8B209143012F8B30914401B9
S1131130388F409100014D83509101015E832090CE
S113114002013090030160913B01698F70913C0171
S11311507A8F8091390190913A01988B8F87188604
S11311601F82C12CD12CB9C0EB8DFC8DE415F50583
S113117009F49CC0E985FA856081718180E090E082
S11311800E94C0146B017C01F3016081718180E0D5
S113119090E00E94C0149B01AC01C701B6010E94FB
S11311A02813C62ED72EE82EF92EEB85FC856081F8
S11311B0718180E090E00E94C0144B015C01F80151
S11311C06081718180E090E00E94C0149B01AC01B9
S11311D0C501B4010E942813862E972EA82EB92E7D
S11311E02C2D3D2D4E2D5F2D6C2D7D2D8E2D9F2D67
S11311F00E9444166B017C01282D392D4A2D5B2D4C
S1131200682D792D8A2D9B2D0E9444169B01AC01DB
S1131210C701B6010E9429130E94B116862E972E8B
S1131220A82EB92E79816A819B818C81272F362F34
S1131230492F582F682D792D8A2D9B2D0E94D0156A
S11312401816D4F420E030E040E05FE3682D792DF7
S11312508A2D9B2D0E9444166D8B7E8B8F8B988FCD
S1131260FB8DF98B2C8D2A8B3D853B8B4E854C8BCE
S113127089829A82AB82BC827D816E81272F362F30
S1131280422D532D682D792D8A2D9B2D0E94EF130D
S1131290882364F46B8D7C8D788B6F877D85798F43
S11312A08E858A8F8D829E822A2C3B2C92E0690E39
S11312B0711C0E5F1F4FEB8DFC8D3196FC8FEB8FF5
S11312C0349709F051CF2F8138852F5F3F4F3887EE
S11312D02F8369012430310539F134E0C316D10478
S11312E094F786010F5F1F4F000F111F0F2EF5E5B6
S11312F0EF2EF1E0FF2EF02DE00EF11E035B1E4FEA
S1131300C601880F991FAC014B5A5E4F5A87498713
S1131310BC01635B7E4F7C876B87CD86DE86DC8E6B
S1131320CB8E26013701C7CF882D992DAA2DBB2D31
S11313308093490190934A01A0934B01B0934C01CF
S113134059814A813B812C81852F942FA32FB22F61
S11313508093450190934601A0934701B0934801BF
S11313607B8970933F018C89809340019989909384
S11313703D01EA89E0933E015D894E893F89288DCC
S1131380852F942FA32FB22F809341019093420174
S1131390A0934301B09344015D814E81852F942F26
S11313A0A22DB32D8093000190930101A09302011B
S11313B0B0930301F98DF0933B012A8D20933C01F6
S11313C03F8530933901488940933A0180913F0128
S11313D09091400120913B0130913C018217930789
S11313E019F590937C0180937B0140913D015091CC
S11313F03E0150937A014093790120913901309153
S11314003A01309376012093750169E070E0FB01A5
S1131410E81BF90BCF01841B950B821B930B909354
S113142078018093770166C04F85588984179507A2
S1131430F9F490937C0180937B0140913D0150919C
S11314403E0150937A0140937901309376012093C1
S1131450750169E070E0FB01E81BF90BCF01841B07
S1131460950B821B930B909378018093770142C074
S113147040913D0150913E012417350701F5309309
S11314807C0120937B0190937A01809379014F85AD
S11314905889509376014093750149E050E0BA01B0
S11314A0621B730BFB01E81BF90BCF012F853889F5
S11314B0821B930B90937801809377011BC0509308
S11314C07C0140937B0190937A018093790130935E
S11314D076012093750169E070E0FB01E41BF50BD4
S11314E0BF01681B790BCB01821B930B909378018E
S11314F08093770181E06C960FB6F894DEBF0FBE3F
S1131500CDBFDF91CF911F910F91FF90EF90DF90AE
S1131510CF90BF90AF909F908F907F906F905F908F
S11315204F903F902F9008952F923F924F925F9249
S11315306F927F928F929F92AF92BF92CF92DF92DF
S1131540EF92FF920F931F93CF93DF93CDB7DEB744
S11315502D970FB6F894DEBF0FBECDBF8C0110924D
S11315603801109237010E941208E0907B01F0903C
S11315707C01F701EE0FFF1FEB5AFE4F20813181F2
S11315803A8329832F3F83E0380708F0EAC2A0900A
S11315907901B0907A01F501EE0FFF1FEB5AFE4F6F
S11315A0C080D1809FEFC91693E0D90608F0D9C254
S11315B0B9016C0D7D1D80E090E00E94C01420E014
S11315C030E040E05FE30E9444162091080130912E
S11315D0090140910A0150910B010E9428136D8367
S11315E07E838F839887F701EE0FFF1FE35BFE4F27
S11315F0E080F180F501EE0FFF1FE35BFE4FA0805A
S1131600B180B5016E0D7F1D80E090E00E94C01492
S113161020E030E040E05FE30E94441620910401A2
S11316203091050140910601509107010E94281351
S113163069877A87282E392EB70180E090E00E94CE
S1131640C0142B013C01B50180E090E00E94C0145D
S11316509B01AC01C301B2010E9428134B015C0140
S1131660E981FA81BF0180E090E00E94C0142B015F
S11316703C01B60180E090E00E94C0149B01AC01E3
S1131680C301B2010E942813A50194010E949C1376
S11316904B015C017D816E819F818885272F362FC8
S11316A0492F582FB985AA856B2F7A2F822D932D18
S11316B00E949C132B013C017D816E819F81888552
S11316C0272F362F492F582F672F732F892F952FA8
S11316D00E9444166B017C0179856A85272F362F79
S11316E0422D532D672F732F822D932D0E94441664
S11316F09B01AC01C701B6010E9429130E94B116D7
S11317006B017C0120E030E0A90160915D017091E2
S11317105E0180915F01909160010E94EF1381113D
S113172008C080925D0190925E01A0925F01B09228
S1131730600123E333E343E75FE360915D0170916C
S11317405E0180915F01909160010E9444164B01FB
S11317505C0120ED3CEC4CE45DE360916901709127
S11317606A0180916B0190916C010E9444169B0167
S1131770AC01C501B4010E94291320E030E044E328
S113178053E40E94441623EC35EF48E450E40E94ED
S1131790F613862E972EA82EB92EF80180869186F0
S11317A0A286B38623EC35EF48E450E40E94441645
S11317B020E030E044E353E40E94F6139B01AC01C3
S11317C062E578EB86E990E40E942813A301920174
S11317D00E942813862E972EA82EB92E0E94A71693
S11317E09B01AC01C701B60190580E94441629E33D
S11317F03EE843EA5EE30E94441669837B878D8753
S11318009C87472F382F292F862F942FA32FB22F51
S11318108093710190937201A0937301B09374014A
S1131820682D792D8A2D9B2D0E94F313A701960113
S11318300E94441629E83AED45E95EE30E94441605
S1131840862E972EA82EB92E862F992DAA2DBB2D24
S113185080936D0190936E01A0936F01B09370011A
S113186020E030E0A90160916501709166018091EA
S11318706701909168010E94EF1381112BC020E051
S113188030E0A9016091610170916201809163016E
S1131890909164010E94EF1381111CC059814B8502
S11318A03D852C85852F942FA32FB22F809365011E
S11318B090936601A0936701B0936801882D992DD8
S11318C0AA2DBB2D8093610190936201A0936301C3
S11318D0B093640123E333E343E75FE3609165017D
S11318E07091660180916701909168010E9444168D
S11318F04B015C0120ED3CEC4CE45DE3B981AB852C
S1131900FD85EC856B2F7A2F8F2F9E2F0E94441616
S11319109B01AC01C501B4010E942913F801608345
S113192071838283938380906D0190906E01A09067
S11319306F01B090700123E333E343E75FE3609109
S113194061017091620180916301909164010E9430
S1131950441669837A838B839C8320ED3CEC4CE4AE
S11319605DE3C501B4010E9444169B01AC01698189
S11319707A818B819C810E942913F8016483758389
S11319808683978380917B0190917C019C01220F37
S1131990331F3A832983F901EB5AFE4F6081718129
S11319A080E090E00E94C014F80164877587868700
S11319B09787E981FA81E35BFE4F6081718180E062
S11319C090E00E94C014F801608B718B828B938B22
S11319D08091790190917A019C01220F331F3A83FF
S11319E02983F901EB5AFE4F6081718180E090E018
S11319F00E94C014F801648B758B868B978BE981E8
S1131A00FA81E35BFE4F6081718180E090E00E9487
S1131A10C014F801608F718F828F938F809175014C
S1131A20909176019C01220F331F3A832983F90197
S1131A30EB5AFE4F6081718180E090E00E94C014F7
S1131A40F801648F758F868F978FE981FA81E35B44
S1131A50FE4F6081718180E090E00E94C014F80123
S1131A6060A371A382A393A38091770190917801DD
S1131A709C01220F331F3A832983F901EB5AFE4F4D
S1131A806081718180E090E00E94C014F80164A339
S1131A9075A386A397A3E981FA81E35BFE4F608176
S1131AA0718180E090E00E94C014F80160A771A7E2
S1131AB082A793A720E030E044E353E4C301B201DA
S1131AC00E94441623EC35EF48E450E40E94F613D8
S1131AD0F80164A775A786A797A75D814E813F810A
S1131AE02885852F942FA32FB22F80AB91ABA2AB67
S1131AF0B3AB59854A85852F942FA22DB32D84AB82
S1131B0095ABA6ABB7ABC0AED1AEE2AEF3AE8091AF
S1131B10710190917201A0917301B091740180934D
S1131B20650190936601A0936701B0936801809268
S1131B30610190926201A0926301B092640180916C
S1131B40690190916A01A0916B01B0916C0180933D
S1131B505D0190935E01A0935F01B093600181E009
S1131B6000C02D960FB6F894DEBF0FBECDBFDF9137
S1131B70CF911F910F91FF90EF90DF90CF90BF9086
S1131B80AF909F908F907F906F905F904F903F9019
S1131B902F9008951F93CF93DF93182FD62FC42F20
S1131BA00E94C00794EA9093BC00ECEBF0E09081B3
S1131BB09923ECF790E59093BB0094E89093BC00D4
S1131BC0ECEBF0E090819923ECF79091B900987FC9
S1131BD0903229F484E98093BC0080E02DC081E038
S1131BE08093BB0084E88093BC00ECEBF0E0908130
S1131BF09923ECF71093BB0084E88093BC00ECEBD2
S1131C00F0E080818823ECF7D093BB0084E88093D4
S1131C10BC00ECEBF0E080818823ECF7C093BB00C0
S1131C2084E88093BC00ECEBF0E080818823ECF73F
S1131C3084E98093BC0081E0DF91CF911F910895E6
S1131C40CF93DF9324EA2093BC00ECEBF0E02081F7
S1131C502223ECF721E52093BB0024E82093BC0069
S1131C60ECEBF0E020812223ECF72091B900287FEF
S1131C70283429F484E98093BC0080E03FC024EC3C
S1131C802093BC00ECEBF0E020812223ECF74091A0
S1131C90BB00461309C050E0415051091416150603
S1131CA044F040E050E018C084E98093BC0080E038
S1131CB025C0DC0120E030E0ECEBF0E074ECCBEB91
S1131CC0D0E0708360816623ECF768816D932F5FA9
S1131CD03F4F24173507ACF324E82093BC00ECEB0A
S1131CE0F0E020812223ECF72091BB00FC01E40FFB
S1131CF0F51F208384E98093BC0081E0DF91CF91BC
S1131D00089581E08093D70080EA8093D80082E12F
S1131D1089BD09B400FEFDCF80E98093D8001092FC
S1131D20E00010929601109297018CE08093E200FB
S1131D30789408958091960108959FB7F8948091BE
S1131D409601811103C09FBF8FEF089583E08093B4
S1131D50E9008091E80085FD03C09FBF8FEF0895DF
S1131D608091F1002091E80025FD03C02BE620932B
S1131D70E8009FBF08959FB7F89480919601882347
S1131D8031F083E08093E9008091F20001C080E0AB
S1131D909FBF089580919601882389F02FB7F89406
S1131DA083E08093E9008091E80085FF07C0E8EEB6
S1131DB0F0E09BE69083808185FDFCCF2FBF0895E2
S1131DC0CF93DF9390919601992309F44DC09FB767
S1131DD0F89424E02093E90020919801222349F00B
S1131DE02091E80025FD03C09FBF8FEF42C01092F1
S1131DF098013091E400375E2091E80025FD25C06C
S1131E009FBF9091E400931749F09091960191112E
S1131E100FC02CC09FBF9881931305C081E08093AD
S1131E2098018FEF26C090919601911108C020C0AF
S1131E30A9EEB0E044E0E8EEF0E0C4EED0E09FB7F5
S1131E40F8944C93208125FFE5CF8093F100809195
S1131E50E80085FD03C08AE38093E80085E0809371
S1131E6095019FBF80E005C08FEF03C08FEF01C0D5
S1131E708FEFDF91CF9108951F920F920FB60F92BB
S1131E8011248F939F93EF93FF93E1EEF0E0808111
S1131E90108283FF11C01092E90091E09093EB004F
S1131EA01092EC0092E19093ED0098E09093F00092
S1131EB0109296011092970182FF13C080919601AF
S1131EC0882379F080919501882359F0815080937B
S1131ED09501811106C084E08093E9008AE3809330
S1131EE0E800FF91EF919F918F910F900FBE0F909B
S1131EF01F9018951F920F920FB60F9211240F93F3
S1131F001F932F933F934F935F936F937F938F937D
S1131F109F93AF93BF93CF93DF93EF93FF9310926D
S1131F20E9008091E80083FF51C1E1EFF0E07081A6
S1131F30408120813081932F80E0DC01A22B9D0120
S1131F4050816081962F80E0852BA081B08152EF73
S1131F505093E800463009F05CC004C081E28093ED
S1131F60EB003BC1C6E04FE151E0FA016591749189
S1131F702617370719F0495F5F4F20C0FA013296E0
S1131F80659174918617970719F0495F5F4F16C0E2
S1131F90FA01349685919491282F392FFA013696B7
S1131FA044919B2F80E08A2B8F3F910519F010F00C
S1131FB08FEF90E0841728F4482F03C0C150A9F68E
S1131FC0CDCFC8EED0E07EEFA1EFB0E010E1888184
S1131FD0982F9570E1F382FD00C1642F413108F020
S1131FE0612F662309F4F6C0C901562FFC0101963E
S1131FF0E491EC935150D1F7862F815090E00196F3
S1132000280F391F461B78834111E1CF6031F9F263
S1132010E4C0453061F48EEF8093E800E8EEF0E030
S1132020808180FFFDCF20682093E300D6C0493033
S1132030A1F571115BC02093960110929701109243
S113204095018EEF8093E80011E089E491E0C9EEF8
S1132050D0E0ABEEB0E06CEE70E04DEE50E01883F3
S11320609C012F5F3F4FFC0104910C93002359F016
S1132070F9012491FB012083FC01329603962491FB
S1132080FA01208301C0C9011F5F153041F7EAEE50
S1132090F0E08EE180831082A0C0483081F4703873
S11320A009F03FC0E8EEF0E0808180FFFDCF809131
S11320B096018093F1008EEF8093E8008EC0413248
S11320C0A9F4713AF1F5E8EEF0E0808180FFFDCFEC
S11320D0ECE0F1E0A1EFB0E081918C9341E0E331D9
S11320E0F407D1F78EEF8093E80077C04032C9F44B
S11320F0713209F06BC0E8EEF0E0808182FFFDCF21
S1132100ECE0F1E0A1EFB0E08C91819351E0E33198
S1132110F507D1F7E8EEF0E08BEF80838EEF808354
S11321205CC0423271F4713209F050C020939701BF
S1132130E8EEF0E0808180FFFDCF8EEF8093E80031
S11321404CC041111AC0E8EEF0E0208120FFFDCF21
S1132150723851F4E9EEF0E080838091EB0085FB66
S1132160882780F9108201C080E0E1EFF0E08083ED
S113217010828EEF8093E80030C0413011F043307C
S113218029F5723019F5232B09F58F779927382F04
S113219031503430D8F43EEF3093E8008093E900B6
S11321A0433021F481E28093EB0017C099E19093CE
S11321B0EB0021E030E0D90102C0AA0FBB1F8A95D1
S11321C0E2F7EAEEF0E0A083108207C081E2809398
S11321D0EB0003C078834111FACEFF91EF91DF91B8
S11321E0CF91BF91AF919F918F917F916F915F91AB
S11321F04F913F912F911F910F910F900FBE0F9010
S11322001F901895EF92FF920F931F93CF93DF9334
S1132210CDB7DEB727970FB6F894DEBF0FBECDBF9C
S11322208E010F5F1F4F27E0F80111922A95E9F7FD
S11322304AE050E0B8010E9440177E01F8E0EF0E3A
S1132240F11CF80181918F0181110E94E00E0E159D
S11322501F05B9F727960FB6F894DEBF0FBECDBFA2
S1132260DF91CF911F910F91FF90EF90089520E09F
S113227030E0ECEBF0E08081882334F02F5F3F4FB7
S1132280293E83E03807B9F781E0283E334009F45A
S113229080E008958093BB0084E88093BC000E9492
S11322A03711882321F08091B900887F089580E058
S11322B00895CF93C82F94EA9093BC000E943711DD
S11322C0882361F08C2F880F8F5F0E944A11883415
S11322D039F484E98093BC0080E003C080E001C04D
S11322E081E0CF910895CF93C82F94EA9093BC00D6
S11322F00E943711882359F08C2F880F0E944A11AD
S1132300803239F484E98093BC0080E003C080E02B
S113231001C081E0CF91089584E98093BC000895C1
S1132320EF92FF920F931F93CF93DF93CDB7DEB756
S113233060970FB6F894DEBF0FBECDBFE82EF92E1E
S1132340FE01319680E1DF011D928A95E9F788E567
S11323500E947311882309F466C086E30E944A111F
S1132360882309F462C00E948C11B8E0BA95F1F791
S1132370000088E50E945911882309F458C0AE0171
S11323804F5F5F4F8E01005F1F4FECEBF0E094EC6A
S11323902BEB30E0908380818823ECF7D9018C917A
S11323A0DA018D93AD01A017B107A1F784E88093FA
S11323B0BC00ECEBF0E080818823ECF78091BB005B
S11323C0888B0E948C11DE0114966E2D7F2D4C910A
S11323D0242F2073CD010297FC01808190E0F0E16D
S11323E02F9F800D911D1124FB0191838083842FE5
S11323F0807C90E0880F991F880F991F9D012150C0
S11324003109F9012081820F911DFB01938382839D
S11324104F704483158213966A5F7F4F0A171B0718
S1132420B1F681E005C080E003C080E001C080E037
S113243060960FB6F894DEBF0FBECDBFDF91CF918B
S11324401F910F91FF90EF9008950E94C00788E5B7
S11324500E947311882309F4C7C080E30E944A11C3
S1132460882309F4C3C081E00E944A11882309F437
S1132470BFC00E948C1183EC99E00197F1F700C072
S1132480000088E50E947311882309F4B3C080E03A
S11324900E944A11882309F4AFC080E00E944A11C7
S11324A0882309F4ABC080E00E944A11882309F410
S11324B0A7C080E00E944A11882309F4A3C080E0E9
S11324C00E944A11882309F49FC080E00E944A11A7
S11324D0882309F49BC080E00E944A11882309F4F0
S11324E097C080E90E944A11882309F493C00E948E
S11324F08C1183EC99E00197F1F700C0000088E5A6
S11325000E947311882309F487C087E00E944A114E
S1132510882309F483C080E00E944A11882309F4C7
S11325207FC081E40E944A11882309F47BC00E9481
S11325308C1183EC99E00197F1F700C0000088E565
S11325400E947311882309F46FC08AE10E944A1122
S1132550882309F46BC080E40E944A11882309F49B
S113256067C080E00E944A11882309F463C00E9476
S11325708C1183EC99E00197F1F700C0000088E525
S11325800E947311882309F457C083E30E944A11FF
S1132590882309F453C083E00E944A11882309F474
S11325A04FC00E948C1183EC99E00197F1F700C0B1
S11325B0000088E50E947311882309F443C080E376
S11325C00E944A11882309F43FC088E00E944A11FE
S11325D08823E1F10E948C1183EC99E00197F1F7D3
S11325E000C0000081E0089580E0089580E008952F
S11325F080E0089580E0089580E0089580E00895E3
S113260080E0089580E0089580E0089580E00895D2
S113261080E0089580E0089580E0089580E00895C2
S113262080E0089580E0089580E0089580E00895B2
S113263080E0089580E0089580E0089580E00895A2
S113264080E0089580E0089580E0089580E0089592
S11326505058BB27AA270ED058C221D230F026D218
S113266020F031F49F3F11F41EF4F1C10EF4E09513
S1132670E7FBE7C1E92F6BD280F3BA176207730750
S11326808407950718F071F49EF583C20EF4E09563
S11326900B2EBA2FA02D0B01B90190010C01CA0118
S11326A0A0011124FF27591B99F0593F50F4503EC3
S11326B068F11A16F040A22F232F342F4427585FB5
S11326C0F3CF469537952795A795F0405395C9F7CD
S11326D07EF41F16BA0B620B730B840BBAF0915085
S11326E0A1F0FF0FBB1F661F771F881FC2F70EC024
S11326F0BA0F621F731F841F48F4879577956795F7
S1132700B795F7959E3F08F0B3CF9395880F08F0DF
S11327109927EE0F979587950895C1D158F080E8D1
S113272091E009F49EEFC2D128F040E851E059F459
S11327305EEF09C08CC12DC2E92FE07808D268F39E
S1132740092E052AC1F3261737074807590738F019
S11327500E2E07F8E02569F0E025E0640AC0EF6377
S113276007F8009407FADB01B9019D01DC01CA01F5
S1132770AD01EF934AD0C9D10AD05F91552331F00E
S11327802BED3FE049E450FD49EC63CF0895DF931E
S1132790DD27B92FBF7740E85FE316161706480711
S11327A05B0710F4D92F00D29F938F937F936F937D
S11327B016D3ECEAF0E04ED1A8D12F913F914F917E
S11327C05F916ED2DD2349F09058A2EA2AED3FE0F2
S11327D049EC5FE3D0785D274DDFDF9196C10DD1E1
S11327E008F481E008956AD1E395A0C10CD08DC1AD
S11327F05DD140F054D130F021F45F3F19F021C194
S11328005111C8C124C1A3D198F39923C9F3552305
S1132810B1F3951B550BBB27AA27621773078407CF
S113282038F09F5F5F4F220F331F441FAA1FA9F385
S113283033D00E2E3AF0E0E830D091505040E69577
S1132840001CCAF729D0FE2F27D0660F771F881FD8
S1132850BB1F261737074807AB07B0E809F0BB0BC7
S1132860802DBF01FF2793585F4F2AF09E3F5105EB
S113287068F0E7C08FC15F3FECF3983EDCF38695C8
S113288077956795B795F7959F5FC9F7880F911D61
S11328909695879597F90895E1E0660F771F881F4D
S11328A0BB1F621773078407BA0720F0621B730B00
S11328B0840BBA0BEE1F88F7E095089519F40EF017
S11328C0C0C067C1C4C04BD1C8F39638C0F707F87D
S11328D00F92E8942BE33AEA48EB5FE7E3D10F92D7
S11328E00F920F924DB75EB70F929BD1E9EDF0E0D6
S11328F0B1D04F915F91EF91FF91E595EE1FFF1FCE
S113290049F0FE57E0684427EE0F441FFA95E1F7BB
S11329104195550B52D10F9007FE46C1089504D03E
S11329206894B11137C108951AD188F09F5790F077
S1132930B92F9927B751A0F0D1F0660F771F881FE0
S1132940991F1AF0BA95C9F712C0B13081F021D19C
S1132950B1E008951EC1672F782F8827B85F39F03A
S1132960B93FCCF3869577956795B395D9F73EF43F
S113297090958095709561957F4F8F4F9F4F0895E7
S1132980E89409C097FB3EF4909580957095619505
S11329907F4F8F4F9F4F9923A9F0F92F96E9BB27BB
S11329A09395F695879577956795B795F111F8CF37
S11329B0FAF4BB0F11F460FF1BC06F5F7F4F8F4FA2
S11329C09F4F16C0882311F096E911C0772321F098
S11329D09EE8872F762F05C0662371F096E8862F30
S11329E070E060E02AF09A95660F771F881FDAF787
S11329F0880F9695879597F90895990F0008550FB4
S1132A00AA0BE0E8FEEF16161706E807F907C0F070
S1132A1012161306E407F50798F0621B730B840B78
S1132A20950B39F40A2661F0232B242B252B21F452
S1132A3008950A2609F4A140A6958FEF811D811DF2
S1132A40089597F99F6780E870E060E008959FEF2C
S1132A5080EC0895DF93CF931F930F93FF92EF922F
S1132A60DF927B018C01689405C0DA2EEF0118D146
S1132A70FE01E894A5912591359145915591AEF3C8
S1132A80EF01F8DDFE019701A801DA9479F7DF90F0
S1132A90EF90FF900F911F91CF91DF910895002443
S1132AA00A941616170618060906089500240A94AF
S1132AB012161306140605060895C9CF50D0E8F37C
S1132AC0E894E0E0BB279F57F0F02AED3FE049ECA3
S1132AD006C0EE0FBB0F661F771F881F28F0B23A9F
S1132AE062077307840728F0B25A620B730B840BD6
S1132AF0E3959A9572F7803830F49A95BB0F661F68
S1132B00771F881FD2F790486FC1092E0394000CD9
S1132B1011F4882352F0BB0F40F4BF2B11F460FF73
S1132B2004C06F5F7F4F8F4F9F4F0895EF93E0FF77
S1132B3006C0A2EA2AED3FE049EC5FEB9BDDE5DF4E
S1132B400F90039401FC9058E1E0F1E060C157FD5F
S1132B509058440F551F59F05F3F71F04795880F07
S1132B6097FB991F61F09F3F79F08795089512169E
S1132B7013061406551FF2CF4695F1DF08C016164A
S1132B8017061806991FF1CF8695710561050894FB
S1132B900895E894BB2766277727CB0197F9089512
S1132BA02CDF08F48FEF08959B01AC0160E070E026
S1132BB080E89FE31BCE45CF15C1D1DFE8F399230D
S1132BC0D9F3940F511DBBF39150504094F059F038
S1132BD0882332F0660F771F881F91505040C1F749
S1132BE09E3F510544F7880F911D9695879597F957
S1132BF008955F3FACF0983E9CF0BB27869577958F
S1132C006795B79508F4B1609395C1F7BB0F58F772
S1132C1011F460FFE8CF6F5F7F4F8F4F9F4FE3CF7B
S1132C20B9CFFA01DC01AA0FBB1F9B01AC01BF574E
S1132C3028F422273327442750781FC0B75188F43B
S1132C40AB2F0024469537952795011CA395D2F305
S1132C50002069F0220F331F441FB395DAF30DD01F
S1132C60F7CC61307105A0E88A07B94630F49B01BE
S1132C70AC016627772788279078309621F0208347
S1132C8031834283538308950BD03FCF08DF28F06C
S1132C900DDF18F0952309F0D4CED9CE11247ACFC4
S1132CA056DFA0F3959FD1F3950F50E0551F629F17
S1132CB0F001729FBB27F00DB11D639FAA27F00D91
S1132CC0B11DAA1F649F6627B00DA11D661F829FB8
S1132CD02227B00DA11D621F739FB00DA11D621F9D
S1132CE0839FA00D611D221F749F3327A00D611DBA
S1132CF0231F849F600D211D822F762F6A2F11249C
S1132D009F5750408AF0E1F088234AF0EE0FFF1FEE
S1132D10BB1F661F771F881F91505040A9F79E3F25
S1132D20510570F08ECE36CF5F3FECF3983EDCF366
S1132D30869577956795B795F795E7959F5FC1F762
S1132D40FE2B880F911D9695879597F908959F936B
S1132D50B5DE0F9007FCEE5FE9CE11F40EF477CEEA
S1132D6041C0FDDED0F39923D9F3CEF39F57550B21
S1132D7087FF46D00024A0E640EA9001805856958B
S1132D80979528F4805C660F771F881F20F026171C
S1132D903707480730F4621B730B840B2029312951
S1132DA04A2BA69517940794202531254A2758F7CE
S1132DB0660F771F881F20F026173707480730F45F
S1132DC0620B730B840B200D311D411DA09581F7FF
S1132DD0B901842F9158880F9695879508959B0182
S1132DE0AC0152CF9F3F31F0915020F487957795F5
S1132DF06795B795880F911D9695879597F90895CE
S1132E0091505040660F771F881FD2F708959F9303
S1132E108F937F936F93FF93EF939B01AC0134DF08
S1132E20EF91FF9117DE2F913F914F915F912CCF3E
S1132E3097FB072E16F4009407D077FD09D00E9463
S1132E402C1707FC05D03EF4909581959F4F08956B
S1132E50709561957F4F0895AA1BBB1B51E107C074
S1132E60AA1FBB1FA617B70710F0A61BB70B881F16
S1132E70991F5A95A9F780959095BC01CD010895A5
S1132E80FB019F01E8944230C4F04532B4F44A3067
S1132E9029F497FB1EF4909581959F4F642F772713
S1132EA00E942C17805D8A330CF0895D8193CB01DD
S1132EB00097A1F716F45DE251931082C9010C94B6
S1132EC06117DC01FC01672F71917723E1F73297D9
S1132ED004C07C916D9370836291AE17BF07C8F3F1
S1092EE00895F894FFCFF1
S1132EE600C07F440000BD4300C0FF4300E1000072
S1072EF600000800CC
S9030000FC
