S01100004C6F63616C546573742E7372656388
S11300000C94E9000C9406010C9406010C94E80489
S11300100C9406010C9406010C9406010C94060140
S11300200C9406010C9406010C94930C0C94D10CC2
S11300300C9406010C9406010C9406010C94060120
S11300400C9406010C9406010C9406010C94060110
S11300500C9406010C9406010C9406010C94060100
S11300600C9406010C9406010C9406010C940601F0
S11300700C9406010C94CC040C9406010C94060117
S11300800C9406010C9406010C9406010C940601D0
S11300900C9406010C9406010C9406010C940601C0
S11300A00C9406010C9406010C940601084AD73BF3
S11300B03BCE016E84BCBFFDC12F3D6C74319ABD33
S11300C056833DDA3D00C77F11BED9E4BB4C3E9157
S11300D06BAAAABE000000803F07634236B79BD8D4
S11300E0A71A39685618AEBAAB558C1D3CB7CC5715
S11300F063BD6DEDFD753EF6177231BF00000080E3
S11301003F05A84CCDB2D44EB93836A9020C50B92B
S1130110918688083CA6AAAA2ABE000000803F0057
S113012001000053011200020000650143000300B6
S113013000A8010401030904AC011202030904C06C
S1130140010603030904C801080001C11201803635
S11301500181361201000202000010C0167A040068
S1130160010102030109024300020100C032090433
S11301700000010202010005240010010524010110
S11301800104240206052406000107058203100069
S11301904009040100020A000000070503024000B0
S11301A000070584024000000403090412034A0006
S11301B02E0020004600690065006E006500000006
S11301C006034D0032000000080334003100300003
S11301D0000011241FBECFEFDAE0DEBFCDBF11E077
S11301E0A0E0B1E0ECEAF9E202C005900D92A4317E
S11301F0B107D9F721E0A4E1B1E001C01D92AC3A06
S1130200B207E1F70E949A030C94D4140C940000F2
S1130210FC0140918800509189009A01A3E9B4E25D
S11302200E948314481B590B56954795840F951FBC
S1130230969587959695879590938B0080938A00E1
S113024040919600509197009A010E948314481B94
S1130250590B56954795840F951F969587959695B6
S113026087959093990080939800309719F42A9A6F
S11302702B980895319711F42A982B9A08958F9208
S11302809F92AF92BF92CF92DF92EF92FF920F9321
S11302901F93CF93DF936A017B01480159012A9A86
S11302A02B9A8130910581F56091960070919700A9
S11302B080E090E00E941712A70196010E949B1310
S11302C00E94EB117093990060939800C09188008C
S11302D0D0918900A7019601C501B4010E949B1326
S11302E06B017C01BE0180E090E00E9417129B012B
S11302F0AC01C701B6010E949B130E94EB117093DD
S11303008B0060938A0031C0892B79F5C0919600E7
S1130310D09197009A01AB01C501B4010E949B13CF
S11303204B015C01BE0180E090E00E9417129B012A
S1130330AC01C501B4010E949B130E94EB117093A0
S1130340990060939800609188007091890080E022
S113035090E00E941712A70196010E949B130E942D
S1130360EB1170938B0060938A00DF91CF911F9102
S11303700F91FF90EF90DF90CF90BF90AF909F9040
S11303808F900895809188009091890090938B00BC
S113039080938A00809196009091970090939900A1
S11303A0809398002A982B980895CF93DF93CDB724
S11303B0DEB760970FB6F894DEBF0FBECDBF2C0139
S11303C04B016A9A72982FEF89E698E12150804098
S11303D09040E1F700C0000086E891E00E94FD072C
S11303E0662457FC6094762CC401AA2797FDA09537
S11303F0BA2F8D879E87AF87B88B86E891E00E94DD
S1130400FD07C301B2010E941912209186013091A7
S1130410870140918801509189010E947F106F8368
S1130420272E89839A836D857E858F8598890E947E
S11304301912AAE8B1E02D913D914D915C910E9471
S11304407F10362E072F182F9B837F8199818A81F5
S1130450272F322D492F582FEB81632D702F812F99
S11304609E2F0E94F3104B015C0120E030E044EB2E
S113047052E4EEE8F1E060817181828193810E940F
S113048080106B017C01F7FAF094F7F8F09420E007
S113049030E044E353E4C501B4010E949B1323EC10
S11304A035EF48E450E40E944D119B01AC01C701B3
S11304B0B6010E947F100E94E611CB018C579C4F1D
S11304C068E671E00E946F14BC01645B71098827BF
S11304D077FD8095982F0E941912862E972EA82EAC
S11304E0B92EFF24F39420E030E0A9010E942713E1
S11304F018160CF0F12CF1E0FF25FC87D501C4019E
S1130500BF77BC01CD01905820E030E040EF51E4CA
S11305100E944D110E94BA116B017C018B81232D25
S1130520302F412F582F632D702F812F952F0E942C
S11305309B136B837C838D839E837F8199818A81C6
S1130540272F322D492F582F672F722D892F952F42
S11305500E949B139B01AC016B817C818D819E81E8
S11305600E9480100E9408140E94E611882777FDDB
S11305708095982F0E94191269837A838B839F83B5
S113058020E030E04CE852E40E944D11262E372E34
S1130590082F192F688779878A879B870E94030C05
S11305A080937B010E94210C80917B01813009F0B2
S11305B050C0A2E9B1E08D929D92AD92BC92139786
S11305C020E030E048EC52E4C701B6010E949B13DE
S11305D0E6E9F1E0608371838283938359814A81E0
S11305E03B812F81852F942FA32FB22FEAE9F1E0CD
S11305F080839183A283B38320E030E048EC52E40B
S1130600622D732D802F912F0E949B13AEE9B1E0D0
S11306106D937D938D939C9313970F2EF6E8AF2ED5
S1130620F1E0BF2EF02DF5016191719181919191CD
S11306305F010E94E611CB010E94590E89E00E94DD
S1130640370CF2EAAF16F1E0BF0669F78AE00E94C0
S1130650370C20E030E040E05FE3622D732D802F03
S1130660912F0E94271318162CF4188619861A86BF
S11306702FE32B8720E030E040EA50E4B981AA81DF
S11306801B810F816B2F7A2F812F902F0E9446118F
S113069088237CF097018601F885E9859A858B8506
S11306A04F2F5E2F692F782F8C8590E00E943F0199
S11306B0A4CE0E94C20110928B0010928A00109264
S11306C0990010929800FFCF60E070E08EE190E016
S11306D00E94D5012F9A2FEF81EE94E021508040A3
S11306E09040E1F700C000002F98089510928B000D
S11306F010928A0010929900109298002A982B98D0
S113070008955D9A2FEF89E698E12150804090404A
S1130710E1F700C000005D982FEF89E698E12150D1
S113072080409040E1F700C0000010921501109243
S113073014010895559A0E941D054AE068E081E07D
S11307400E94330BE1E6F0E080E88083108285B5F7
S1130750886085BD84B5826084BD84B5826084BDB3
S113076084B5806284BD84B58F7E84BD85B5846084
S113077085BD85B5826085BD85B5816085BD279AB7
S11307808FEF87BD18BCE1E8F0E080818061808351
S1130790808188608083A0E8B0E08C9182608C9333
S11307A08C9181608C938C9180628C938C918F7EE0
S11307B08C9380818B7F808380818D7F80838081F7
S11307C081608083269A8FEF9FEF909389008093B6
S11307D0880010928B0010928A00E1E9F0E02081F9
S11307E020612083208128602083A0E9B0E02C913F
S11307F022602C932C912E7F2C932C9120682C9387
S11308002C912F7B2C9320812B7F208320812D7F83
S11308102083208121602083909397008093960009
S11308201092990010929800279A269A3E9A229A3A
S1130830239A7894EAE7F0E0808188608083ACE7CB
S1130840B0E08C918F778C938C918F7B8C9380818B
S113085084608083808182608083808181608083E2
S1130860AEE7B0E08C9181608C938C9182608C9324
S11308708C9180618C938C9180628C938C91806438
S11308808C93ADE7B0E08C9181608C938C91826005
S11308908C938081806280838081806180832098B2
S11308A021982898299810921501109214010E94F9
S11308B07C0F0E94EA0B0E94F1070AE810E0C8E9E5
S11308C0D0E0809114019091150183309105E1F1FC
S11308D03CF4009779F1CCF7039609F056C012C0A6
S11308E0803A910509F444C024F4049709F04DC0FA
S11308F031C0813A910509F442C0843A910509F066
S113090044C02FC01092170110921601199B05C004
S113091081E090E00E940801D4CF189B05C080E0DC
S113092090E00E940801CDCFF80111821082198253
S11309301882C7CF109217011092160160E070E080
S11309408CE99FEF0E94D5011092170110921601B5
S11309500E94640310921701109216010E946A0308
S1130960B0CF10921701109216010E947603A9CFFE
S113097010921701109216010E948103A2CF1092C7
S11309801701109216010E9464031092170110922D
S113099016010E94760395CF1F920F920FB60F9205
S11309A011242F938F939F938091780090917900D5
S11309B0853F914018F06A9A729802C06A9A729AB6
S11309C09F918F912F910F900FBE0F901F901895AC
S11309D01F920F920FB60F9211242F933F934F93B0
S11309E05F936F937F938F939F93AF93BF93EF9393
S11309F0FF93F8946AE08CE791E00E94890B789465
S1130A0080917C01809314011092150181E090E0A3
S1130A109093170180931601FF91EF91BF91AF91CD
S1130A209F918F917F916F915F914F913F912F9102
S1130A300F900FBE0F901F901895589A599A5A9A72
S1130A408CE08093B800E9E6F0E0808180628083E6
S1130A5080818F7E8083EA9A789408950F931F9300
S1130A60CF93DF938C01EB018EE591E00E94E70EBA
S1130A7080915E0190915F01F80191838083809160
S1130A806401909165019383828380916A019091BE
S1130A906B01958384838091700190917101978398
S1130AA0868380916001909161019983888380910C
S1130AB06601909167019B838A8380916C01909178
S1130AC06D019D838C8380917201909173019F834A
S1130AD08E8381E0DF91CF911F910F9108952F9222
S1130AE03F924F925F926F927F928F929F92AF92BA
S1130AF0BF92CF92DF92EF92FF920F931F93CF9307
S1130B00DF93CDB7DEB76C970FB6F894DEBF0FBE98
S1130B10CDBF109226011092270110922801109245
S1130B20290180E090E6AAEEB6E480930001909358
S1130B300101A0930201B09303010F2EF8E3CF2E1D
S1130B40F1E0DF2EF02D0AE311E00F2EFCE3EF2E8F
S1130B50F1E0FF2EF02D6EE271E086E391E00E9459
S1130B602E0580913601909137018F3F934098F77D
S1130B70F601808191818F3F934068F7F80180816D
S1130B8091818F3F934038F7F701808191818F3FA6
S1130B90934008F780902A0190902B01A0902C019B
S1130BA0B0902D01209126012983309127013A83A9
S1130BB0409128014B83509129015C83609120016D
S1130BC06B8B709121017C8B80911E01898B90919C
S1130BD01F019A8BE0912201ED8BF0912301FE8B92
S1130BE0209124012F8B30912501388F40910001F1
S1130BF04D83509101015E832090020130900301E6
S1130C0060911C01698F70911D017A8F80911A0186
S1130C1090911B01988B8F8718861F82C12CD12C31
S1130C20B9C0EB8DFC8DE415F50509F49CC0E9858C
S1130C30FA856081718180E090E00E9417126B0157
S1130C407C01F3016081718180E090E00E941712C1
S1130C509B01AC01C701B6010E947F10C62ED72E9E
S1130C60E82EF92EEB85FC856081718180E090E0AF
S1130C700E9417124B015C01F8016081718180E0D0
S1130C8090E00E9417129B01AC01C501B4010E94BF
S1130C907F10862E972EA82EB92E2C2D3D2D4E2D4D
S1130CA05F2D6C2D7D2D8E2D9F2D0E949B136B012E
S1130CB07C01282D392D4A2D5B2D682D792D8A2D07
S1130CC09B2D0E949B139B01AC01C701B6010E949E
S1130CD080100E940814862E972EA82EB92E798192
S1130CE06A819B818C81272F362F492F582F682D9D
S1130CF0792D8A2D9B2D0E9427131816D4F420E0F9
S1130D0030E040E05FE3682D792D8A2D9B2D0E9411
S1130D109B136D8B7E8B8F8B988FFB8DF98B2C8D1A
S1130D202A8B3D853B8B4E854C8B89829A82AB8284
S1130D30BC827D816E81272F362F422D532D682D45
S1130D40792D8A2D9B2D0E944611882364F46B8D86
S1130D507C8D788B6F877D85798F8E858A8F8D8248
S1130D609E822A2C3B2C92E0690E711C0E5F1F4F51
S1130D70EB8DFC8D3196FC8FEB8F349709F051CFBE
S1130D802F8138852F5F3F4F38872F8369012430A7
S1130D90310539F134E0C316D10494F786010F5FAD
S1130DA01F4F000F111F0F2EF6E3EF2EF1E0FF2E61
S1130DB0F02DE00EF11E025D1E4FC601880F991F33
S1130DC0AC014A5C5E4F5A874987BC01625D7E4F25
S1130DD07C876B87CD86DE86DC8ECB8E2601370141
S1130DE0C7CF882D992DAA2DBB2D80932A019093CE
S1130DF02B01A0932C01B0932D0159814A813B8191
S1130E002C81852F942FA32FB22F809326019093AA
S1130E102701A0932801B09329017B8970932001B5
S1130E208C8980932101998990931E01EA89E0932A
S1130E301F015D894E893F89288D852F942FA32F0B
S1130E40B22F8093220190932301A0932401B093A5
S1130E5025015D814E81852F942FA22DB32D809382
S1130E60000190930101A0930201B0930301F98D55
S1130E70F0931C012A8D20931D013F8530931A01A4
S1130E80488940931B018091200190912101209178
S1130E901C0130911D018217930719F590935D0190
S1130EA080935C0140911E0150911F0150935B019E
S1130EB040935A0120911A0130911B01309357013C
S1130EC02093560169E070E0FB01E81BF90BCF01A8
S1130ED0841B950B821B930B9093590180935801AB
S1130EE066C04F85588984179507F9F490935D017E
S1130EF080935C0140911E0150911F0150935B014E
S1130F0040935A01309357012093560169E070E0F1
S1130F10FB01E81BF90BCF01841B950B821B930B80
S1130F20909359018093580142C040911E01509101
S1130F301F012417350701F530935D0120935C01EF
S1130F4090935B0180935A014F85588950935701C0
S1130F504093560149E050E0BA01621B730BFB0158
S1130F60E81BF90BCF012F853889821B930B9093D3
S1130F705901809358011BC050935D0140935C015B
S1130F8090935B0180935A0130935701209356014B
S1130F9069E070E0FB01E41BF50BBF01681B790BF2
S1130FA0CB01821B930B909359018093580181E0EC
S1130FB06C960FB6F894DEBF0FBECDBFDF91CF9114
S1130FC01F910F91FF90EF90DF90CF90BF90AF9063
S1130FD09F908F907F906F905F904F903F902F9055
S1130FE008950E947C0F6EE271E086E391E00E9416
S1130FF02E050E946F0581E008952F923F924F9233
S11310005F926F927F928F929F92AF92BF92CF9294
S1131010DF92EF92FF920F931F93CF93DF93CDB79D
S1131020DEB72D970FB6F894DEBF0FBECDBF8C018F
S113103010921901109218010E946F05E0905C0152
S1131040F0905D01F701EE0FFF1FEA5CFE4F208177
S113105031813A8329832F3F83E0380708F0EAC2BD
S1131060A0905A01B0905B01F501EE0FFF1FEA5CFE
S1131070FE4FC080D1809FEFC91693E0D90608F0D7
S1131080D9C2B9016C0D7D1D80E090E00E94171259
S113109020E030E040E05FE30E949B1320910801D0
S11310A03091090140910A0150910B010E947F1077
S11310B06D837E838F839887F701EE0FFF1FE25DB8
S11310C0FE4FE080F180F501EE0FFF1FE25DFE4F61
S11310D0A080B180B5016E0D7F1D80E090E00E947C
S11310E0171220E030E040E05FE30E949B13209160
S11310F004013091050140910601509107010E94BD
S11311007F1069877A87282E392EB70180E090E016
S11311100E9417122B013C01B50180E090E00E946F
S113112017129B01AC01C301B2010E947F104B0155
S11311305C01E981FA81BF0180E090E00E9417120E
S11311402B013C01B60180E090E00E9417129B0144
S1131150AC01C301B2010E947F10A50194010E9459
S1131160F3104B015C017D816E819F818885272F5F
S1131170362F492F582FB985AA856B2F7A2F822DA8
S1131180932D0E94F3102B013C017D816E819F8180
S11311908885272F362F492F582F672F732F892F94
S11311A0952F0E949B136B017C0179856A85272FFB
S11311B0362F422D532D672F732F822D932D0E948E
S11311C09B139B01AC01C701B6010E9480100E94D1
S11311D008146B017C0120E030E0A90160913E011C
S11311E070913F0180914001909141010E9446110C
S11311F0811108C080923E0190923F01A09240016B
S1131200B092410123E333E343E75FE360913E019E
S113121070913F0180914001909141010E949B1384
S11312204B015C0120ED3CEC4CE45DE360914A0130
S113123070914B0180914C0190914D010E949B1340
S11312409B01AC01C501B4010E94801020E030E094
S113125044E353E40E949B1323EC35EF48E450E449
S11312600E944D11862E972EA82EB92EF801808645
S11312709186A286B38623EC35EF48E450E40E94BD
S11312809B1320E030E044E353E40E944D119B01A2
S1131290AC0162E578EB86E990E40E947F10A3013B
S11312A092010E947F10862E972EA82EB92E0E949E
S11312B0FE139B01AC01C701B60190580E949B1319
S11312C029E33EE843EA5EE30E949B1369837B873C
S11312D08D879C87472F382F292F862F942FA32F54
S11312E0B22F8093520190935301A0935401B09371
S11312F05501682D792D8A2D9B2D0E944A11A70135
S113130096010E949B1329E83AED45E95EE30E94A9
S11313109B13862E972EA82EB92E862F992DAA2D93
S1131320BB2D80934E0190934F01A0935001B09335
S1131330510120E030E0A90160914601709147011C
S113134080914801909149010E94461181112BC05E
S113135020E030E0A9016091420170914301809145
S11313604401909145010E94461181111CC059818C
S11313704B853D852C85852F942FA32FB22F8093E9
S1131380460190934701A0934801B0934901882DE9
S1131390992DAA2DBB2D8093420190934301A093D4
S11313A04401B093450123E333E343E75FE36091F2
S11313B046017091470180914801909149010E9432
S11313C09B134B015C0120ED3CEC4CE45DE3B981E3
S11313D0AB85FD85EC856B2F7A2F8F2F9E2F0E9476
S11313E09B139B01AC01C501B4010E948010F8015C
S11313F0608371838283938380904E0190904F0128
S1131400A0905001B090510123E333E343E75FE33D
S11314106091420170914301809144019091450192
S11314200E949B1369837A838B839C8320ED3CEC1D
S11314304CE45DE3C501B4010E949B139B01AC0124
S113144069817A818B819C810E948010F801648378
S113145075838683978380915C0190915D019C01E3
S1131460220F331F3A832983F901EA5CFE4F60811E
S1131470718180E090E00E941712F80164877587FB
S113148086879787E981FA81E25DFE4F60817181E9
S113149080E090E00E941712F801608B718B828BC0
S11314A0938B80915A0190915B019C01220F331F11
S11314B03A832983F901EA5CFE4F6081718180E0FF
S11314C090E00E941712F801648B758B868B978BC2
S11314D0E981FA81E25DFE4F6081718180E090E0F4
S11314E00E941712F801608F718F828F938F809101
S11314F05601909157019C01220F331F3A8329838F
S1131500F901EA5CFE4F6081718180E090E00E9405
S11315101712F801648F758F868F978FE981FA818E
S1131520E25DFE4F6081718180E090E00E941712BD
S1131530F80160A371A382A393A3809158019091B1
S113154059019C01220F331F3A832983F901EA5C74
S1131550FE4F6081718180E090E00E941712F801D3
S113156064A375A386A397A3E981FA81E25DFE4F84
S11315706081718180E090E00E941712F80160A7F9
S113158071A782A793A720E030E044E353E4C301AA
S1131590B2010E949B1323EC35EF48E450E40E940F
S11315A04D11F80164A775A786A797A75D814E81A1
S11315B03F812885852F942FA32FB22F80AB91AB29
S11315C0A2ABB3AB59854A85852F942FA22DB32D99
S11315D084AB95ABA6ABB7ABC0AED1AEE2AEF3AEC7
S11315E08091520190915301A0915401B091550101
S11315F08093460190934701A0934801B093490119
S11316008092420190924301A0924401B09245011C
S113161080914A0190914B01A0914C01B0914D01F0
S113162080933E0190933F01A0934001B093410108
S113163081E000C02D960FB6F894DEBF0FBECDBF7B
S1131640DF91CF911F910F91FF90EF90DF90CF909A
S1131650BF90AF909F908F907F906F905F904F90CE
S11316603F902F9008951F93CF93DF93182FD62F79
S1131670C42F0E941D0594EA9093BC00ECEBF0E0AB
S113168090819923ECF790E59093BB0094E89093B4
S1131690BC00ECEBF0E090819923ECF79091B90059
S11316A0987F903229F484E98093BC0080E02DC0B7
S11316B081E08093BB0084E88093BC00ECEBF0E015
S11316C090819923ECF71093BB0084E88093BC00CD
S11316D0ECEBF0E080818823ECF7D093BB0084E846
S11316E08093BC00ECEBF0E080818823ECF7C0939E
S11316F0BB0084E88093BC00ECEBF0E0808188239D
S1131700ECF784E98093BC0081E0DF91CF911F91D5
S11317100895CF93DF9324EA2093BC00ECEBF0E030
S113172020812223ECF721E52093BB0024E82093B9
S1131730BC00ECEBF0E020812223ECF72091B9000F
S1131740287F283429F484E98093BC0080E03FC0DA
S113175024EC2093BC00ECEBF0E020812223ECF796
S11317604091BB00461309C050E041505109141682
S1131770150644F040E050E018C084E98093BC00B2
S113178080E025C0DC0120E030E0ECEBF0E074EC1C
S1131790CBEBD0E0708360816623ECF768816D93B6
S11317A02F5F3F4F24173507ACF324E82093BC0088
S11317B0ECEBF0E020812223ECF72091BB00FC014C
S11317C0E40FF51F208384E98093BC0081E0DF915E
S11317D0CF91089581E08093D70080EA8093D80068
S11317E082E189BD09B400FEFDCF80E98093D80071
S11317F01092E00010927701109278018CE08093AF
S1131800E200789408959FB7F8948091770181114C
S113181003C09FBF8FEF089583E08093E900809118
S1131820E80085FD03C09FBF8FEF08958091F1000C
S11318302091E80025FD03C02BE62093E8009FBF1C
S1131840089580917701882389F02FB7F89483E075
S11318508093E9008091E80085FF07C0E8EEF0E09E
S11318609BE69083808185FDFCCF2FBF0895CF93A5
S1131870DF9390917701992309F44DC09FB7F894B1
S113188024E02093E90020917901222349F020915A
S1131890E80025FD03C09FBF8FEF42C0109279017D
S11318A03091E400375E2091E80025FD25C09FBFFC
S11318B09091E400931749F09091770191110FC032
S11318C02CC09FBF9881931305C081E08093790158
S11318D08FEF26C090917701911108C020C0A9EE26
S11318E0B0E044E0E8EEF0E0C4EED0E09FB7F89456
S11318F04C93208125FFE5CF8093F1008091E8008F
S113190085FD03C08AE38093E80085E08093760137
S11319109FBF80E005C08FEF03C08FEF01C08FEF42
S1131920DF91CF9108951F920F920FB60F92112459
S11319308F939F93EF93FF93E1EEF0E08081108209
S113194083FF11C01092E90091E09093EB00109294
S1131950EC0092E19093ED0098E09093F0001092E7
S113196077011092780182FF13C080917701882358
S113197079F080917601882359F081508093760123
S1131980811106C084E08093E9008AE38093E80033
S1131990FF91EF919F918F910F900FBE0F901F9029
S11319A018951F920F920FB60F9211240F931F9345
S11319B02F933F934F935F936F937F938F939F9353
S11319C0AF93BF93CF93DF93EF93FF931092E9000C
S11319D08091E80083FF51C1E1EFF0E07081408124
S11319E020813081932F80E0DC01A22B9D01508166
S11319F06081962F80E0852BA081B08152EF5093B7
S1131A00E800463009F05CC004C081E28093EB003A
S1131A103BC1C6E04FE151E0FA016591749126178C
S1131A20370719F0495F5F4F20C0FA01329665917C
S1131A3074918617970719F0495F5F4F16C0FA0132
S1131A40349685919491282F392FFA013696449132
S1131A509B2F80E08A2B8F3F910519F010F08FEFB8
S1131A6090E0841728F4482F03C0C150A9F6CDCFC5
S1131A70C8EED0E07EEFA1EFB0E010E18881982FAE
S1131A809570E1F382FD00C1642F413108F0612FAC
S1131A90662309F4F6C0C901562FFC010196E491AE
S1131AA0EC935150D1F7862F815090E00196280F86
S1131AB0391F461B78834111E1CF6031F9F2E4C04C
S1131AC0453061F48EEF8093E800E8EEF0E0808129
S1131AD080FFFDCF20682093E300D6C04930A1F5F4
S1131AE071115BC0209377011092780110927601F6
S1131AF08EEF8093E80011E089E491E0C9EED0E034
S1131B00ABEEB0E06CEE70E04DEE50E018839C015B
S1131B102F5F3F4FFC0104910C93002359F0F9010E
S1131B202491FB012083FC01329603962491FA014F
S1131B30208301C0C9011F5F153041F7EAEEF0E0D0
S1131B408EE180831082A0C0483081F4703809F09F
S1131B503FC0E8EEF0E0808180FFFDCF8091770107
S1131B608093F1008EEF8093E8008EC04132A9F497
S1131B70713AF1F5E8EEF0E0808180FFFDCFECE012
S1131B80F1E0A1EFB0E081918C9341E0E331F407FF
S1131B90D1F78EEF8093E80077C04032C9F47132F8
S1131BA009F06BC0E8EEF0E0808182FFFDCFECE04D
S1131BB0F1E0A1EFB0E08C91819351E0E331F507BE
S1131BC0D1F7E8EEF0E08BEF80838EEF80835CC08A
S1131BD0423271F4713209F050C020937801E8EE7A
S1131BE0F0E0808180FFFDCF8EEF8093E8004CC051
S1131BF041111AC0E8EEF0E0208120FFFDCF7238D9
S1131C0051F4E9EEF0E080838091EB0085FB8827B6
S1131C1080F9108201C080E0E1EFF0E0808310825F
S1131C208EEF8093E80030C0413011F0433029F545
S1131C30723019F5232B09F58F779927382F3150F6
S1131C403430D8F43EEF3093E8008093E900433019
S1131C5021F481E28093EB0017C099E19093EB00AB
S1131C6021E030E0D90102C0AA0FBB1F8A95E2F738
S1131C70EAEEF0E0A083108207C081E28093EB00DB
S1131C8003C078834111FACEFF91EF91DF91CF9198
S1131C90BF91AF919F918F917F916F915F914F9180
S1131CA03F912F911F910F910F900FBE0F901F9096
S1131CB01895EF92FF920F931F93CF93DF93CDB7B5
S1131CC0DEB727970FB6F894DEBF0FBECDBF8E01E7
S1131CD00F5F1F4F27E0F80111922A95E9F74AE0B8
S1131CE050E0B8010E94A3147E01F8E0EF0EF11C4D
S1131CF0F80181918F0181110E94370C0E151F0587
S1131D00B9F727960FB6F894DEBF0FBECDBFDF91AB
S1131D10CF911F910F91FF90EF90089520E030E054
S1131D20ECEBF0E08081882334F02F5F3F4F293EB5
S1131D3083E03807B9F781E0283E334009F480E0B6
S1131D4008958093BB0084E88093BC000E948E0EAB
S1131D50882321F08091B900887F089580E0089558
S1131D60CF93C82F94EA9093BC000E948E0E8823D0
S1131D7061F08C2F880F8F5F0E94A10E883439F494
S1131D8084E98093BC0080E003C080E001C081E06E
S1131D90CF910895CF93C82F94EA9093BC000E94EA
S1131DA08E0E882359F08C2F880F0E94A10E80324A
S1131DB039F484E98093BC0080E003C080E001C072
S1131DC081E0CF91089584E98093BC000895EF9257
S1131DD0FF920F931F93CF93DF93CDB7DEB7609736
S1131DE00FB6F894DEBF0FBECDBFE82EF92EFE016C
S1131DF0319680E1DF011D928A95E9F788E50E941A
S1131E00CA0E882309F466C086E30E94A10E8823C3
S1131E1009F462C00E94E30EB8E0BA95F1F700003D
S1131E2088E50E94B00E882309F458C0AE014F5FC4
S1131E305F4F8E01005F1F4FECEBF0E094EC2BEB57
S1131E4030E0908380818823ECF7D9018C91DA010A
S1131E508D93AD01A017B107A1F784E88093BC006E
S1131E60ECEBF0E080818823ECF78091BB00888B59
S1131E700E94E30EDE0114966E2D7F2D4C91242FCB
S1131E802073CD010297FC01808190E0F0E12F9F47
S1131E90800D911D1124FB0191838083842F807C0C
S1131EA090E0880F991F880F991F9D0121503109D7
S1131EB0F9012081820F911DFB01938382834F706E
S1131EC04483158213966A5F7F4F0A171B07B1F686
S1131ED081E005C080E003C080E001C080E060963E
S1131EE00FB6F894DEBF0FBECDBFDF91CF911F9127
S1131EF00F91FF90EF9008950E941D0588E50E94C0
S1131F00CA0E882309F4C7C080E30E94A10E882367
S1131F1009F4C3C081E00E94A10E882309F4BFC064
S1131F200E94E30E83EC99E00197F1F700C00000F2
S1131F3088E50E94CA0E882309F4B3C080E00E9499
S1131F40A10E882309F4AFC080E00E94A10E88236B
S1131F5009F4ABC080E00E94A10E882309F4A7C055
S1131F6080E00E94A10E882309F4A3C080E00E94AF
S1131F70A10E882309F49FC080E00E94A10E88234B
S1131F8009F49BC080E00E94A10E882309F497C045
S1131F9080E90E94A10E882309F493C00E94E30EF5
S1131FA083EC99E00197F1F700C0000088E50E94F6
S1131FB0CA0E882309F487C087E00E94A10E8823F3
S1131FC009F483C080E00E94A10E882309F47FC035
S1131FD081E40E94A10E882309F47BC00E94E30ED1
S1131FE083EC99E00197F1F700C0000088E50E94B6
S1131FF0CA0E882309F46FC08AE10E94A10E8823C7
S113200009F46BC080E40E94A10E882309F467C020
S113201080E00E94A10E882309F463C00E94E30EAD
S113202083EC99E00197F1F700C0000088E50E9475
S1132030CA0E882309F457C083E30E94A10E8823A3
S113204009F453C083E00E94A10E882309F44FC011
S11320500E94E30E83EC99E00197F1F700C00000C1
S113206088E50E94CA0E882309F443C080E30E94D5
S1132070A10E882309F43FC088E00E94A10E8823A2
S1132080E1F10E94E30E83EC99E00197F1F700C0BF
S1132090000081E0089580E0089580E0089580E0E4
S11320A0089580E0089580E0089580E0089580E038
S11320B0089580E0089580E0089580E0089580E028
S11320C0089580E0089580E0089580E0089580E018
S11320D0089580E0089580E0089580E0089580E008
S11320E0089580E0089580E0089580E0089580E0F8
S11320F0089580E0089580E0089580E008955058A0
S1132100BB27AA270ED058C221D230F026D220F005
S113211031F49F3F11F41EF4F1C10EF4E095E7FB96
S1132120E7C1E92F6BD280F3BA17620773078407FC
S1132130950718F071F49EF583C20EF4E0950B2E0A
S1132140BA2FA02D0B01B90190010C01CA01A00105
S11321501124FF27591B99F0593F50F4503E68F160
S11321601A16F040A22F232F342F4427585FF3CFA1
S1132170469537952795A795F0405395C9F77EF472
S11321801F16BA0B620B730B840BBAF09150A1F0BB
S1132190FF0FBB1F661F771F881FC2F70EC0BA0F41
S11321A0621F731F841F48F4879577956795B795C9
S11321B0F7959E3F08F0B3CF9395880F08F09927C1
S11321C0EE0F979587950895C1D158F080E891E076
S11321D009F49EEFC2D128F040E851E059F45EEFD3
S11321E009C08CC12DC2E92FE07808D268F3092E0A
S11321F0052AC1F3261737074807590738F00E2E6A
S113220007F8E02569F0E025E0640AC0EF6307F809
S1132210009407FADB01B9019D01DC01CA01AD019B
S1132220EF934AD0C9D10AD05F91552331F02BEDF9
S11322303FE049E450FD49EC63CF0895DF93DD2787
S1132240B92FBF7740E85FE31616170648075B0708
S113225010F4D92F00D29F938F937F936F9316D34B
S1132260ECEAF0E04ED1A8D12F913F914F915F91CC
S11322706ED2DD2349F09058A2EA2AED3FE049EC02
S11322805FE3D0785D274DDFDF9196C10DD108F46F
S113229081E008956AD1E395A0C10CD08DC15DD1D0
S11322A040F054D130F021F45F3F19F021C15111B5
S11322B0C8C124C1A3D198F39923C9F35523B1F319
S11322C0951B550BBB27AA2762177307840738F0A1
S11322D09F5F5F4F220F331F441FAA1FA9F333D000
S11322E00E2E3AF0E0E830D091505040E695001CB4
S11322F0CAF729D0FE2F27D0660F771F881FBB1F70
S1132300261737074807AB07B0E809F0BB0B802D49
S1132310BF01FF2793585F4F2AF09E3F510568F095
S1132320E7C08FC15F3FECF3983EDCF38695779569
S11323306795B795F7959F5FC9F7880F911D969597
S1132340879597F90895E1E0660F771F881FBB1FF3
S1132350621773078407BA0720F0621B730B840BA0
S1132360BA0BEE1F88F7E095089519F40EF0C0C07B
S113237067C1C4C04BD1C8F39638C0F707F80F92B1
S1132380E8942BE33AEA48EB5FE7E3D10F920F922C
S11323900F924DB75EB70F929BD1E9EDF0E0B1D04B
S11323A04F915F91EF91FF91E595EE1FFF1F49F06B
S11323B0FE57E0684427EE0F441FFA95E1F7419574
S11323C0550B52D10F9007FE46C1089504D068946E
S11323D0B11137C108951AD188F09F5790F0B92FE1
S11323E09927B751A0F0D1F0660F771F881F991F66
S11323F01AF0BA95C9F712C0B13081F021D1B1E019
S113240008951EC1672F782F8827B85F39F0B93F28
S1132410CCF3869577956795B395D9F73EF4909567
S11324208095709561957F4F8F4F9F4F0895E894E5
S113243009C097FB3EF490958095709561957F4F08
S11324408F4F9F4F9923A9F0F92F96E9BB279395B6
S1132450F695879577956795B795F111F8CFFAF4C6
S1132460BB0F11F460FF1BC06F5F7F4F8F4F9F4FF7
S113247016C0882311F096E911C0772321F09EE855
S1132480872F762F05C0662371F096E8862F70E0BB
S113249060E02AF09A95660F771F881FDAF7880F95
S11324A09695879597F90895990F0008550FAA0BEB
S11324B0E0E8FEEF16161706E807F907C0F0121653
S11324C01306E407F50798F0621B730B840B950B56
S11324D039F40A2661F0232B242B252B21F40895AB
S11324E00A2609F4A140A6958FEF811D811D089548
S11324F097F99F6780E870E060E008959FEF80ECB3
S11325000895DF93CF931F930F93FF92EF92DF927F
S11325107B018C01689405C0DA2EEF0118D1FE010D
S1132520E894A5912591359145915591AEF3EF012C
S1132530F8DDFE019701A801DA9479F7DF90EF90B6
S1132540FF900F911F91CF91DF91089500240A9479
S11325501616170618060906089500240A9412167A
S11325601306140605060895C9CF50D0E8F3E8947D
S1132570E0E0BB279F57F0F02AED3FE049EC06C0AE
S1132580EE0FBB0F661F771F881F28F0B23A620751
S11325907307840728F0B25A620B730B840BE3951C
S11325A09A9572F7803830F49A95BB0F661F771F9F
S11325B0881FD2F790486FC1092E0394000C11F4C0
S11325C0882352F0BB0F40F4BF2B11F460FF04C00A
S11325D06F5F7F4F8F4F9F4F0895EF93E0FF06C0CB
S11325E0A2EA2AED3FE049EC5FEB9BDDE5DF0F90CB
S11325F0039401FC9058E1E0F1E060C157FD90586C
S1132600440F551F59F05F3F71F04795880F97FBB2
S1132610991F61F09F3F79F087950895121613066C
S11326201406551FF2CF4695F1DF08C0161617069B
S11326301806991FF1CF86957105610508940895D0
S1132640E894BB2766277727CB0197F908952CDFF9
S113265008F48FEF08959B01AC0160E070E080E81E
S11326609FE31BCE45CF15C1D1DFE8F39923D9F3FE
S1132670940F511DBBF39150504094F059F08823AE
S113268032F0660F771F881F91505040C1F79E3F6C
S1132690510544F7880F911D9695879597F90895EC
S11326A05F3FACF0983E9CF0BB2786957795679585
S11326B0B79508F4B1609395C1F7BB0F58F711F4BF
S11326C060FFE8CF6F5F7F4F8F4F9F4FE3CFB9CF4E
S11326D0FA01DC01AA0FBB1F9B01AC01BF5728F410
S11326E022273327442750781FC0B75188F4AB2FD3
S11326F00024469537952795011CA395D2F3002015
S113270069F0220F331F441FB395DAF30DD0F7CCD1
S113271061307105A0E88A07B94630F49B01AC0129
S11327206627772788279078309621F02083318395
S11327304283538308950BD03FCF08DF28F00DDF89
S113274018F0952309F0D4CED9CE11247ACF56DFD0
S1132750A0F3959FD1F3950F50E0551F629FF001B0
S1132760729FBB27F00DB11D639FAA27F00DB11D09
S1132770AA1F649F6627B00DA11D661F829F222792
S1132780B00DA11D621F739FB00DA11D621F839F19
S1132790A00D611D221F749F3327A00D611D231FEF
S11327A0849F600D211D822F762F6A2F11249F573D
S11327B050408AF0E1F088234AF0EE0FFF1FBB1F60
S11327C0661F771F881F91505040A9F79E3F5105FF
S11327D070F08ECE36CF5F3FECF3983EDCF38695F7
S11327E077956795B795F795E7959F5FC1F7FE2BAA
S11327F0880F911D9695879597F908959F93B5DE57
S11328000F9007FCEE5FE9CE11F40EF477CE41C0D1
S1132810FDDED0F39923D9F3CEF39F57550B87FFF1
S113282046D00024A0E640EA90018058569597953A
S113283028F4805C660F771F881F20F0261737075F
S1132840480730F4621B730B840B202931294A2B6F
S1132850A69517940794202531254A2758F7660F23
S1132860771F881F20F026173707480730F4620BBC
S1132870730B840B200D311D411DA09581F7B90107
S1132880842F9158880F9695879508959B01AC01E4
S113289052CF9F3F31F0915020F4879577956795FB
S11328A0B795880F911D9695879597F9089591503E
S11328B05040660F771F881FD2F708959F938F9318
S11328C07F936F93FF93EF939B01AC0134DFEF9100
S11328D0FF9117DE2F913F914F915F912CCF97FB82
S11328E0072E16F4009407D077FD09D00E948F14A8
S11328F007FC05D03EF4909581959F4F08957095FF
S113290061957F4F0895A29FB001B39FC001A39F1B
S113291001D0B29F700D811D1124911D0895AA1B31
S1132920BB1B51E107C0AA1FBB1FA617B70710F0B6
S1132930A61BB70B881F991F5A95A9F780959095E8
S1132940BC01CD010895FB019F01E8944230C4F01D
S11329504532B4F44A3029F497FB1EF490958195DE
S11329609F4F642F77270E948F14805D8A330CF069
S1132970895D8193CB010097A1F716F45DE2519331
S11329801082C9010C94C414DC01FC01672F7191FD
S11329907723E1F7329704C07C916D937083629141
S10F29A0AE17BF07C8F30895F894FFCFEA
S11329AC00C07F440000BD4300C0FF4300E10000B1
S10729BC000008000B
S9030000FC
