S01100004C6F63616C546573742E7372656388
S11300000C94D5000C94F2000C94F2000C94F503BB
S11300100C94F2000C94F2000C94F2000C94F20094
S11300200C94F2000C94F2000C94D3090C94110A71
S11300300C94F2000C94F2000C94F2000C94F20074
S11300400C94F2000C94F2000C94F2000C94F20064
S11300500C94F2000C94F2000C94F2000C94F20054
S11300600C94F2000C94F2000C94F2000C94F20044
S11300700C94F2000C94D9030C94F2000C94F2004A
S11300800C94F2000C94F2000C94F2000C94F20024
S11300900C94F2000C94F2000C94F2000C94F20014
S11300A00C94F2000C94F2000C94F200084AD73B32
S11300B03BCE016E84BCBFFDC12F3D6C74319ABD33
S11300C056833DDA3D00C77F11BED9E4BB4C3E9157
S11300D06BAAAABE000000803F05A84CCDB2D44E46
S11300E0B93836A9020C50B9918688083CA6AAAA48
S11300F02ABE000000803F000100002B0112000214
S113010000003D01430003000080010401030904D1
S11301108401120203090498010603030904A001DF
S1130120080001C112018036018136120100020269
S1130130000010C0167A0400010102030109024301
S113014000020100C032090400000102020100059E
S113015024001001052401010104240206052406DB
S113016000010705820310004009040100020A008F
S11301700000070503024000000705840240000058
S11301800403090412034A002E00200046006900FB
S113019065006E006500000006034D00320000009B
S11301A00803340031003000000011241FBECFEFDB
S11301B0DAE0DEBFCDBF11E0A0E0B1E0EAE7F1E2B2
S11301C002C005900D92A431B107D9F721E0A4E152
S11301D0B1E001C01D92A538B207E1F70E945502B3
S11301E00C94BB100C94000020918800309189007D
S11301F030938B0020938A002091960030919700D1
S11302003093990020939800009719F42A9A2B9818
S11302100895019711F42A982B9A08952A9A2B9AF3
S11302208130910579F48091960090919700909394
S1130230990080939800862F972F90938B0080933A
S11302408A000895892B71F4862F972F9093990033
S113025080939800809188009091890090938B00FE
S113026080938A00089580918800909189009093EA
S11302708B0080938A0080919600909197009093D0
S11302809900809398002A9A2B9A08952F9A2FEF19
S113029081EE94E0215080409040E1F700C00000DE
S11302A02F98089526983E982298239808952F927F
S11302B03F924F925F926F927F928F929F92AF92F2
S11302C0BF92CF92DF92EF92FF920F931F93CF933F
S11302D0DF93CDB7DEB728970FB6F894DEBF0FBE15
S11302E0CDBF2C018B0181E090E00E94F400C2019B
S11302F0AA2797FDA095BA2F89839A83AB83BC83E1
S1130300C801AA2797FDA095BA2F8D839E83AF833A
S1130310B8870F2EFDE62F2EF1E03F2EF02D01E7DA
S113032011E089E691E00E94FB0669817A818B8164
S11303309C810E94C20E6B017C016D817E818F8144
S113034098850E94C20E4B015C0120916901309195
S11303506A0140916B0150916C01C701B6010E9482
S11303608A0D2B013C01D1012D913D914D915C9160
S1130370C501B4010E948A0DA30192010E94FE0DE1
S1130380F80120813181428153810E948A0D2AE43F
S11303903DE940E05DE30E94510E882314F60E947B
S11303A0330189E691E00E94FB06A5019401ADE6C4
S11303B0B1E06D917D918D919C910E948A0D462EA4
S11303C0572E682E792EA7019601609169017091CC
S11303D06A0180916B0190916C010E948A0D262E16
S11303E0372E082F192F242D352D462D572D642DEA
S11303F0752D862D972D0E94DB0F2B013C01222D9C
S1130400332D402F512F622D732D802F912F0E9459
S1130410DB0F9B01AC01C301B2010E948B0D0E9452
S1130420481020E030E040EA50E40E94510E882356
S11304300CF0B7CF0E94520128960FB6F894DEBF95
S11304400FBECDBFDF91CF911F910F91FF90EF9021
S1130450DF90CF90BF90AF909F908F907F906F90E0
S11304605F904F903F902F90089564E670E080E095
S113047090E00E94570108955D9A2FEF89E698E174
S1130480215080409040E1F700C000005D982FEFBC
S113049089E698E1215080409040E1F700C00000D7
S11304A010921501109214010895559A0E94270480
S11304B04AE068E081E00E941C09E1E6F0E080E89F
S11304C08083108285B5886085BD84B5826084BDD3
S11304D084B5826084BD84B5806284BD84B58F7E1A
S11304E084BD85B5846085BD85B5826085BD85B5CF
S11304F0816085BD279A8FEF87BD18BCE1E8F0E0E5
S1130500808180618083808188608083A0E8B0E0FE
S11305108C9182608C938C9181608C938C9180629D
S11305208C938C918F7E8C9380818B7F8083808150
S11305308D7F8083808181608083269A8FEF9FEFF7
S1130540909389008093880010928B0010928A0007
S1130550E1E9F0E02081206120832081286020836C
S1130560A0E9B0E02C9122602C932C912E7F2C9347
S11305702C9120682C932C912F7B2C9320812B7F02
S1130580208320812D7F20832081216020839093EC
S11305909700809396001092990010929800279AE1
S11305A0269A3E9A229A239A7894EAE7F0E0808188
S11305B088608083ACE7B0E08C918F778C938C91CA
S11305C08F7B8C9380818460808380818260808330
S11305D0808181608083AEE7B0E08C9181608C93F0
S11305E08C9182608C938C9180618C938C918062CD
S11305F08C938C9180648C93ADE7B0E08C91816096
S11306008C938C9182608C938081806280838081C2
S113061080618083209821982898299884E190E02B
S113062090931501809314010E9427040E94870C63
S113063008E810E00F2EFAE8AF2EB12CF02DC6E931
S1130640D0E00F2EF8E9CF2ED12CF02D0F2EFDEF98
S1130650EF2EFF24FA94F02D6E9A76986A9A729A85
S11306606E9A769A6A9A7298809114019091150103
S113067083309105A4F499237CF78D3F2FEF9207E3
S1130680A1F124F4049609F08FC01FC08E3F2FEF10
S1130690920709F443C0019609F086C06CC0803A01
S11306A0910509F47BC044F48330910509F46DC0CD
S11306B0049709F079C06CC0813A910509F471C0BE
S11306C0843A910509F070C066C0FFEF23ED80E322
S11306D0F15020408040E1F700C000000E94460134
S11306E0F0921501E0921401B7CFF8018081918155
S11306F0F5019183808388819981F60191838083B8
S11307002A9A2B9AFFEF23ED80E3F150204080409A
S1130710E1F700C000002B982A989ECFF801608171
S11307207181769567957695679581E090E00E9452
S11307300E01FFEF23ED80E3F15020408040E1F70C
S113074000C0000028813981ADECBCEC0E94AF10E0
S1130750BC01769567957695679580E090E00E9458
S11307600E019FEFE3EDF0E39150E040F040E1F73C
S113077000C0000071CF2FEF89E698E1215080403E
S11307809040E1F700C0000067CF0E94350264CFBB
S11307900E94460161CF0E9452015ECF0E943C023A
S11307A05BCF0E94350258CF81E090E00E94F400B4
S11307B053CF1F920F920FB60F9211242F938F9342
S11307C09F938091780090917900853F914018F033
S11307D06A9A729802C06A9A729A9F918F912F9125
S11307E00F900FBE0F901F9018951F920F920FB687
S11307F00F9211242F933F934F935F936F937F93A3
S11308008F939F93AF93BF93EF93FF936A9A9EB195
S113081084E089278EB96AE08FE591E00E9472092D
S113082080915F018093140110921501FF91EF9163
S1130830BF91AF919F918F917F916F915F914F91F4
S11308403F912F910F900FBE0F901F901895589ABB
S1130850599A5A9A8CE08093B800E9E6F0E08081D6
S11308608062808380818F7E8083EA9A7894089561
S11308700F931F93CF93DF938C01EB0184E491E0FA
S11308800E94F20B8091440190914501F8019183FB
S1130890808380914A0190914B019383828380915C
S11308A050019091510195838483809156019091D8
S11308B057019783868380914601909147019983DC
S11308C0888380914C0190914D019B838A83809110
S11308D05201909153019D838C8380915801909192
S11308E059019F838E8381E0DF91CF911F910F91F6
S11308F008952F923F924F925F926F927F928F92C0
S11309009F92AF92BF92CF92DF92EF92FF920F939A
S11309101F93CF93DF93CDB7DEB76C970FB6F894E0
S1130920DEBF0FBECDBF109224011092250110929C
S113093026011092270180E090E6AAEEB6E48093A7
S1130940000190930101A0930201B09303010F2EC3
S1130950F6E3CF2EF1E0DF2EF02D08E311E00F2EA9
S1130960FAE3EF2EF1E0FF2EF02D6CE271E084E368
S113097091E00E94380480913401909135018F3FB9
S1130980934098F7F601808191818F3F934068F7F7
S1130990F801808191818F3F934038F7F70180817E
S11309A091818F3F934008F780902801909029010E
S11309B0A0902A01B0902B01209124012983309129
S11309C025013A83409126014B83509127015C8392
S11309D060911E016B8B70911F017C8B80911C01B7
S11309E0898B90911D019A8BE0912001ED8BF09100
S11309F02101FE8B209122012F8B30912301388F0E
S1130A00409100014D83509101015E8320900201C9
S1130A103090030160911A01698F70911B017A8FE4
S1130A208091180190911901988B8F8718861F82E5
S1130A30C12CD12CB9C0EB8DFC8DE415F50509F45E
S1130A409CC0E985FA856081718180E090E00E9414
S1130A50C00E6B017C01F3016081718180E090E044
S1130A600E94C00E9B01AC01C701B6010E948A0D11
S1130A70C62ED72EE82EF92EEB85FC856081718178
S1130A8080E090E00E94C00E4B015C01F80160819F
S1130A90718180E090E00E94C00E9B01AC01C50111
S1130AA0B4010E948A0D862E972EA82EB92E2C2DC5
S1130AB03D2D4E2D5F2D6C2D7D2D8E2D9F2D0E9455
S1130AC0DB0F6B017C01282D392D4A2D5B2D682D00
S1130AD0792D8A2D9B2D0E94DB0F9B01AC01C70150
S1130AE0B6010E948B0D0E944810862E972EA82EC8
S1130AF0B92E79816A819B818C81272F362F492FCA
S1130B00582F682D792D8A2D9B2D0E94D00F1816F1
S1130B10D4F420E030E040E05FE3682D792D8A2DA5
S1130B209B2D0E94DB0F6D8B7E8B8F8B988FFB8DA3
S1130B30F98B2C8D2A8B3D853B8B4E854C8B898282
S1130B409A82AB82BC827D816E81272F362F422D03
S1130B50532D682D792D8A2D9B2D0E94510E8823AB
S1130B6064F46B8D7C8D788B6F877D85798F8E8512
S1130B708A8F8D829E822A2C3B2C92E0690E711CF6
S1130B800E5F1F4FEB8DFC8D3196FC8FEB8F3497EE
S1130B9009F051CF2F8138852F5F3F4F38872F833E
S1130BA069012430310539F134E0C316D10494F7D6
S1130BB086010F5F1F4F000F111F0F2EF4E3EF2E5E
S1130BC0F1E0FF2EF02DE00EF11E045D1E4FC60174
S1130BD0880F991FAC014C5C5E4F5A874987BC0152
S1130BE0645D7E4F7C876B87CD86DE86DC8ECB8E04
S1130BF026013701C7CF882D992DAA2DBB2D8093AF
S1130C00280190932901A0932A01B0932B015981C3
S1130C104A813B812C81852F942FA32FB22F80935F
S1130C20240190932501A0932601B09327017B8989
S1130C3070931E018C8980931F01998990931C01E4
S1130C40EA89E0931D015D894E893F89288D852FAE
S1130C50942FA32FB22F8093200190932101A0936E
S1130C602201B09323015D814E81852F942FA22D03
S1130C70B32D8093000190930101A0930201B093DE
S1130C800301F98DF0931A012A8D20931B013F85EE
S1130C903093180148894093190180911E01909165
S1130CA01F0120911A0130911B018217930719F536
S1130CB0909343018093420140911C0150911D0186
S1130CC05093410140934001209118013091190142
S1130CD030933D0120933C0169E070E0FB01E81B87
S1130CE0F90BCF01841B950B821B930B90933F014F
S1130CF080933E0166C04F85588984179507F9F49F
S1130D00909343018093420140911C0150911D0135
S1130D10509341014093400130933D0120933C01A5
S1130D2069E070E0FB01E81BF90BCF01841B950B14
S1130D30821B930B90933F0180933E0142C04091EC
S1130D401C0150911D012417350701F5309343010F
S1130D502093420190934101809340014F8558892B
S1130D6050933D0140933C0149E050E0BA01621BBD
S1130D70730BFB01E81BF90BCF012F853889821B0C
S1130D80930B90933F0180933E011BC0509343010A
S1130D9040934201909341018093400130933D017F
S1130DA020933C0169E070E0FB01E41BF50BBF01FB
S1130DB0681B790BCB01821B930B90933F018093AB
S1130DC03E0181E06C960FB6F894DEBF0FBECDBF36
S1130DD0DF91CF911F910F91FF90EF90DF90CF9013
S1130DE0BF90AF909F908F907F906F905F904F9047
S1130DF03F902F9008952F923F924F925F926F925F
S1130E007F928F929F92AF92BF92CF92DF92EF9296
S1130E10FF920F931F93CF93DF93CDB7DEB72E9737
S1130E200FB6F894DEBF0FBECDBF1C0110921701A0
S1130E30109216010E94790400914201109143011D
S1130E40F801EE0FFF1FEC5CFE4F208131813A87E1
S1130E5029872F3F83E0380708F0D5C1C0904001AF
S1130E60D0904101F601EE0FFF1FEC5CFE4FE080D5
S1130E70F1809FEFE91693E0F90608F0C4C14090B1
S1130E8008015090090160900A0170900B01B901AA
S1130E906E0D7F1D80E090E00E94C00E20E030E0E7
S1130EA040E05FE30E94DB0FA30192010E948A0DE0
S1130EB069837A838B839C83F801EE0FFF1FE45DC3
S1130EC0FE4FA080B180F601EE0FFF1FE45DFE4FE0
S1130ED000811181B8016A0D7B1D80E090E00E94C1
S1130EE0C00E20E030E040E05FE30E94DB0F209181
S1130EF004013091050140910601509107010E94BF
S1130F008A0D6D837E838F839887B50180E090E09E
S1130F100E94C00E4B015C01B80180E090E00E9489
S1130F20C00E9B01AC01C501B4010E948A0D4B01A6
S1130F305C01E985FA85BF0180E090E00E94C00E63
S1130F4069877A878B879C87B70180E090E00E944D
S1130F50C00E9B01AC0169857A858B859C850E94B6
S1130F608A0DA50194010E94FE0D69877A878B87FB
S1130F709C8779816A819B818C81272F362F492F09
S1130F80582FBD81AE81EF8118856B2F7A2F8E2F5C
S1130F90912F0E94FE0D4B015C0179816A819B8136
S1130FA08C81272F362F492F582F672F732F892F86
S1130FB0952F0E94DB0F6B017C017D816E819F81E7
S1130FC08885272F362F492F582F672F732F892F66
S1130FD0952F0E94DB0F9B01AC01C701B6010E9453
S1130FE08B0D0E9448106B017C0129853A854B8545
S1130FF05C8562E578EB86E990E40E948A0DA501A0
S113100094010E948A0D6E877D87182F092F812FE6
S1131010902F0E943E10A70196010E94DB0F9B01B6
S1131020AC01C301B2010E948B0DF1016083718395
S1131030828393835E854D85652F742F812F902F36
S11310400E94550EA70196010E94DB0F2091040116
S11310503091050140910601509107010E948B0DCA
S1131060F101648375838683978320E030E044E351
S113107053E469857A858B859C850E94DB0F23EC7C
S113108035EF48E450E40E94580EF10160877187FF
S1131090828793870091420110914301000F111F31
S11310A0F801EC5CFE4F6081718180E090E00E9469
S11310B0C00EF1016487758786879787F801E45D20
S11310C0FE4F6081718180E090E00E94C00EF101CA
S11310D0608B718B828B938B009140011091410145
S11310E0000F111FF801EC5CFE4F6081718180E0FC
S11310F090E00E94C00EF101648B758B868B978BF8
S1131100F801E45DFE4F6081718180E090E00E940F
S1131110C00EF101608F718F828F938F00913C011B
S113112010913D01000F111FF801EC5CFE4F60812E
S1131130718180E090E00E94C00EF101648F758F90
S1131140868F978FF801E45DFE4F6081718180E0A6
S113115090E00E94C00EF10160A371A382A393A347
S113116000913E0110913F01000F111FF801EC5C4A
S1131170FE4F6081718180E090E00E94C00EF10119
S113118064A375A386A397A3F801E45DFE4F608171
S1131190718180E090E00E94C00EF10160A771A708
S11311A082A793A720E030E044E353E4C501B401EF
S11311B00E94DB0F23EC35EF48E450E40E94580E04
S11311C0F10164A775A786A797A759814A813B8136
S11311D02C81852F942FA32FB22F80AB91ABA2AB80
S11311E0B3AB5D814E813F812885852F942FA32F3A
S11311F0B22F84AB95ABA6ABB7ABC0AED1AEE2AE6B
S1131200F3AE81E000C02E960FB6F894DEBF0FBE99
S1131210CDBFDF91CF911F910F91FF90EF90DF90A1
S1131220CF90BF90AF909F908F907F906F905F9082
S11312304F903F902F9008951F93CF93DF93182FD3
S1131240D62FC42F0E94270494EA9093BC00ECEBA1
S1131250F0E090819923ECF790E59093BB0094E83B
S11312609093BC00ECEBF0E090819923ECF7909123
S1131270B900987F903229F484E98093BC0080E01F
S11312802DC081E08093BB0084E88093BC00ECEB2C
S1131290F0E090819923ECF71093BB0084E88093ED
S11312A0BC00ECEBF0E080818823ECF7D093BB002A
S11312B084E88093BC00ECEBF0E080818823ECF7B9
S11312C0C093BB0084E88093BC00ECEBF0E0808129
S11312D08823ECF784E98093BC0081E0DF91CF910F
S11312E01F910895CF93DF9324EA2093BC00ECEB85
S11312F0F0E020812223ECF721E52093BB0024E8D1
S11313002093BC00ECEBF0E020812223ECF7209149
S1131310B900287F283429F484E98093BC0080E054
S11313203FC024EC2093BC00ECEBF0E020812223AE
S1131330ECF74091BB00461309C050E041505109FD
S11313401416150644F040E050E018C084E9809378
S1131350BC0080E025C0DC0120E030E0ECEBF0E0F4
S113136074ECCBEBD0E0708360816623ECF768818A
S11313706D932F5F3F4F24173507ACF324E8209378
S1131380BC00ECEBF0E020812223ECF72091BB00C1
S1131390FC01E40FF51F208384E98093BC0081E005
S11313A0DF91CF9108951F920F920FB60F921124DF
S11313B08F939F93EF93FF93E1EEF0E0808110828F
S11313C083FF11C01092E90091E09093EB0010921A
S11313D0EC0092E19093ED0098E09093F00010926D
S11313E05D0110925E0182FF13C080915D0188232C
S11313F079F080915C01882359F0815080935C01DD
S1131400811106C084E08093E9008AE38093E800B8
S1131410FF91EF919F918F910F900FBE0F901F90AE
S113142018951F920F920FB60F9211240F931F93CA
S11314302F933F934F935F936F937F938F939F93D8
S1131440AF93BF93CF93DF93EF93FF931092E90091
S11314508091E80083FF51C1E1EFF0E070814081A9
S113146020813081932F80E0DC01A22B9D015081EB
S11314706081962F80E0852BA081B08152EF50933C
S1131480E800463009F05CC004C081E28093EB00C0
S11314903BC1C6E047EF50E0FA016591749126170D
S11314A0370719F0495F5F4F20C0FA013296659102
S11314B074918617970719F0495F5F4F16C0FA01B8
S11314C0349685919491282F392FFA0136964491B8
S11314D09B2F80E08A2B8F3F910519F010F08FEF3E
S11314E090E0841728F4482F03C0C150A9F6CDCF4B
S11314F0C8EED0E07EEFA1EFB0E010E18881982F34
S11315009570E1F382FD00C1642F413108F0612F31
S1131510662309F4F6C0C901562FFC010196E49133
S1131520EC935150D1F7862F815090E00196280F0B
S1131530391F461B78834111E1CF6031F9F2E4C0D1
S1131540453061F48EEF8093E800E8EEF0E08081AE
S113155080FFFDCF20682093E300D6C04930A1F579
S113156071115BC020935D0110925E0110925C01C9
S11315708EEF8093E80011E081E291E0C9EED0E0C3
S1131580ABEEB0E06CEE70E04DEE50E018839C01E1
S11315902F5F3F4FFC0104910C93002359F0F90194
S11315A02491FB012083FC01329603962491FA01D5
S11315B0208301C0C9011F5F153041F7EAEEF0E056
S11315C08EE180831082A0C0483081F4703809F025
S11315D03FC0E8EEF0E0808180FFFDCF80915D01A7
S11315E08093F1008EEF8093E8008EC04132A9F41D
S11315F0713AF1F5E8EEF0E0808180FFFDCFECE098
S1131600F1E0A1EFB0E081918C9341E0E331F40784
S1131610D1F78EEF8093E80077C04032C9F471327D
S113162009F06BC0E8EEF0E0808182FFFDCFECE0D2
S1131630F1E0A1EFB0E08C91819351E0E331F50743
S1131640D1F7E8EEF0E08BEF80838EEF80835CC00F
S1131650423271F4713209F050C020935E01E8EE19
S1131660F0E0808180FFFDCF8EEF8093E8004CC0D6
S113167041111AC0E8EEF0E0208120FFFDCF72385E
S113168051F4E9EEF0E080838091EB0085FB88273C
S113169080F9108201C080E0E1EFF0E080831082E5
S11316A08EEF8093E80030C0413011F0433029F5CB
S11316B0723019F5232B09F58F779927382F31507C
S11316C03430D8F43EEF3093E8008093E90043309F
S11316D021F481E28093EB0017C099E19093EB0031
S11316E021E030E0D90102C0AA0FBB1F8A95E2F7BE
S11316F0EAEEF0E0A083108207C081E28093EB0061
S113170003C078834111FACEFF91EF91DF91CF911D
S1131710BF91AF919F918F917F916F915F914F9105
S11317203F912F911F910F910F900FBE0F901F901B
S1131730189520E030E0ECEBF0E08081882334F071
S11317402F5F3F4F293E83E03807B9F781E0283EF9
S1131750334009F480E008958093BB0084E88093CB
S1131760BC000E94990B882321F08091B900887FE6
S1131770089580E00895CF93C82F94EA9093BC0015
S11317800E94990B882361F08C2F880F8F5F0E9431
S1131790AC0B883439F484E98093BC0080E003C046
S11317A080E001C081E0CF910895CF93C82F94EADF
S11317B09093BC000E94990B882359F08C2F880FBA
S11317C00E94AC0B803239F484E98093BC0080E041
S11317D003C080E001C081E0CF91089584E9809343
S11317E0BC000895EF92FF920F931F93CF93DF9362
S11317F0CDB7DEB760970FB6F894DEBF0FBECDBF8E
S1131800E82EF92EFE01319680E1DF011D928A95C2
S1131810E9F788E50E94D50B882309F466C086E3BE
S11318200E94AC0B882309F462C00E94EE0BB8E05E
S1131830BA95F1F7000088E50E94BB0B882309F4F0
S113184058C0AE014F5F5F4F8E01005F1F4FECEB3E
S1131850F0E094EC2BEB30E0908380818823ECF76C
S1131860D9018C91DA018D93AD01A017B107A1F7CD
S113187084E88093BC00ECEBF0E080818823ECF7F3
S11318808091BB00888B0E94EE0BDE0114966E2DB6
S11318907F2D4C91242F2073CD010297FC01808170
S11318A090E0F0E12F9F800D911D1124FB019183A5
S11318B08083842F807C90E0880F991F880F991F64
S11318C09D0121503109F9012081820F911DFB01F5
S11318D0938382834F704483158213966A5F7F4F8C
S11318E00A171B07B1F681E005C080E003C080E061
S11318F001C080E060960FB6F894DEBF0FBECDBF86
S1131900DF91CF911F910F91FF90EF9008950E9466
S1131910270488E50E94D50B882309F4C7C080E317
S11319200E94AC0B882309F4C3C081E00E94AC0B75
S1131930882309F4BFC00E94EE0B83EC99E0019761
S1131940F1F700C0000088E50E94D50B882309F454
S1131950B3C080E00E94AC0B882309F4AFC080E0E0
S11319600E94AC0B882309F4ABC080E00E94AC0B4E
S1131970882309F4A7C080E00E94AC0B882309F4F3
S1131980A3C080E00E94AC0B882309F49FC080E0D0
S11319900E94AC0B882309F49BC080E00E94AC0B2E
S11319A0882309F497C080E90E94AC0B882309F4CA
S11319B093C00E94EE0B83EC99E00197F1F700C00D
S11319C0000088E50E94D50B882309F487C087E0CE
S11319D00E94AC0B882309F483C080E00E94AC0B06
S11319E0882309F47FC081E40E94AC0B882309F4A6
S11319F07BC00E94EE0B83EC99E00197F1F700C0E5
S1131A00000088E50E94D50B882309F46FC08AE1A1
S1131A100E94AC0B882309F46BC080E40E94AC0BD9
S1131A20882309F467C080E00E94AC0B882309F482
S1131A3063C00E94EE0B83EC99E00197F1F700C0BC
S1131A40000088E50E94D50B882309F457C083E37E
S1131A500E94AC0B882309F453C083E00E94AC0BB2
S1131A60882309F44FC00E94EE0B83EC99E00197A0
S1131A70F1F700C0000088E50E94D50B882309F423
S1131A8043C080E30E94AC0B882309F43FC088E084
S1131A900E94AC0B8823E1F10E94EE0B83EC99E0E9
S1131AA00197F1F700C0000081E0089580E00895F7
S1131AB080E0089580E0089580E0089580E008952E
S1131AC080E0089580E0089580E0089580E008951E
S1131AD080E0089580E0089580E0089580E008950E
S1131AE080E0089580E0089580E0089580E00895FE
S1131AF080E0089580E0089580E0089580E00895EE
S1131B0080E0089580E0089580E0089580E00895DD
S1131B1080E008955058BB27AA270ED0F6C1BFD144
S1131B2030F0C4D120F031F49F3F11F41EF48FC182
S1131B300EF4E095E7FB85C1E92F09D280F3BA17CB
S1131B40620773078407950718F071F49EF521C2A4
S1131B500EF4E0950B2EBA2FA02D0B01B9019001C4
S1131B600C01CA01A0011124FF27591B99F0593F08
S1131B7050F4503E68F11A16F040A22F232F342F50
S1131B804427585FF3CF469537952795A795F0409E
S1131B905395C9F77EF41F16BA0B620B730B840BB3
S1131BA0BAF09150A1F0FF0FBB1F661F771F881F6B
S1131BB0C2F70EC0BA0F621F731F841F48F48795C3
S1131BC077956795B795F7959E3F08F0B3CF9395B2
S1131BD0880F08F09927EE0F9795879508955FD1A0
S1131BE058F080E891E009F49EEF60D128F040E8D5
S1131BF051E059F45EEF09C02AC1CBC1E92FE07866
S1131C00A6D168F3092E052AC1F32617370748071A
S1131C10590738F00E2E07F8E02569F0E025E06456
S1131C200AC0EF6307F8009407FADB01B9019D01CC
S1131C30DC01CA01AD01EF934AD067D10AD05F91AC
S1131C40552331F02BED3FE049E450FD49EC63CFDF
S1131C500895DF93DD27B92FBF7740E85FE31616B9
S1131C60170648075B0710F4D92F9ED19F938F93D3
S1131C707F936F934BD2ECEAF0E0ECD046D12F91F6
S1131C803F914F915F91A3D1DD2349F09058A2EA8F
S1131C902AED3FE049EC5FE3D0785D274DDFDF912B
S1131CA034C1ABD008F481E0089508D1E3953EC176
S1131CB00CD02BC1FBD040F0F2D030F021F45F3FC8
S1131CC019F0BFC0511166C1C2C041D198F3992324
S1131CD0C9F35523B1F3951B550BBB27AA276217EC
S1131CE07307840738F09F5F5F4F220F331F441F31
S1131CF0AA1FA9F333D00E2E3AF0E0E830D0915069
S1131D005040E695001CCAF729D0FE2F27D0660F55
S1131D10771F881FBB1F261737074807AB07B0E894
S1131D2009F0BB0B802DBF01FF2793585F4F2AF0AA
S1131D309E3F510568F085C02DC15F3FECF3983E8E
S1131D40DCF3869577956795B795F7959F5FC9F707
S1131D50880F911D9695879597F90895E1E0660F90
S1131D60771F881FBB1F621773078407BA0720F009
S1131D70621B730B840BBA0BEE1F88F7E095089572
S1131D80E89409C097FB3EF4909580957095619511
S1131D907F4F8F4F9F4F9923A9F0F92F96E9BB27C7
S1131DA09395F695879577956795B795F111F8CF43
S1131DB0FAF4BB0F11F460FF1BC06F5F7F4F8F4FAE
S1131DC09F4F16C0882311F096E911C0772321F0A4
S1131DD09EE8872F762F05C0662371F096E8862F3C
S1131DE070E060E02AF09A95660F771F881FDAF793
S1131DF0880F9695879597F90895990F0008550FC0
S1131E00AA0BE0E8FEEF16161706E807F907C0F07C
S1131E1012161306E407F50798F0621B730B840B84
S1131E20950B39F40A2661F0232B242B252B21F45E
S1131E3008950A2609F4A140A6958FEF811D811DFE
S1131E40089597F99F6780E870E060E008959FEF38
S1131E5080EC0895DF93CF931F930F93FF92EF923B
S1131E60DF927B018C01689405C0DA2EEF01AFD0BC
S1131E70FE01E894A5912591359145915591AEF3D4
S1131E80EF015ADEFE019701A801DA9479F7DF9099
S1131E90EF90FF900F911F91CF91DF91089500244F
S1131EA00A941616170618060906089500240A94BB
S1131EB012161306140605060895C9CF50D0E8F388
S1131EC0E894E0E0BB279F57F0F02AED3FE049ECAF
S1131ED006C0EE0FBB0F661F771F881F28F0B23AAB
S1131EE062077307840728F0B25A620B730B840BE2
S1131EF0E3959A9572F7803830F49A95BB0F661F74
S1131F00771F881FD2F7904806C1092E0394000C4E
S1131F1011F4882352F0BB0F40F4BF2B11F460FF7F
S1131F2004C06F5F7F4F8F4F9F4F0895EF93E0FF83
S1131F3006C0A2EA2AED3FE049EC5FEBFDDDE5DFF8
S1131F400F90039401FC9058E9EDF0E0F7C057FDC1
S1131F509058440F551F59F05F3F71F04795880F13
S1131F6097FB991F61F09F3F79F0879508951216AA
S1131F7013061406551FF2CF4695F1DF08C0161656
S1131F8017061806991FF1CF869571056105089407
S1131F900895E894BB2766277727CB0197F908951E
S1131FA02CDF08F48FEF08959B01AC0160E070E032
S1131FB080E89FE37DCE0BD0A8CF71DF28F076DFD9
S1131FC018F0952309F03DCF42CF1124E3CFBFDFB2
S1131FD0A0F3959FD1F3950F50E0551F629FF00138
S1131FE0729FBB27F00DB11D639FAA27F00DB11D91
S1131FF0AA1F649F6627B00DA11D661F829F22271A
S1132000B00DA11D621F739FB00DA11D621F839FA0
S1132010A00D611D221F749F3327A00D611D231F76
S1132020849F600D211D822F762F6A2F11249F57C4
S113203050408AF0E1F088234AF0EE0FFF1FBB1FE7
S1132040661F771F881F91505040A9F79E3F510586
S113205070F0F7CE9FCF5F3FECF3983EDCF38695AC
S113206077956795B795F795E7959F5FC1F7FE2B31
S1132070880F911D9695879597F908959F931EDF74
S11320800F9007FCEE5F52CF11F40EF4E0CE41C086
S113209066DFD0F39923D9F3CEF39F57550B87FF0F
S11320A046D00024A0E640EA9001805856959795C2
S11320B028F4805C660F771F881F20F026173707E7
S11320C0480730F4621B730B840B202931294A2BF7
S11320D0A69517940794202531254A2758F7660FAB
S11320E0771F881F20F026173707480730F4620B44
S11320F0730B840B200D311D411DA09581F7B9018F
S1132100842F9158880F9695879508959B01AC016B
S113211052CF9F3F31F0915020F487957795679582
S1132120B795880F911D9695879597F908959150C5
S11321305040660F771F881FD2F708959F938F939F
S11321407F936F93FF93EF939B01AC0134DFEF9187
S1132150FF9180DE2F913F914F915F912CCFA29FF1
S1132160B001B39FC001A39F01D0B29F700D811D28
S10D21701124911D0895F894FFCF87
S113217A00C07F440000C0430000004400E10000A6
S107218A0000080045
S9030000FC
