:100000000C94B0000C94CD000C94CD000C94CD0059
:100010000C94CD000C94CD000C94CD000C94CD002C
:100020000C94CD000C94CD000C94FA010C94380281
:100030000C94CD000C94CD000C94CD000C94CD000C
:100040000C94CD000C94CD000C94CD000C94CD00FC
:100050000C94CD000C94CD000C94CD000C94CD00EC
:100060000C94CD000C94CD000C94CD000C94CD00DC
:100070000C94CD000C94CD000C94CD000C94CD00CC
:100080000C94CD000C94CD000C94CD000C94CD00BC
:100090000C94CD000C94CD000C94CD000C94CD00AC
:1000A0000C94CD000C94CD000C94CD000001000008
:1000B000E0001200020000F20043000300003501DE
:1000C0000401030904390112020309044D01060366
:1000D0000309045501080001C1120180360181366F
:1000E0001201000202000010C0167A040001010291
:1000F000030109024300020100C0320904000001AB
:10010000020201000524001001052401010104245C
:1001100002060524060001070582031000400904B9
:100120000100020A00000007050302400000070565
:1001300084024000000403090412034A002E002038
:10014000004600690065006E006500000006034D72
:1001500000320000000803340031003000000000CD
:1001600011241FBECFEFDAE0DEBFCDBF11E0A0E06B
:10017000B1E0ECEFFAE002C005900D92A830B107B3
:10018000D9F721E0A8E0B1E001C01D92AC30B20780
:10019000E1F70E94CF000C947C050C940000CF93F3
:1001A000DF93CDB7DEB768970FB6F894DEBF0FBE0A
:1001B000CDBFFE01319688E1DF011D928A95E9F7F6
:1001C0006E9A76986A9A72980E942E010E94340460
:1001D0000E943F010E9458018823E1F36E9A769AAB
:1001E0006A9A729A9E012F5F3F4FF90180E090E07A
:1001F0000196819391938C309105D1F77E01B9E1FD
:10020000EB0EF11CC22ED32E6E9A76986A9A729AD1
:100210006E9A769A6A9A72980E9479018823E1F31D
:100220000E945B01182F0E948801113069F70C2D84
:100230001D2DF80180819181880F991FD8018D9320
:100240009D938D010E94C00389E00E949E010E15BE
:100250001F0579F78AE00E949E01D6CF589A599AD5
:100260005A9A8CE08093B800E9E6F0E080818062E1
:10027000808380818F7E8083EA9A7894089581E0DC
:100280008093D70080EA8093D80082E189BD09B4C9
:1002900000FEFDCF80E98093D8001092E00010921C
:1002A000090110920A018CE08093E200789408958D
:1002B0008091090108959FB7F894809109018111F7
:1002C00003C09FBF8FEF089583E08093E900809182
:1002D000E80085FD03C09FBF8FEF08958091F10076
:1002E0002091E80025FD03C02BE62093E8009FBF86
:1002F00008959FB7F89480910901882331F083E035
:100300008093E9008091F20001C080E09FBF0895D2
:1003100080910901882389F02FB7F89483E08093B6
:10032000E9008091E80085FF07C0E8EEF0E09BE679
:100330009083808185FDFCCF2FBF0895CF93DF93FD
:1003400090910901992309F44DC09FB7F89424E0D6
:100350002093E90020910B01222349F02091E8002D
:1003600025FD03C09FBF8FEF42C010920B0130915B
:10037000E400375E2091E80025FD25C09FBF9091E5
:10038000E400931749F09091090191110FC02CC01E
:100390009FBF9881931305C081E080930B018FEF7D
:1003A00026C090910901911108C020C0A9EEB0E0CB
:1003B00044E0E8EEF0E0C4EED0E09FB7F8944C9350
:1003C000208125FFE5CF8093F1008091E80085FD35
:1003D00003C08AE38093E80085E0809308019FBF13
:1003E00080E005C08FEF03C08FEF01C08FEFDF917A
:1003F000CF9108951F920F920FB60F9211248F93F1
:100400009F93EF93FF93E1EEF0E08081108283FFF2
:1004100011C01092E90091E09093EB001092EC0073
:1004200092E19093ED0098E09093F0001092090112
:1004300010920A0182FF13C080910901882379F08C
:1004400080910801882359F081508093080181111F
:1004500006C084E08093E9008AE38093E800FF917E
:10046000EF919F918F910F900FBE0F901F90189555
:100470001F920F920FB60F9211240F931F932F9379
:100480003F934F935F936F937F938F939F93AF931C
:10049000BF93CF93DF93EF93FF931092E900809186
:1004A000E80083FF51C1E1EFF0E0708140812081DD
:1004B0003081932F80E0DC01A22B9D01508160816F
:1004C000962F80E0852BA081B08152EF5093E800F9
:1004D000463009F05CC004C081E28093EB003BC170
:1004E000C6E04CEA50E0FA0165917491261737078F
:1004F00019F0495F5F4F20C0FA01329665917491FF
:100500008617970719F0495F5F4F16C0FA013496B6
:1005100085919491282F392FFA01369644919B2F7B
:1005200080E08A2B8F3F910519F010F08FEF90E05B
:10053000841728F4482F03C0C150A9F6CDCFC8EEC8
:10054000D0E07EEFA1EFB0E010E18881982F9570A8
:10055000E1F382FD00C1642F413108F0612F662371
:1005600009F4F6C0C901562FFC010196E491EC9301
:100570005150D1F7862F815090E00196280F391FF6
:10058000461B78834111E1CF6031F9F2E4C0453078
:1005900061F48EEF8093E800E8EEF0E0808180FF68
:1005A000FDCF20682093E300D6C04930A1F571113A
:1005B0005BC02093090110920A01109208018EEF8E
:1005C0008093E80011E086ED90E0C9EED0E0ABEE5C
:1005D000B0E06CEE70E04DEE50E018839C012F5FB0
:1005E0003F4FFC0104910C93002359F0F901249131
:1005F000FB012083FC01329603962491FA012083AB
:1006000001C0C9011F5F153041F7EAEEF0E08EE14D
:1006100080831082A0C0483081F4703809F03FC058
:10062000E8EEF0E0808180FFFDCF809109018093AA
:10063000F1008EEF8093E8008EC04132A9F4713A48
:10064000F1F5E8EEF0E0808180FFFDCFE0E0F1E041
:10065000A1EFB0E081918C9341E0E730F407D1F74E
:100660008EEF8093E80077C04032C9F4713209F010
:100670006BC0E8EEF0E0808182FFFDCFE0E0F1E0CA
:10068000A1EFB0E08C91819351E0E730F507D1F70D
:10069000E8EEF0E08BEF80838EEF80835CC0423227
:1006A00071F4713209F050C020930A01E8EEF0E0D5
:1006B000808180FFFDCF8EEF8093E8004CC0411118
:1006C0001AC0E8EEF0E0208120FFFDCF723851F42F
:1006D000E9EEF0E080838091EB0085FB882780F9CC
:1006E000108201C080E0E1EFF0E0808310828EEFA5
:1006F0008093E80030C0413011F0433029F572306A
:1007000019F5232B09F58F779927382F315034307D
:10071000D8F43EEF3093E8008093E900433021F4B1
:1007200081E28093EB0017C099E19093EB0021E008
:1007300030E0D90102C0AA0FBB1F8A95E2F7EAEEAA
:10074000F0E0A083108207C081E28093EB0003C039
:1007500078834111FACEFF91EF91DF91CF91BF9154
:10076000AF919F918F917F916F915F914F913F9149
:100770002F911F910F910F900FBE0F901F90189502
:10078000EF92FF920F931F93CF93DF93CDB7DEB716
:1007900027970FB6F894DEBF0FBECDBF8E010F5F57
:1007A0001F4F27E0F80111922A95E9F74AE050E03F
:1007B000B8010E9437057E01F8E0EF0EF11CF80148
:1007C00081918F0181110E949E010E151F05B9F7BD
:1007D00027960FB6F894DEBF0FBECDBFDF91CF9145
:1007E0001F910F91FF90EF90089520E030E0ECEB27
:1007F000F0E08081882334F02F5F3F4F293E83E073
:100800003807B9F781E0283E334009F480E00895C5
:100810008093BB0084E88093BC000E94F50388238A
:1008200021F08091B900887F089580E00895CF93EA
:10083000C82F94EA9093BC000E94F503882359F0D6
:100840008C2F880F0E940804803239F484E9809349
:10085000BC0080E003C080E001C081E0CF9108953A
:1008600084E98093BC0008950E942E0188E50E94CF
:100870001704882309F4C7C080E30E940804882372
:1008800009F4C3C081E00E940804882309F4BFC0B2
:100890000E94300483EC99E00197F1F700C000005A
:1008A00088E50E941704882309F4B3C080E00E9401
:1008B0000804882309F4AFC080E00E94080488235C
:1008C00009F4ABC080E00E940804882309F4A7C0A3
:1008D00080E00E940804882309F4A3C080E00E94FD
:1008E0000804882309F49FC080E00E94080488233C
:1008F00009F49BC080E00E940804882309F497C093
:1009000080E90E940804882309F493C00E943004FF
:1009100083EC99E00197F1F700C0000088E50E94A0
:100920001704882309F487C087E00E9408048823FD
:1009300009F483C080E00E940804882309F47FC082
:1009400081E40E940804882309F47BC00E943004DB
:1009500083EC99E00197F1F700C0000088E50E9460
:100960001704882309F46FC08AE10E9408048823D1
:1009700009F46BC080E40E940804882309F467C06E
:1009800080E00E940804882309F463C00E943004B8
:1009900083EC99E00197F1F700C0000088E50E9420
:1009A0001704882309F457C083E30E9408048823AE
:1009B00009F453C083E00E940804882309F44FC05F
:1009C0000E94300483EC99E00197F1F700C0000029
:1009D00088E50E941704882309F443C080E30E943D
:1009E0000804882309F43FC088E00E940804882393
:1009F000E1F10E94300483EC99E00197F1F700C027
:100A0000000081E0089580E0089580E0089580E08E
:100A1000089580E0089580E0089580E0089580E0E2
:100A2000089580E0089580E0089580E0089580E0D2
:100A3000089580E0089580E0089580E0089580E0C2
:100A4000089580E0089580E0089580E0089580E0B2
:100A5000089580E0089580E0089580E0089580E0A2
:100A6000089580E0089580E0089580E00895FB01F6
:100A70009F01E8944230C4F04532B4F44A3029F47E
:100A800097FB1EF4909581959F4F642F77270E94C6
:100A90006805805D8A330CF0895D8193CB010097F6
:100AA000A1F716F45DE251931082C9010C94580528
:100AB000DC01FC01672F71917723E1F7329704C0C5
:100AC0007C916D9370836291AE17BF07C8F3089550
:100AD000AA1BBB1B51E107C0AA1FBB1FA617B70764
:100AE00010F0A61BB70B881F991F5A95A9F7809580
:0C0AF0009095BC01CD010895F894FFCF53
:080AFC0000E100000000080009
:00000001FF
