:100000000C94D6000C94F3000C94F3000C94F300C1
:100010000C94F3000C94F3000C94F3000C94F30094
:100020000C94F3000C94F3000C94DA0B0C94180C61
:100030000C94F3000C94F3000C94F3000C94F30074
:100040000C94F3000C94F3000C94F3000C94F30064
:100050000C94F3000C94F3000C94F3000C94F30054
:100060000C94F3000C94F3000C94F3000C94F30044
:100070000C94F3000C94F3000C94F3000C94F30034
:100080000C94F3000C94F3000C94F3000C94F30024
:100090000C94F3000C94F3000C94F3000C94F30014
:1000A0000C94F3000C94F3000C94F300084AD73B33
:1000B0003BCE016E84BCBFFDC12F3D6C74319ABD37
:1000C00056833DDA3D00C77F11BED9E4BB4C3E915B
:1000D0006BAAAABE000000803F05A84CCDB2D44E4A
:1000E000B93836A9020C50B9918688083CA6AAAA4C
:1000F0002ABE000000803F0A00000100002D01120E
:10010000000200003F0143000300008201040103DC
:100110000904860112020309049A01060303090473
:10012000A201080001C112018036018136120100CE
:100130000202000010C0167A040001010203010946
:10014000024300020100C032090400000102020162
:100150000005240010010524010101042402060504
:100160002406000107058203100040090401000273
:100170000A00000007050302400000070584024052
:1001800000000403090412034A002E002000460068
:10019000690065006E006500000006034D00320036
:1001A00000000803340031003000000011241FBE9D
:1001B000CFEFDAE0DEBFCDBF11E0A0E0B1E0EAEFC3
:1001C000F6E202C005900D92A431B107D9F721E003
:1001D000A4E1B1E001C01D92AC37B207E1F70E9483
:1001E000F5000C947B130C940000E1E6F0E080E84D
:1001F000808310826E9A76986A9A72980E943A0169
:100200000E94DD0E0E94620B0E947B0B8823E1F3AB
:100210000E940E046E9A769A6A9A729A00E811E029
:100220002FEF84E39CE0215080409040E1F700C034
:1002300000006E9A769880E691E00E9418046E9A0B
:10024000769AC0E6D1E069917991899199910E945D
:100250001611CB010E94BA0D89E00E947E0BC017D7
:10026000D10789F787EF90E00E94A00D8AE00E94F5
:100270007E0BD6CF589A599A5A9A8CE08093B80040
:10028000E9E6F0E080818062808380818F7E8083D8
:10029000EA9A789408950F931F93CF93DF938C017C
:1002A000EB0184E491E00E94480E8091440190911A
:1002B0004501F8019183808380914A0190914B011F
:1002C000938382838091500190915101958384831F
:1002D00080915601909157019783868380914601C2
:1002E000909147019983888380914C0190914D01B1
:1002F0009B838A8380915201909153019D838C83CB
:1003000080915801909159019F838E8381E0DF9104
:10031000CF911F910F9108952F923F924F925F922C
:100320006F927F928F929F92AF92BF92CF92DF9205
:10033000EF92FF920F931F93CF93DF93CDB7DEB76A
:100340006C970FB6F894DEBF0FBECDBF109224019C
:1003500010922501109226011092270180E090E66C
:10036000AAEEB6E48093000190930101A0930201EC
:10037000B09303010F2EF6E3CF2EF1E0DF2EF02D28
:1003800008E311E00F2EFAE3EF2EF1E0FF2EF02D3F
:100390006CE271E084E391E00E944B0180913401B2
:1003A000909135018F3F934098F7F60180819181BC
:1003B0008F3F934068F7F801808191818F3F934090
:1003C00038F7F701808191818F3F934008F7809043
:1003D000280190902901A0902A01B0902B01209132
:1003E00024012983309125013A83409126014B83D2
:1003F000509127015C8360911E016B8B70911F01EE
:100400007C8B80911C01898B90911D019A8BE091CE
:100410002001ED8BF0912101FE8B209122012F8B89
:1004200030912301388F409100014D83509101019B
:100430005E83209002013090030160911A01698F60
:1004400070911B017A8F8091180190911901988BFE
:100450008F8718861F82C12CD12CB9C0EB8DFC8DE3
:10046000E415F50509F49CC0E985FA856081718180
:1004700080E090E00E9447116B017C01F3016081F4
:10048000718180E090E00E9447119B01AC01C7019F
:10049000B6010E94E00FC62ED72EE82EF92EEB856E
:1004A000FC856081718180E090E00E9447114B01E2
:1004B0005C01F8016081718180E090E00E94471149
:1004C0009B01AC01C501B4010E94E00F862E972E5E
:1004D000A82EB92E2C2D3D2D4E2D5F2D6C2D7D2D52
:1004E0008E2D9F2D0E9462126B017C01282D392DCB
:1004F0004A2D5B2D682D792D8A2D9B2D0E9462122D
:100500009B01AC01C701B6010E94E10F0E94CF120E
:10051000862E972EA82EB92E79816A819B818C8197
:10052000272F362F492F582F682D792D8A2D9B2D57
:100530000E9457121816D4F420E030E040E05FE348
:10054000682D792D8A2D9B2D0E9462126D8B7E8BDA
:100550008F8B988FFB8DF98B2C8D2A8B3D853B8B58
:100560004E854C8B89829A82AB82BC827D816E8162
:10057000272F362F422D532D682D792D8A2D9B2D17
:100580000E94A710882364F46B8D7C8D788B6F8715
:100590007D85798F8E858A8F8D829E822A2C3B2C39
:1005A00092E0690E711C0E5F1F4FEB8DFC8D319632
:1005B000FC8FEB8F349709F051CF2F8138852F5F57
:1005C0003F4F38872F8369012430310539F134E0FA
:1005D000C316D10494F786010F5F1F4F000F111F40
:1005E0000F2EF4E3EF2EF1E0FF2EF02DE00EF11EC2
:1005F000045D1E4FC601880F991FAC014C5C5E4F15
:100600005A874987BC01645D7E4F7C876B87CD86A6
:10061000DE86DC8ECB8E26013701C7CF882D992D43
:10062000AA2DBB2D8093280190932901A0932A0124
:10063000B0932B0159814A813B812C81852F942FC6
:10064000A32FB22F8093240190932501A09326011C
:10065000B09327017B8970931E018C8980931F01C1
:10066000998990931C01EA89E0931D015D894E8967
:100670003F89288D852F942FA32FB22F809320019F
:1006800090932101A0932201B09323015D814E81BB
:10069000852F942FA22DB32D8093000190930101FB
:1006A000A0930201B0930301F98DF0931A012A8DF2
:1006B00020931B013F85309318014889409319010D
:1006C00080911E0190911F0120911A0130911B0110
:1006D0008217930719F5909343018093420140914B
:1006E0001C0150911D015093410140934001209104
:1006F00018013091190130933D0120933C0169E0CC
:1007000070E0FB01E81BF90BCF01841B950B821BEA
:10071000930B90933F0180933E0166C04F855889AB
:1007200084179507F9F49093430180934201409117
:100730001C0150911D0150934101409340013093A1
:100740003D0120933C0169E070E0FB01E81BF90BDF
:10075000CF01841B950B821B930B90933F018093D9
:100760003E0142C040911C0150911D0124173507E4
:1007700001F530934301209342019093410180930E
:1007800040014F85588950933D0140933C0149E019
:1007900050E0BA01621B730BFB01E81BF90BCF01A0
:1007A0002F853889821B930B90933F0180933E01E4
:1007B0001BC05093430140934201909341018093A9
:1007C000400130933D0120933C0169E070E0FB0162
:1007D000E41BF50BBF01681B790BCB01821B930B4C
:1007E00090933F0180933E0181E06C960FB6F894A0
:1007F000DEBF0FBECDBFDF91CF911F910F91FF9054
:10080000EF90DF90CF90BF90AF909F908F907F90B0
:100810006F905F904F903F902F9008950E94DD0E53
:1008200084E491E00E94480E0E948C0181E00895CA
:100830002F923F924F925F926F927F928F929F92F0
:10084000AF92BF92CF92DF92EF92FF920F931F93DE
:10085000CF93DF93CDB7DEB76A970FB6F894DEBFBC
:100860000FBECDBF1C016CE271E084E391E00E94F9
:100870004B01109217011092160180911401909172
:100880001501019709F0FCC60E948C011092150118
:1008900010921401F5C6219131912F3F334008F099
:1008A0000196E417F507B9F78093160190931701A5
:1008B000029744F081E090E0909315018093140139
:1008C00080E0E7C6A0904201B0904301F501EE0F31
:1008D000FF1FEC5CFE4F808191819E8B8D8B8F3F43
:1008E000E3E09E0708F02BC4E0904001F090410146
:1008F000F701EE0FFF1FEC5CFE4F008111810F3FEF
:10090000F3E01F0708F07CC14090080150900901F6
:1009100060900A0170900B01BC01600F711F80E0B4
:1009200090E00E94471120E030E040E05FE30E9449
:100930006212A30192010E94E00F69837D838A877E
:100940009987F501EE0FFF1FE45DFE4FC080D18057
:10095000F701EE0FFF1FE45DFE4FE080F180B7016D
:100960006C0D7D1D80E090E00E94471120E030E09A
:1009700040E05FE30E946212209104013091050182
:1009800040910601509107010E94E00F6E877A8B1B
:100990008B8B9C8BB60180E090E00E9447114B014D
:1009A0005C01B70180E090E00E9447119B01AC011F
:1009B000C501B4010E94E00F6B017C012D893E89C5
:1009C000B90180E090E00E9447114B015C01B80141
:1009D00080E090E00E9447119B01AC01C501B40189
:1009E0000E94E00FA70196010E9454104B015C0188
:1009F00079816D819A858985272F362F492F582F28
:100A0000BE85AA89EB891C896B2F7A2F8E2F912F97
:100A10000E9454106B017C0179816D819A858985D2
:100A2000272F362F492F582F672F732F892F952F58
:100A30000E9462126D8B7E8B8F8B988F7E856A8968
:100A40009B898C89272F362F492F582F672F732F7B
:100A5000892F952F0E9462129B01AC016D897E89BE
:100A60008F89988D0E94E10F0E94CF126D8B7E8B33
:100A70008F8B988FA501940162E578EB86E990E46D
:100A80000E94E00FA70196010E94E00F698F7A8F04
:100A9000182F092F812F902F0E94AB102D893E898E
:100AA0004F89588D0E9462129B01AC01C301B201B3
:100AB0000E94E10FF1016083718382839383598DDA
:100AC0004A8D652F742F812F902F0E94C5122D897A
:100AD0003E894F89588D0E94621220910401309105
:100AE000050140910601509107010E94E10FF101BB
:100AF000648375838683978320E030E044E353E486
:100B0000C501B4010E94621223EC35EF48E450E4C1
:100B10000E94AE10F10160877187828793870091F0
:100B2000420110914301000F111FF801EC5CFE4FD0
:100B30006081718180E090E00E944711F10164873B
:100B4000758786879787A0904001B0904101AA0CD5
:100B5000BB1CF501EC5CFE4F6081718180E090E090
:100B60000E944711F101608B718B828B938BF8018E
:100B7000E45DFE4F6081718180E090E00E9447114A
:100B8000F101648B758B868B978BF501E45DFE4FCD
:100B90006081718180E090E00E944711F101608FD7
:100BA000718F828F938F20E030E044E353E4C701DC
:100BB000B6010E94621223EC35EF48E450E40E9433
:100BC000AE10F101648F758F868F978F59814D819B
:100BD0003A852985852F942FA32FB22F80A391A327
:100BE000A2A3B3A35E854A893B892C89852F942FC4
:100BF000A32FB22F84A395A3A6A3B7A381E049C5D1
:100C0000E0903E01F0903F01F701EE0FFF1FEC5C1A
:100C1000FE4FC080D180FFEFCF16F3E0DF0608F073
:100C20003CC1F501EE0FFF1FE45DFE4F6081718155
:100C300080E090E00E9447114B015C012D893E89C4
:100C4000B90180E090E00E9447112B013C01F701BF
:100C5000EE0FFF1FE45DFE4F6081718180E090E048
:100C60000E9447119B01AC01C501B4010E94E00F35
:100C700069837A838B839C83B60180E090E00E9435
:100C800047119B01AC01C301B2010E94E00F298111
:100C90003A814B815C810E94541069837A838B83F3
:100CA0009C83C0900801D0900901E0900A01F09067
:100CB0000B019B01AC016DE176E889E59FE30E94A1
:100CC000E00F6A8779878E879A8B0E94C5122091E0
:100CD00020013091210140912201509123012D8367
:100CE0003E834F8358870E9462129B01AC01C3016F
:100CF000B2010E94E00F28E030E240E05EE30E9493
:100D000062129B01AC01C701B6010E94E00F6B8B20
:100D10007C8B182F092F5A8549853E852A89652F96
:100D2000742F832F922F0E94AB102B013C0120E0E7
:100D300030E040E05FE36D817E818F8198850E9485
:100D40006212A30192010E9462129B01AC01C501D3
:100D5000B4010E94E10F2CE030E340EC5DE30E941F
:100D600062129B01AC0160910401709105018091B8
:100D70000601909107010E94E00F862E972EA82E63
:100D8000B92E2DE136E849E55FE369817A818B81EF
:100D90009C810E94E10F69837D838A8799877B8983
:100DA0006C89272F362F412F502F682D792D8A2DB2
:100DB0009B2D0E9454102B013C017B896C89272FAD
:100DC000362F412F502F672F732F812F902F0E9486
:100DD00062126E877F87888B998B282D392D4A2D3B
:100DE0005B2D682D792D8A2D9B2D0E9462129B010F
:100DF000AC016E857F85888999890E94E10F0E94E8
:100E0000CF124B015C01A3019201B981AD81EA854A
:100E100019856B2F7A2F8E2F912F0E94E10F062FAD
:100E2000172F682E792E0E94AB10A50194010E9405
:100E300062129B01AC01C701B6010E94E00FF101F3
:100E40006083718382839383602F712F862D972D0A
:100E50000E94C512A50194010E9462129B01AC017F
:100E60006091040170910501809106019091070144
:100E70000E94E00FF1016483758386839783598113
:100E80004D813A852985852F942FA32FB22F8087F6
:100E90009187A287B38781E0FCC3E0903C01F0908A
:100EA0003D01F701EE0FFF1FEC5CFE4F0081118149
:100EB0000F3FF3E01F0708F0DDC3F501EE0FFF1F42
:100EC000E45DFE4F6081718180E090E00E944711F7
:100ED0004B015C012D893E89B90180E090E00E94C0
:100EE00047112B013C01F701EE0FFF1FE45DFE4FA0
:100EF0006081718180E090E00E9447119B01AC010C
:100F0000C501B4010E94E00F6B017C01B80180E0D3
:100F100090E00E9447119B01AC01C301B2010E9405
:100F2000E00FA70196010E94541069837A838B8396
:100F30009C83C0900801D0900901E0900A01F090D4
:100F40000B0120E030E040E05FE360912001709110
:100F5000210180912201909123010E9462126D83F0
:100F60007A8789879E8729813A814B815C8167ECEA
:100F70007EEF8DEE9EE30E94E00F6C8B7D8B8A8B63
:100F80009B8B0E94C5129B01AC01BD81AA8519856E
:100F90000E856B2F7A2F812F902F0E9462129B015A
:100FA000AC01C301B2010E94E10F28E030E240E051
:100FB0005EE30E9462129B01AC01C701B6010E9470
:100FC000E00F662E772E082F192F5C894D893A89FC
:100FD0002B89652F742F832F922F0E94AB109B01BA
:100FE000AC01BD81AA85E9855E846B2F7A2F8E2F97
:100FF000952D0E9462129B01AC01C501B4010E94B3
:10100000E00F2CE030E340EC5DE30E9462129B01B4
:10101000AC016091040170910501809106019091ED
:1010200007010E94E00FA62EB72E8E87998729818F
:101030003A814B815C8167EC7EEF8DEE9EEB0E94E6
:10104000E00F69837D83482E592E262D372D402FA2
:10105000512FFE85E9856A2D7B2D8F2F9E2F0E94B3
:1010600054106A877B878C879D87262D372D402FCC
:10107000512F662D772D802F912F0E9462123B01F8
:101080004C019E8589852A2D3B2D492F582F6A2D8D
:101090007B2D892F952F0E9462129B01AC01C40108
:1010A000B3010E94E10F0E94CF124B015C012A851F
:1010B0003B854C855D85B981AD816B2F7A2F842D61
:1010C000952D0E94E10F062F172F682E792E0E9472
:1010D000AB10A50194010E9462129B01AC01C701F3
:1010E000B6010E94E00FF1016083718382839383D4
:1010F000602F712F862D972D0E94C512A501940196
:101100000E9462129B01AC01609104017091050183
:1011100080910601909107010E94E00FF101648324
:1011200075838683978359814D81852F942FA42DB4
:10113000B52D80879187A287B38781E0AAC280916D
:10114000400190914101FC01EE0FFF1FEC5CFE4F4E
:1011500060807180FFEF6F16F3E07F0608F08CC2AD
:10116000E0903E01F0903F01F701EE0FFF1FEC5CB5
:10117000FE4FC080D1802FEFC21623E0D20608F0C8
:1011800032C1FC01EE0FFF1FE45DFE4F60817181F3
:1011900080E090E00E9447114B015C01B30180E0C8
:1011A00090E00E9447112B013C01F701EE0FFF1F59
:1011B000E45DFE4F6081718180E090E00E94471104
:1011C0009B01AC01C501B4010E94E00F69837A83E1
:1011D0008B839C83B60180E090E00E9447119B01C5
:1011E000AC01C301B2010E94E00F29813A814B8119
:1011F0005C810E94541069837A838B839C83C090A6
:101200000801D0900901E0900A01F0900B019B01C8
:10121000AC016BE971E78EE09FE30E94E00F6A8703
:1012200079878E879A8B0E94C51220912001309178
:10123000210140912201509123012D833E834F8350
:1012400058870E9462129B01AC01C301B2010E9447
:10125000E10F28E030E240E05EE30E9462129B0171
:10126000AC01C701B6010E94E00F6C8B7B8B182F7D
:10127000092F5A8549853E852A89652F742F832F2A
:10128000922F0E94AB109B01AC016D817E818F81FA
:1012900098850E9462129B01AC01C501B4010E94B5
:1012A000E00F2CE030E340EC5DE30E9462129B0112
:1012B000AC0160910401709105018091060190914B
:1012C00007010E94E00F862E972EA82EB92E2981A5
:1012D0003A814B815C8166EF7CEB81E89FEB0E9459
:1012E000E00F69837D838A8799877C896B89272FA3
:1012F000362F412F502F682D792D8A2D9B2D0E943E
:1013000054102B013C017C896B89272F362F412FEC
:10131000502F672F732F812F902F0E9462126E879C
:101320007F87888B998B282D392D4A2D5B2D682D31
:10133000792D8A2D9B2D0E9462129B01AC016E8536
:101340007F85888999890E94E10F0E94CF124B0105
:101350005C01A3019201B981AD81EA8519856B2FEA
:101360007A2F8E2F912F0E94E10F062F172F682EB4
:10137000792E0E94AB10A50194010E9462129B017C
:10138000AC01C701B6010E94E00FF10160837183D7
:1013900082839383602F712F862D972D0E94C51213
:1013A000A50194010E9462129B01AC0160910401AD
:1013B0007091050180910601909107010E94E00F54
:1013C000F101648375838683978359814D813A85C2
:1013D0002985852F942FA32FB22F80879187A287ED
:1013E000B38781E056C1E0903C01F0903D01F701E8
:1013F000EE0FFF1FEC5CFE4F008111810F3FF3E009
:101400001F0708F03BC1FC01EE0FFF1FE45DFE4F1C
:101410006081718180E090E00E9447114B015C0186
:10142000B30180E090E00E9447112B013C01F701DD
:10143000EE0FFF1FE45DFE4F6081718180E090E060
:101440000E9447119B01AC01C501B4010E94E00F4D
:101450006B017C01B80180E090E00E9447119B0184
:10146000AC01C301B2010E94E00FA70196010E94E6
:10147000541069837A838B839C83C0900801D09039
:101480000901E0900A01F0900B0120E030E040E01B
:101490005FE3609120017091210180912201909180
:1014A00023010E9462126C8B79878E879A8B298127
:1014B0003A814B815C816BE771E58EE89FE30E9486
:1014C000E00F6B8B79838D839A870E94C5129B01F5
:1014D000AC01BC89A9851E850A896B2F7A2F812FC3
:1014E000902F0E9462129B01AC01C301B2010E94C5
:1014F000E10F28E030E240E05EE30E9462129B01CF
:10150000AC01C701B6010E94E00F662E772E082FAE
:10151000192F5B8949813D812A85652F742F832F7F
:10152000922F0E94AB109B01AC01BC89A9855E84FF
:101530004A886B2F7A2F852D942D0E9462129B0171
:10154000AC01C501B4010E94E00F2CE030E340EC97
:101550005DE30E9462129B01AC01609104017091F5
:10156000050180910601909107010E94E00F6987B3
:10157000472E582E9A8B262D372D402F512FB98567
:10158000EA896B2F742D852D9E2F0E9454104B01DC
:101590005C01262D372D402F512F662D772D802F62
:1015A000912F0E9462126E877F87888B998B798535
:1015B0008A89272F342D452D582F672F742D852D7F
:1015C000952F0E9462129B01AC016E857F858889F0
:1015D00099890E94E10F0E94CF122B013C01A501C5
:1015E0009401BB89A981ED811A856B2F7A2F8E2FEB
:1015F000912F0E94E10FB62E072F182FA92E812FB1
:101600000E94AB10A30192010E9462129B01AC01E7
:10161000C701B6010E94E00FF101608371838283EC
:1016200093836B2D702F812F9A2D0E94C512A301D9
:1016300092010E9462129B01AC01609104017091C1
:10164000050180910601909107010E94E00FF101D0
:1016500064837583868397835B8949813D812A856D
:10166000852F942FA32FB22F80879187A287B387CE
:1016700081E00FC080E00DC080E00BC080E009C0B9
:101680008091160190911701E4E3F1E04CE351E001
:1016900002C96A960FB6F894DEBF0FBECDBFDF91C8
:1016A000CF911F910F91FF90EF90DF90CF90BF905F
:1016B000AF909F908F907F906F905F904F903F90F2
:1016C0002F90089581E08093D70080EA8093D8001E
:1016D00082E189BD09B400FEFDCF80E98093D80086
:1016E0001092E00010925D0110925E018CE08093F8
:1016F000E2007894089580915D010895CF93DF937F
:1017000090915D01992309F44DC09FB7F89424E0AE
:101710002093E90020915F01222349F02091E80005
:1017200025FD03C09FBF8FEF42C010925F01309133
:10173000E400375E2091E80025FD25C09FBF909111
:10174000E400931749F090915D0191110FC02CC0F6
:101750009FBF9881931305C081E080935F018FEF55
:1017600026C090915D01911108C020C0A9EEB0E0A3
:1017700044E0E8EEF0E0C4EED0E09FB7F8944C937C
:10178000208125FFE5CF8093F1008091E80085FD61
:1017900003C08AE38093E80085E080935C019FBFEB
:1017A00080E005C08FEF03C08FEF01C08FEFDF91A6
:1017B000CF9108951F920F920FB60F9211248F931D
:1017C0009F93EF93FF93E1EEF0E08081108283FF1F
:1017D00011C01092E90091E09093EB001092EC00A0
:1017E00092E19093ED0098E09093F00010925D01EB
:1017F00010925E0182FF13C080915D01882379F011
:1018000080915C01882359F0815080935C018111A3
:1018100006C084E08093E9008AE38093E800FF91AA
:10182000EF919F918F910F900FBE0F901F90189581
:101830001F920F920FB60F9211240F931F932F93A5
:101840003F934F935F936F937F938F939F93AF9348
:10185000BF93CF93DF93EF93FF931092E9008091B2
:10186000E80083FF51C1E1EFF0E070814081208109
:101870003081932F80E0DC01A22B9D01508160819B
:10188000962F80E0852BA081B08152EF5093E80025
:10189000463009F05CC004C081E28093EB003BC19C
:1018A000C6E049EF50E0FA016591749126173707B9
:1018B00019F0495F5F4F20C0FA013296659174912B
:1018C0008617970719F0495F5F4F16C0FA013496E3
:1018D00085919491282F392FFA01369644919B2FA8
:1018E00080E08A2B8F3F910519F010F08FEF90E088
:1018F000841728F4482F03C0C150A9F6CDCFC8EEF5
:10190000D0E07EEFA1EFB0E010E18881982F9570D4
:10191000E1F382FD00C1642F413108F0612F66239D
:1019200009F4F6C0C901562FFC010196E491EC932D
:101930005150D1F7862F815090E00196280F391F22
:10194000461B78834111E1CF6031F9F2E4C04530A4
:1019500061F48EEF8093E800E8EEF0E0808180FF94
:10196000FDCF20682093E300D6C04930A1F5711166
:101970005BC020935D0110925E0110925C018EEFBE
:101980008093E80011E083E291E0C9EED0E0ABEE95
:10199000B0E06CEE70E04DEE50E018839C012F5FDC
:1019A0003F4FFC0104910C93002359F0F90124915D
:1019B000FB012083FC01329603962491FA012083D7
:1019C00001C0C9011F5F153041F7EAEEF0E08EE17A
:1019D00080831082A0C0483081F4703809F03FC085
:1019E000E8EEF0E0808180FFFDCF80915D01809383
:1019F000F1008EEF8093E8008EC04132A9F4713A75
:101A0000F1F5E8EEF0E0808180FFFDCFECE0F1E061
:101A1000A1EFB0E081918C9341E0E331F407D1F77D
:101A20008EEF8093E80077C04032C9F4713209F03C
:101A30006BC0E8EEF0E0808182FFFDCFECE0F1E0EA
:101A4000A1EFB0E08C91819351E0E331F507D1F73C
:101A5000E8EEF0E08BEF80838EEF80835CC0423253
:101A600071F4713209F050C020935E01E8EEF0E0AD
:101A7000808180FFFDCF8EEF8093E8004CC0411144
:101A80001AC0E8EEF0E0208120FFFDCF723851F45B
:101A9000E9EEF0E080838091EB0085FB882780F9F8
:101AA000108201C080E0E1EFF0E0808310828EEFD1
:101AB0008093E80030C0413011F0433029F5723096
:101AC00019F5232B09F58F779927382F31503430AA
:101AD000D8F43EEF3093E8008093E900433021F4DE
:101AE00081E28093EB0017C099E19093EB0021E035
:101AF00030E0D90102C0AA0FBB1F8A95E2F7EAEED7
:101B0000F0E0A083108207C081E28093EB0003C065
:101B100078834111FACEFF91EF91DF91CF91BF9180
:101B2000AF919F918F917F916F915F914F913F9175
:101B30002F911F910F910F900FBE0F901F9018952E
:101B40001F93CF93DF93EC012196FC011491112395
:101B500069F01A3019F48DE00E947E0B812F0E94EB
:101B60007E0BFE01219614911111F3CFDF91CF91DD
:101B70001F910895EF92FF920F931F93CF93DF93DE
:101B8000CDB7DEB727970FB6F894DEBF0FBECDBF37
:101B90008E010F5F1F4F27E0F80111922A95E9F798
:101BA0004AE050E0B8010E9436137E01F8E0EF0EE3
:101BB000F11CF80181918F0181110E947E0B0E159D
:101BC0001F05B9F727960FB6F894DEBF0FBECDBF3D
:101BD000DF91CF911F910F91FF90EF90089520E03A
:101BE00030E0ECEBF0E08081882334F02F5F3F4F52
:101BF000293E83E03807B9F781E0283E334009F4F5
:101C000080E008958093BB0084E88093BC000E942C
:101C1000EF0D882321F08091B900887F089580E03E
:101C20000895CF93C82F94EA9093BC000E94EF0DC3
:101C3000882361F08C2F880F8F5F0E94020E8834FA
:101C400039F484E98093BC0080E003C080E001C0E7
:101C500081E0CF910895CF93C82F94EA9093BC0070
:101C60000E94EF0D882359F08C2F880F0E94020EDE
:101C7000803239F484E98093BC0080E003C080E0C6
:101C800001C081E0CF91089584E98093BC0008955C
:101C9000EF92FF920F931F93CF93DF93CDB7DEB7F1
:101CA00060970FB6F894DEBF0FBECDBFE82EF92EB9
:101CB000FE01319680E1DF011D928A95E9F788E502
:101CC0000E942B0E882309F466C086E30E94020E50
:101CD000882309F462C00E94440EB8E0BA95F1F777
:101CE000000088E50E94110E882309F458C0AE0157
:101CF0004F5F5F4F8E01005F1F4FECEBF0E094EC05
:101D00002BEB30E0908380818823ECF7D9018C9114
:101D1000DA018D93AD01A017B107A1F784E8809394
:101D2000BC00ECEBF0E080818823ECF78091BB00F5
:101D3000888B0E94440EDE0114966E2D7F2D4C91EF
:101D4000242F2073CD010297FC01808190E0F0E107
:101D50002F9F800D911D1124FB0191838083842F7F
:101D6000807C90E0880F991F880F991F9D0121505A
:101D70003109F9012081820F911DFB019383828338
:101D80004F704483158213966A5F7F4F0A171B07B3
:101D9000B1F681E005C080E003C080E001C080E0D2
:101DA00060960FB6F894DEBF0FBECDBFDF91CF9126
:101DB0001F910F91FF90EF9008950E943A0188E5DE
:101DC0000E942B0E882309F4C7C080E30E94020EF4
:101DD000882309F4C3C081E00E94020E882309F41D
:101DE000BFC00E94440E83EC99E00197F1F700C058
:101DF000000088E50E942B0E882309F4B3C080E020
:101E00000E94020E882309F4AFC080E00E94020EF7
:101E1000882309F4ABC080E00E94020E882309F4F5
:101E2000A7C080E00E94020E882309F4A3C080E0CE
:101E30000E94020E882309F49FC080E00E94020ED7
:101E4000882309F49BC080E00E94020E882309F4D5
:101E500097C080E90E94020E882309F493C00E9473
:101E6000440E83EC99E00197F1F700C0000088E58B
:101E70000E942B0E882309F487C087E00E94020E7F
:101E8000882309F483C080E00E94020E882309F4AD
:101E90007FC081E40E94020E882309F47BC00E9467
:101EA000440E83EC99E00197F1F700C0000088E54B
:101EB0000E942B0E882309F46FC08AE10E94020E53
:101EC000882309F46BC080E40E94020E882309F481
:101ED00067C080E00E94020E882309F463C00E945C
:101EE000440E83EC99E00197F1F700C0000088E50B
:101EF0000E942B0E882309F457C083E30E94020E30
:101F0000882309F453C083E00E94020E882309F459
:101F10004FC00E94440E83EC99E00197F1F700C096
:101F2000000088E50E942B0E882309F443C080E35B
:101F30000E94020E882309F43FC088E00E94020E2E
:101F40008823E1F10E94440E83EC99E00197F1F7B8
:101F500000C0000081E0089580E0089580E00895C9
:101F600080E0089580E0089580E0089580E008957D
:101F700080E0089580E0089580E0089580E008956D
:101F800080E0089580E0089580E0089580E008955D
:101F900080E0089580E0089580E0089580E008954D
:101FA00080E0089580E0089580E0089580E008953D
:101FB00080E0089580E0089580E0089580E008952D
:101FC0005058BB27AA270ED027C2F0D130F0F5D148
:101FD00020F031F49F3F11F41EF4C0C10EF4E095DF
:101FE000E7FBB6C1E92F3AD280F3BA17620773074D
:101FF0008407950718F071F49EF552C20EF4E0952F
:102000000B2EBA2FA02D0B01B90190010C01CA01B2
:10201000A0011124FF27591B99F0593F50F4503E5D
:1020200068F11A16F040A22F232F342F4427585F4F
:10203000F3CF469537952795A795F0405395C9F767
:102040007EF41F16BA0B620B730B840BBAF091501F
:10205000A1F0FF0FBB1F661F771F881FC2F70EC0BE
:10206000BA0F621F731F841F48F487957795679591
:10207000B795F7959E3F08F0B3CF9395880F08F07A
:102080009927EE0F97958795089590D158F080E89D
:1020900091E009F49EEF91D128F040E851E059F425
:1020A0005EEF09C05BC1FCC1E92FE078D7D168F3CE
:1020B000092E052AC1F3261737074807590738F0B4
:1020C0000E2E07F8E02569F0E025E0640AC0EF6312
:1020D00007F8009407FADB01B9019D01DC01CA0190
:1020E000AD01EF934AD098D10AD05F91552331F0DA
:1020F0002BED3FE049E450FD49EC63CF0895DF93B9
:10210000DD27B92FBF7740E85FE3161617064807AB
:102110005B0710F4D92FCFD19F938F937F936F9349
:102120007CD2ECEAF0E01DD177D12F913F914F9115
:102130005F91D4D1DD2349F09058A2EA2AED3FE027
:1021400049EC5FE3D0785D274DDFDF9165C1DCD0DE
:1021500008F481E0089539D1E3956FC10CD05CC1DA
:102160002CD140F023D130F021F45F3F19F0F0C0C2
:10217000511197C1F3C072D198F39923C9F3552334
:10218000B1F3951B550BBB27AA276217730784076A
:1021900038F09F5F5F4F220F331F441FAA1FA9F320
:1021A00033D00E2E3AF0E0E830D091505040E69512
:1021B000001CCAF729D0FE2F27D0660F771F881F73
:1021C000BB1F261737074807AB07B0E809F0BB0B62
:1021D000802DBF01FF2793585F4F2AF09E3F510586
:1021E00068F0B6C05EC15F3FECF3983EDCF38695C5
:1021F00077956795B795F7959F5FC9F7880F911DFC
:102200009695879597F90895E1E0660F771F881FE7
:10221000BB1F621773078407BA0720F0621B730B9A
:10222000840BBA0BEE1F88F7E095089504D06894EC
:10223000B11137C108951AD188F09F5790F0B92F86
:102240009927B751A0F0D1F0660F771F881F991F0B
:102250001AF0BA95C9F712C0B13081F021D1B1E0BE
:1022600008951EC1672F782F8827B85F39F0B93FCE
:10227000CCF3869577956795B395D9F73EF490950D
:102280008095709561957F4F8F4F9F4F0895E8948B
:1022900009C097FB3EF490958095709561957F4FAE
:1022A0008F4F9F4F9923A9F0F92F96E9BB2793955C
:1022B000F695879577956795B795F111F8CFFAF46C
:1022C000BB0F11F460FF1BC06F5F7F4F8F4F9F4F9D
:1022D00016C0882311F096E911C0772321F09EE8FB
:1022E000872F762F05C0662371F096E8862F70E061
:1022F00060E02AF09A95660F771F881FDAF7880F3B
:102300009695879597F90895990F0008550FAA0B90
:10231000E0E8FEEF16161706E807F907C0F01216F8
:102320001306E407F50798F0621B730B840B950BFB
:1023300039F40A2661F0232B242B252B21F4089550
:102340000A2609F4A140A6958FEF811D811D0895ED
:1023500097F99F6780E870E060E008959FEF80EC58
:102360000895DF93CF931F930F93FF92EF92DF9225
:102370007B018C01689405C0DA2EEF01AFD0FE011D
:10238000E894A5912591359145915591AEF3EF01D2
:1023900029DEFE019701A801DA9479F7DF90EF902A
:1023A000FF900F911F91CF91DF91089500240A941F
:1023B0001616170618060906089500240A94121620
:1023C0001306140605060895C9CF50D0E8F3E89423
:1023D000E0E0BB279F57F0F02AED3FE049EC06C054
:1023E000EE0FBB0F661F771F881F28F0B23A6207F7
:1023F0007307840728F0B25A620B730B840BE395C2
:102400009A9572F7803830F49A95BB0F661F771F44
:10241000881FD2F7904806C1092E0394000C11F4CE
:10242000882352F0BB0F40F4BF2B11F460FF04C0AF
:102430006F5F7F4F8F4F9F4F0895EF93E0FF06C070
:10244000A2EA2AED3FE049EC5FEBCCDDE5DF0F903F
:10245000039401FC9058E9EDF0E0F7C057FD905867
:10246000440F551F59F05F3F71F04795880F97FB58
:10247000991F61F09F3F79F0879508951216130612
:102480001406551FF2CF4695F1DF08C01616170641
:102490001806991FF1CF8695710561050894089576
:1024A000E894BB2766277727CB0197F908952CDF9F
:1024B00008F48FEF08959B01AC0160E070E080E8C4
:1024C0009FE34CCE0BD0A8CF71DF28F076DF18F059
:1024D000952309F03DCF42CF1124E3CFBFDFA0F316
:1024E000959FD1F3950F50E0551F629FF001729FA9
:1024F000BB27F00DB11D639FAA27F00DB11DAA1FC8
:10250000649F6627B00DA11D661F829F2227B00D14
:10251000A11D621F739FB00DA11D621F839FA00D9F
:10252000611D221F749F3327A00D611D231F849FEF
:10253000600D211D822F762F6A2F11249F57504046
:102540008AF0E1F088234AF0EE0FFF1FBB1F661FE1
:10255000771F881F91505040A9F79E3F510570F09A
:10256000F7CE9FCF5F3FECF3983EDCF386957795EF
:102570006795B795F795E7959F5FC1F7FE2B880F95
:10258000911D9695879597F908959F931EDF0F905B
:1025900007FCEE5F52CF11F40EF4E0CE41C066DFCF
:1025A000D0F39923D9F3CEF39F57550B87FF46D02D
:1025B0000024A0E640EA900180585695979528F4AB
:1025C000805C660F771F881F20F0261737074807A3
:1025D00030F4621B730B840B202931294A2BA695FA
:1025E00017940794202531254A2758F7660F771F3F
:1025F000881F20F026173707480730F4620B730B4B
:10260000840B200D311D411DA09581F7B901842F48
:102610009158880F9695879508959B01AC0152CFEC
:102620009F3F31F0915020F4879577956795B79546
:10263000880F911D9695879597F908959150504070
:10264000660F771F881FD2F708959F938F937F930C
:102650006F93FF93EF939B01AC0134DFEF91FF91F8
:1026600080DE2F913F914F915F912CCFFB019F0115
:10267000E8944230C4F04532B4F44A3029F497FB70
:102680001EF4909581959F4F642F77270E946713C2
:10269000805D8A330CF0895D8193CB010097A1F7AF
:1026A00016F45DE251931082C9010C945713DC01BA
:1026B000FC01672F71917723E1F7329704C07C9179
:1026C0006D9370836291AE17BF07C8F30895AA1B7C
:1026D000BB1B51E107C0AA1FBB1FA617B70710F00D
:1026E000A61BB70B881F991F5A95A9F7809590953F
:0A26F000BC01CD010895F894FFCF5E
:1026FA0000C07F44000000440000004400E10000E4
:04270A0000000800C3
:00000001FF
