S02B0000576972656C65737320436F6D6D756E69636174696F6E202D2D20436F6D707574657220536964652E54
S11300000C94B0000C94CD000C94CD000C946B04B3
S11300100C94CD000C94CD000C94CD000C94CD0028
S11300200C94CD000C94CD000C9440020C947E02F0
S11300300C94CD000C94CD000C94CD000C94CD0008
S11300400C94CD000C94CD000C94CD000C94CD00F8
S11300500C94CD000C94CD000C94CD000C94CD00E8
S11300600C94CD000C94CD000C94CD000C94CD00D8
S11300700C94CD000C94CD000C94CD000C94CD00C8
S11300800C94CD000C94CD000C94CD000C94CD00B8
S11300900C94CD000C94CD000C94CD000C94CD00A8
S11300A00C94CD000C94CD000C94CD000001000004
S11300B0E0001200020000F20043000300003501DA
S11300C00401030904390112020309044D01060362
S11300D00309045501080001C1120180360181366B
S11300E01201000202000010C0167A04000101028D
S11300F0030109024300020100C0320904000001A7
S11301000202010005240010010524010101042458
S113011002060524060001070582031000400904B5
S11301200100020A00000007050302400000070561
S113013084024000000403090412034A002E002034
S1130140004600690065006E006500000006034D6E
S113015000320000000803340031003000000000C9
S113016011241FBECFEFDAE0DEBFCDBF11E0A0E067
S1130170B1E0E2EEF9E002C005900D92A830B107BB
S1130180D9F721E0A8E0B1E001C01D92A131B20786
S1130190E1F70E943B040C94EF040C940000589A7D
S11301A0599A5A9A8CE08093B800E9E6F0E080818D
S11301B08062808380818F7E8083EA9A7894089518
S11301C01F93CF93DF93182FD62FC42F0E94CF00F5
S11301D094EA9093BC00ECEBF0E090819923ECF767
S11301E090E59093BB0094E89093BC00ECEBF0E0B6
S11301F090819923ECF79091B900987F903229F47B
S113020084E98093BC0080E02DC081E08093BB0032
S113021084E88093BC00ECEBF0E090819923ECF748
S11302201093BB0084E88093BC00ECEBF0E0808189
S11302308823ECF7D093BB0084E88093BC00ECEBFC
S1130240F0E080818823ECF7C093BB0084E88093BE
S1130250BC00ECEBF0E080818823ECF784E9809328
S1130260BC0081E0DF91CF911F910895CF93DF937C
S113027024EA2093BC00ECEBF0E020812223ECF78D
S113028021E52093BB0024E82093BC00ECEBF0E0D4
S113029020812223ECF72091B900287F283429F407
S11302A084E98093BC0080E03FC024EC2093BC0030
S11302B0ECEBF0E020812223ECF74091BB004613E5
S11302C009C050E0415051091416150644F040E0AD
S11302D050E018C084E98093BC0080E025C0DC01B4
S11302E020E030E0ECEBF0E074ECCBEBD0E070839A
S11302F060816623ECF768816D932F5F3F4F24176D
S11303003507ACF324E82093BC00ECEBF0E020814B
S11303102223ECF72091BB00FC01E40FF51F20839E
S113032084E98093BC0081E0DF91CF91089581E05E
S11303308093D70080EA8093D80082E189BD09B414
S113034000FEFDCF80E98093D8001092E000109267
S1130350090110920A018CE08093E20078940895D8
S11303609FB7F89480910901811103C09FBF8FEF5B
S1130370089583E08093E9008091E80085FD03C03F
S11303809FBF8FEF08958091F1002091E80025FD33
S113039003C02BE62093E8009FBF089580910901D4
S11303A0882389F02FB7F89483E08093E900809143
S11303B0E80085FF07C0E8EEF0E09BE690838081CB
S11303C085FDFCCF2FBF0895CF93DF939091090152
S11303D0992309F44DC09FB7F89424E02093E900D1
S11303E020910B01222349F02091E80025FD03C050
S11303F09FBF8FEF42C010920B013091E400375E33
S11304002091E80025FD25C09FBF9091E40093173B
S113041049F09091090191110FC02CC09FBF9881A0
S1130420931305C081E080930B018FEF26C0909158
S11304300901911108C020C0A9EEB0E044E0E8EE43
S1130440F0E0C4EED0E09FB7F8944C93208125FFF0
S1130450E5CF8093F1008091E80085FD03C08AE335
S11304608093E80085E0809308019FBF80E005C089
S11304708FEF03C08FEF01C08FEFDF91CF9108950D
S11304801F920F920FB60F9211248F939F93EF93A5
S1130490FF93E1EEF0E08081108283FF11C010929F
S11304A0E90091E09093EB001092EC0092E19093BC
S11304B0ED0098E09093F0001092090110920A0167
S11304C082FF13C080910901882379F0809108018B
S11304D0882359F0815080930801811106C084E07B
S11304E08093E9008AE38093E800FF91EF919F9164
S11304F08F910F900FBE0F901F9018951F920F921F
S11305000FB60F9211240F931F932F933F934F9382
S11305105F936F937F938F939F93AF93BF93CF9387
S1130520DF93EF93FF931092E9008091E80083FF3B
S113053051C1E1EFF0E07081408120813081932F3F
S113054080E0DC01A22B9D0150816081962F80E028
S1130550852BA081B08152EF5093E800463009F01A
S11305605CC004C081E28093EB003BC1C6E04CEA6E
S113057050E0FA01659174912617370719F0495F25
S11305805F4F20C0FA0132966591749186179707E0
S113059019F0495F5F4F16C0FA0134968591949122
S11305A0282F392FFA01369644919B2F80E08A2B0D
S11305B08F3F910519F010F08FEF90E0841728F425
S11305C0482F03C0C150A9F6CDCFC8EED0E07EEFCE
S11305D0A1EFB0E010E18881982F9570E1F382FDDE
S11305E000C1642F413108F0612F662309F4F6C07D
S11305F0C901562FFC010196E491EC935150D1F7B7
S1130600862F815090E00196280F391F461B78836E
S11306104111E1CF6031F9F2E4C0453061F48EEF6D
S11306208093E800E8EEF0E0808180FFFDCF206851
S11306302093E300D6C04930A1F571115BC020932B
S1130640090110920A01109208018EEF8093E800CC
S113065011E086ED90E0C9EED0E0ABEEB0E06CEED8
S113066070E04DEE50E018839C012F5F3F4FFC017A
S113067004910C93002359F0F9012491FB01208388
S1130680FC01329603962491FA01208301C0C9012A
S11306901F5F153041F7EAEEF0E08EE180831082AF
S11306A0A0C0483081F4703809F03FC0E8EEF0E0B3
S11306B0808180FFFDCF809109018093F1008EEF4E
S11306C08093E8008EC04132A9F4713AF1F5E8EE66
S11306D0F0E0808180FFFDCFE0E0F1E0A1EFB0E049
S11306E081918C9341E0E730F407D1F78EEF80934A
S11306F0E80077C04032C9F4713209F06BC0E8EE0B
S1130700F0E0808182FFFDCFE0E0F1E0A1EFB0E016
S11307108C91819351E0E730F507D1F7E8EEF0E0F2
S11307208BEF80838EEF80835CC0423271F4713230
S113073009F050C020930A01E8EEF0E0808180FFC8
S1130740FDCF8EEF8093E8004CC041111AC0E8EE53
S1130750F0E0208120FFFDCF723851F4E9EEF0E0A3
S113076080838091EB0085FB882780F9108201C08B
S113077080E0E1EFF0E0808310828EEF8093E80068
S113078030C0413011F0433029F5723019F5232B74
S113079009F58F779927382F31503430D8F43EEF4C
S11307A03093E8008093E900433021F481E28093A0
S11307B0EB0017C099E19093EB0021E030E0D90100
S11307C002C0AA0FBB1F8A95E2F7EAEEF0E0A0830D
S11307D0108207C081E28093EB0003C0788341114B
S11307E0FACEFF91EF91DF91CF91BF91AF919F919D
S11307F08F917F916F915F914F913F912F911F91B5
S11308000F910F900FBE0F901F901895EF92FF92CB
S11308100F931F93CF93DF93CDB7DEB727970FB610
S1130820F894DEBF0FBECDBF8E010F5F1F4F27E0D0
S1130830F80111922A95E9F74AE050E0B8010E94C4
S1130840AA047E01F8E0EF0EF11CF80181918F01FA
S113085081110E94E4010E151F05B9F727960FB602
S1130860F894DEBF0FBECDBFDF91CF911F910F91E2
S1130870FF90EF90089543E06FEF81E00E94E00065
S11308800E94970178940F2EFEE0EF2EF1E0FF2EE8
S1130890F02D01E111E080910C0190910D0101977F
S11308A0D1F70E94B001C82F0E94CE01C13071F46B
S11308B0E701899190E00E94060489E00E94E40126
S11308C0C017D107B1F78AE00E94E40110920D012C
S11308D010920C01E0CF1F920F920FB60F921124C9
S11308E02F933F934F935F936F937F938F939F9334
S11308F0AF93BF93EF93FF93F8946A9A9EB184E009
S113090089278EB980910C0190910D01892B81F476
S113091063E08EE091E00E9436016E9A9EB180E41D
S113092089278EB981E090E090930D0180930C01AA
S11309307894FF91EF91BF91AF919F918F917F91A7
S11309406F915F914F913F912F910F900FBE0F9038
S11309501F901895FB019F01E8944230C4F0453282
S1130960B4F44A3029F497FB1EF4909581959F4F77
S1130970642F77270E94DB04805D8A330CF0895D45
S11309808193CB010097A1F716F45DE25193108295
S1130990C9010C94CB04DC01FC01672F719177230E
S11309A0E1F7329704C07C916D9370836291AE1726
S11309B0BF07C8F30895AA1BBB1B51E107C0AA1FB8
S11309C0BB1FA617B70710F0A61BB70B881F991FEC
S11309D05A95A9F780959095BC01CD010895F89496
S10509E0FFCF43
S10B09E200E100000000080020
S9030000FC
